:03028B0001080067
:1001A700120161F52190000112017AF522900002F7
:1001B70012017AF52390000312017AF524900004C6
:1001C70012017AF525C2ACE4FFEFC394057480945D
:1001D70080500F74212FF8E6F5993099FDC2990FD9
:0401E70080E7D2AC2F
:0101EB0022F1
:10000300D3EF9400EE940040147D6E7C00ED1D70E0
:0D001300011CED4C70F7EF1F70E61E80E33E
:0100200022BD
:080282007F047E1BDEFEDFFCA1
:01028A002251
:0C026A007FF47E827D04DDFEDEFCDFFA06
:010276002265
:0602770012027D12027D5F
:04027D007F4EDFFED3
:01028100225A
:0E025B0000007F037E327D04DDFEDEFCDFFA54
:010269002272
:10011B00E4FEEEC39408748094805039751102206C
:10012B00C007AF110511EF70F6120277E4F5153029
:10013B00C00375150175110230C007AF110511EF22
:10014B0070F6E5116401600DE52025E0F520E5155D
:05015B0042200E80BDF2
:01016000227C
:1000B200C2C012025BD2C012027712027DD2C020ED
:1000C200C05675110220C007AF110511EF70F67509
:1000D200110230C007AF110511EF70F612011B8536
:1000E200201D12011B85201E12011B85200B1201EF
:1000F2001B85200C12011B852014D2C0E50B250C98
:10010200251D251EF515B5140F851D16851E17858F
:090112000B09850C0A8514122268
:1001EC0053877F759850438E40538EFE53890F432F
:1001FC008920758BB2758DB2C2ABD28E12026A1287
:10020C0000B212028285161885171985091A850AFB
:0F021C001B85121C7B007A0079181201A780DD68
:0300230002022BAB
:09022B00C0E0C0D075D000C0078E
:10023400309902C299C298AF99EF647F700F050894
:10024400E508640A700AF50843C76080037508006E
:07025400D007D0D0D0E0324A
:03000000020026D5
:0C002600787FE4F6D8FD75812502006D9E
:10016100BB010689828A83E0225002E722BBFE029C
:09017100E32289828A83E49322CF
:10017A00BB010CE58229F582E5833AF583E022503A
:10018A0006E92582F8E622BBFE06E92582F8E22284
:0D019A00E58229F582E5833AF583E493229E
:100032000201ECE493A3F8E493A34003F68001F2F7
:1000420008DFF48029E493A3F85407240CC8C333CF
:10005200C4540F4420C8834004F456800146F6DF9E
:10006200E4800B010204081020408090028BE47EA1
:10007200019360BCA3FF543F30E509541FFEE49393
:10008200A360010ECF54C025E060A840B8E493A35A
:10009200FAE493A3F8E493A3C8C582C8CAC583CA85
:1000A200F0A3C8C582C8CAC583CADFE9DEE780BE3D
:01028E00006F
:00000001FF
