:0300000002018575
:0C018500787FE4F6D8FD758120020003AD
:10016100AD071FED600BE4FEEEC3946450F20E8008
:01017100F796
:01017200226A
:03019100120194C4
:06019400E4FF0FBF01FCB7
:01019A002242
:10017300C2A3D2A4D2A500000000E580339200C23E
:01018300A5D6
:010184002258
:1001150012017340FBC2A3C2A4C2A500008F8000D8
:0C012500000000D2A500000000C2A522CE
:07019B00EF4480FF02011593
:1001310012017340FBD2A3C2A4C2A500008F8000AC
:0C014100000000D2A500000000C2A522B2
:1000AA007F381201157F011201617F0C1201157F41
:1000BA00011201617F061201157F011201617F01A0
:0600CA00120115020161A4
:0900F40075F00A84E5F02430FDEA
:1000FD00AC05AB077F0A120161AF0312019BAF0480
:08010D001201317F01020161C2
:10014D00D290120194C2907F19120161D2901201C6
:04015D009102019476
:1000D000E4FD3090FD120191120194E4FE30900194
:1000E0000E2090FDE50C25E0F50CEE420C0DBD0850
:0300F000E1AF0C71
:0100F30022EA
:1000660012014DD29020903B3090FD2090FD120061
:10007600D0A9071200D0AC071200D0AB071200D0EF
:10008600AA071200D0AE07C290E4FD1201940DBD7E
:1000960007F9D290E92C2B2AB5060889088C0A8B19
:0300A600098A0BB9
:0100A9002234
:100003001200AA1200667D52E4FF1200FD7D3A7FC2
:10001300011200FDE50875F00A842430FD7F021209
:1000230000FDE5087F031200F47D257F041200FD27
:100033007D547F401200FD7D3A7F411200FDE509AA
:1000430075F00A842430FD7F421200FDE5097F43E9
:100053001200F47DDF7F441200FD7D437F451200D3
:03006300FD80A07D
:00000001FF
