:0422310041007300F5
:1022090012227AC2C412237CD2C41219C674FFFFE7
:10221900FE12215212211A121DC712180012211A78
:0822290012180012232B80F5AE
:030023000220A612
:0D20A600C0E0C083C082C0D075D000C0076C
:1020B300309902C299C298AF99EF647F7011900072
:1020C30073E004F0E0640A700BF043C7608005908E
:0420D3000073E4F0C2
:0B20D700D007D0D0D082D083D0E03200
:10232B0020A40D7F0A7E0012229B20A40330A4FD63
:01233B00227F
:10233C0020A50D7F0A7E0012229B20A50330A5FD4F
:01234C00226E
:1022EC0020CC127F0A7E0012229B20CC0643C720F2
:0622FC000223EED2A22233
:10227A00438780759850438E40538EFE53890F438F
:10228A008920758BE6758DE6C2ABD28ED2AFD2AC01
:01229A002221
:1022D300121638FF642160108F99740129F9E43ACA
:0922E300FA3099FDC29980E8224D
:0323EE00C2A22266
:0422350041006700FD
:101EF300E4900009F0900009E0C394087480948092
:101F0300505490000B7402F020C00A90000BE0FFC5
:101F130004F0EF70F31223E4E490000AF030C002FF
:101F230004F090000B7402F030C00A90000BE0FF45
:101F330004F0EF70F390000BE06401601990006708
:101F4300E025E0FFF090000AE04F900067F090007A
:061F530009E004F0809F8C
:011F59002265
:101D0B00E4900004F0A3F0A3F0A3F0A3F012237C63
:101D1B00C2C012235ED2C01223BFD2C030C002A1F8
:101D2B00C67F0220C006AE070FEE70F77F0230C0F1
:101D3B0006AE070FEE70F7121EF3900067E09000EF
:101D4B0004F0121EF3900067E0900005F0121EF3F2
:101D5B00900067E0900006F0121EF3900067E09091
:101D6B000007F0121EF3900067E0FF900008F0D21E
:101D7B00C0900007E0FD900006E02DFDE433FC90E1
:101D8B000004E0F97A002DFDEA3CFCA3E0FE2DFDFA
:101D9B00EA3CFCEFB50524EAB50420900068E9F0B5
:101DAB00A3EEF0900006E090006AF0900007E09040
:0B1DBB00006BF0900008E0900066F064
:011DC60022FA
:101F5A0012163890006CF090000112165190006D24
:101F6A00F090000212165190006EF09000031216C3
:101F7A005190006FF0900004121651900070F0C258
:101F8A00ACE4FFEFC39405748094805015746C2FF1
:101F9A00F582E43400F583E0F5993099FDC2990F92
:041FAA0080E1D2AC54
:011FAE002210
:1022390047005880828486888A8C47005109081093
:0E2249001408052047005F81838587898B8DEF
:101FAF00C2C700C2C500D2C700E4FEEEC3940874D6
:101FBF008094805011EF1392C6EFC313FFD2C50068
:101FCF00C2C5000E80E5E4FEEEC3940874809480D1
:101FDF005011ED1392C6EDC313FDD2C500C2C5005B
:061FEF000E80E5C2C700F0
:011FF50022C9
:10200000C2C700C2C500D2C700E4FDEDC394087486
:102010008094805011EF1392C6EFC313FFD2C50016
:10202000C2C5000D80E500E4FDEDC3940874809402
:1020300080501AA2C6E433FFC43333335480FCEE1D
:10204000C3134CFED2C500C2C5000D80DCC2C70060
:02205000AF06D9
:01205200226B
:1020E200E4FD7F8E121FAFE4FCECC394077480946E
:1020F20080501E74582CF582E43400F583E0FF749E
:10210200512CF582E43400F583E0FD121FAF0C8000
:08211200D87D807F8E021FAF13
:1021DE00E4FBEBC3940774809480501E745F2BF560
:1021EE0082E43400F583E0FF12200074512BF58257
:0A21FE00E43400F583EFF00B80D805
:0122080022B3
:0823DC001220E21221DE80FB59
:10002600447265616D697820697320736F20736F00
:100036002062656175746966756C000000000000D9
:1000460000000000000000000000000000000000AA
:10005600000000000000000000000000000000009A
:10006600000000000000000000000000000000008A
:10007600000000000000000000000000000000007A
:10008600000000000000000000000000000000006A
:10009600000000000000000000000000000000005A
:1000A600000000000000000000000000000000004A
:1000B600000000000000000000000000000018081A
:1000C600C80808000000000000000000007F606013
:1000D600606060606060E06020000000000000007A
:1000E60000000000000000000000000000181818C2
:1000F60010101000000000000000000000000000CA
:100106000000000808080C0C0C00000000000000AD
:10011600000000000000000000000000006C381025
:10012600007CC6701CC67C00000000000010386C05
:1001360000780C7CCCCC76000000000000000000AB
:10014600007CC670C0C67C000000000000000000F5
:10015600006C967CD0D66C00000000000000000009
:10016600007CC60606C67C00000000000000386C55
:10017600C6C6FEC6C66C38000000000000000000BF
:100186001038286C44C6C6000000000000000000BD
:10019600007CC606FEC67C000000000000000000D1
:1001A60000DC666666F60606663C000000006C38F3
:1001B600F80C7EC6C6C67C000000000000000E1BC0
:1001C60018181818181818D8700000000000000039
:1001D600FE860C180C0606C67C0000000076DC00C5
:1001E60000780C7CCCCC7600000000000076DC00A9
:1001F600007CC60606C67C00000000000076DC0017
:1002060000DC66666666660000000000000000000E
:100216000076999F98996F0000000000000000008A
:100226000000000000000C060600000000000000B0
:1002360000000000003C66663C0000000000000074
:100246000000000000000000000000000000183C54
:100256003C3C1818001818000000000000C6C6C66E
:1002660044000000000000000000000000006C6C6C
:10027600FE6C6C6CFE6C6C000000000018187CC6EE
:10028600C2C07C0686C67C1818000000000000006C
:10029600C3C60C183063C300000000000000386CB1
:1002A6006C3876DCCCCC76000000000000303030B4
:1002B6006000000000000000000000000000183090
:1002C6006060606060301800000000000000180CDC
:1002D60006060606060C18000000000000000000D6
:1002E6006C38FE386C0000000000000000000018AA
:1002F60018187E1818180000000000000000000002
:10030600000000001818183000000000000000006F
:100316000000FE00000000000000000000000000D9
:10032600000000000018180000000000000002068F
:100336000C183060C08000000000000000007CC681
:10034600CEDEF6E6C6C67C000000000000001838C7
:100356007818181818187E000000000000007CC6E7
:10036600060C183060C6FE000000000000007CC6C7
:1003760006063C0606C67C000000000000000C1CB9
:100386003C6CCCFE0C0C1E00000000000000FEC001
:10039600C0C0FC0606C67C000000000000003860F5
:1003A600C0C0FCC6C6C67C00000000000000FEC639
:1003B600060C1830303030000000000000007CC60B
:1003C600C6C67CC6C6C67C000000000000007CC60F
:1003D600C6C67E06060C7800000000000000001865
:1003E60018000000181800000000000000000018A7
:1003F6001800000018183000000000000000060C6D
:1004060018306030180C06000000000000000000E4
:10041600007E00007E00000000000000000060304A
:10042600180C060C183060000000000000007CC6A6
:10043600C60C1818001818000000000000007CC642
:10044600C6DEDEDEDCC07C000000000000001038E6
:100456006CC6C6FEC6C6C600000000000000FC66EC
:1004660066667C666666FC000000000000003C666E
:10047600C2C0C0C0C2663C00000000000000F86CAC
:1004860066666666666CF800000000000000FE66A0
:10049600626878686266FE00000000000000FE6682
:1004A600626878686060F0000000000000003C664A
:1004B600C2C0C0DEC6663A00000000000000C6C624
:1004C600C6C6FEC6C6C6C6000000000000003C1830
:1004D6001818181818183C000000000000001E0C20
:1004E6000C0C0C0CCCCC7800000000000000E6667A
:1004F6006C6C786C6C66E600000000000000F06032
:10050600606060606266FE00000000000000C6EEEB
:10051600FED6C6C6C6C6C600000000000000C6E677
:10052600F6FEDECEC6C6C600000000000000386C2F
:10053600C6C6C6C6C66C3800000000000000FC66D1
:1005460066667C606060F0000000000000007CC60B
:10055600C6C6D6DE7C0C0E00000000000000FC665D
:1005660066667C6C6666E6000000000000007CC6DD
:10057600C660380CC6C67C000000000000007E5A2B
:100586001818181818183C00000000000000C6C60D
:10059600C6C6C6C6C6C67C00000000000000C6C6A9
:1005A600C6C6C6C66C381000000000000000C6C6ED
:1005B600C6C6C6D6FEEEC600000000000000C6C6CF
:1005C600C66C386CC6C6C600000000000000C6C671
:1005D600C66C383838387C00000000000000FEC6C3
:1005E6008C183060C2C6FE000000000000003C30DF
:1005F6003030303030303C0000000000000080C059
:10060600E070381C0E0602000000000000003C0CE2
:100616000C0C0C0C0C0C3C000000000010386CC6D6
:1006260000000000000000000000000000000000C4
:100636000000000000000000FE000000003030183E
:1006460000000000000000000000000000000000A4
:1006560000780C7CCCCC7600000000000000E06046
:1006660060786C666666DC00000000000000000032
:10067600007CC6C0C0C67C000000000000001C0C48
:100686000C3C6CCCCCCC76000000000000000000D6
:10069600007CC6FEC0C67C000000000000001C36C0
:1006A60032307C303030780000000000000000005E
:1006B6000076CCCCCC7C0CCC780000000000E0604E
:1006C600606C76666666E60000000000000018189A
:1006D6000038181818183C00000000000000060634
:1006E600000E0606060666663C0000000000E06096
:1006F60060666C786C66E600000000000000381842
:100706001818181818183C00000000000000000017
:100716000044FED6D6D6D600000000000000000039
:1007260000DC6666666666000000000000000000E9
:10073600007CC6C6C6C67C000000000000000000A3
:1007460000DC6666667C6060F00000000000000069
:100756000076CCCCCC7C0C0C1E0000000000000007
:1007660000DC76666060F00000000000000000001B
:10077600007CC6701CC67C00000000000000103023
:1007860030FC303030361C00000000000000000055
:1007960000CCCCCCCCCC76000000000000000000E1
:1007A60000C6C6C66C38100000000000000000003D
:1007B60000C6C6C6D6FE6C000000000000000000A1
:1007C60000C66C38386CC60000000000000000004F
:1007D60000C6C6C6C67E060C7800000000000000F3
:1007E60000FECC183066FE000000000000000E1867
:1007F6001818701818180E000000000000001818CD
:1008060018180018181818000000000000007018CA
:1008160018180E181818700000000000000076DC8A
:1008260000000000000000000000000000000000C2
:1008360000000000000000000000000000000000B2
:1008460000000000000000000000000000000000A2
:100856000000000000000000000000000000000092
:10111600000000F000000000000000000FF00000DA
:101126000000000000003FF8000000000000000082
:101136003FF800000000000000003FF8000000003B
:10114600000000007FFC00000000000000007FFCA3
:1011560000000000000000007FFC0000000000000E
:101166000000FFFC0000000000000000FFFE000081
:10117600000000000000FFFE00000000000000016B
:10118600FBFE0000000000000001F3FF000000006D
:1011960000000001F3FF0000000000000003F1FF63
:1011A6000000000000000003E1FF800000000000D6
:1011B6000003E1FF8000000000000007E0FF800060
:1011C600000000000007C0FF8000000000000007CC
:1011D600C0FFC00000000000000FC07FC00000007C
:1011E6000000000F807FC00000000000000F807F1D
:1011F600E00000000000000F807FE000000000001B
:10120600001F003FE00000000000001F003FF0004C
:1012160000000000001F003FF00000000000003E3C
:10122600001FF00000000000003E001FF00000005C
:101236000000003E001FF80000000000007E000FC6
:10124600F80000000000007C000FF800000000001D
:10125600007C000FFC000000000000FC000FFC00FA
:101266000000000000F80007FC000000000000F885
:101276000007FE000000000001F80007FE00000065
:10128600000001F00003FE000000000001F0000372
:10129600FE000000000003F00003FF000000000055
:1012A60003E00001FF000000000003E00001FF0072
:1012B6000000000007E00001FF800000000007C0FA
:1012C6000001FF800000000007C00000FF80000052
:1012D600000007C00000FFC0000000000F800000F3
:1012E600FFC0000000000F8000007FC0000000006B
:1012F6000F8000007FC0000000001F8000007FE01C
:10130600000000001F0000003FE0000000001F007A
:1013160000003FE0000000003FFFFFFFFFF000007D
:1013260000003FFFFFFFFFF0000000003FFFFFFF50
:10133600FFF0000000007C0000001FF80000000025
:101346007C0000001FF8000000007C0000001FF871
:1013560000000000F80000000FF800000000F80090
:1013660000000FFC00000000F80000000FFC000069
:101376000001F80000000FFC00000001F000000072
:1013860007FE00000001F000000007FE0000000359
:10139600F000000007FE00000003E000000003FF6D
:1013A60000000003E000000003FF00000003E0006F
:1013B600000003FF00000007E000000003FF00003C
:1013C6000007C000000001FF80000007C000000009
:1013D60001FF8000000FC000000001FF8000000F29
:1013E6008000000000FFC000000F8000000000FF2A
:1013F600C000001F8000000000FFC000001F80002A
:10140600000000FFE000001F00000000007FE00079
:10141600003F00000000007FE000003F00000000E9
:10142600007FF000003F00000000007FF000007F1A
:1014360080000000007FF800007F80000000007F31
:10144600F80000FFC0000000007FFC0003FFE00082
:10145600000000FFFF007FFFFF0000003FFFFFF8D6
:101466007FFFFF0000003FFFFFF87FFFFF00000047
:101476003FFFFFF800000000000000000000000031
:101486000000000000000000000000000000000056
:101496000000000000000000000000000000000046
:1014A6000000000000000000000000000000000036
:1014B6000000000000000000000000000000000026
:1014C6000000000000000000000000000000000016
:1014D6000000000000000000000000000000000006
:1014E60000000000000000000000000000000000F6
:1014F60000000000000000000000000000000000E6
:1015060000000000000000000000000000000000D5
:1015160000000000000000000000000000000000C5
:1015260000000000000000000000000000000000B5
:0C153600000000000000000000000000A9
:10000300E4FDFCC3ED9FEC9E5015E4FBFA0BBB0033
:0F001300010AEB64FA4A70F50DBD00010C80E4A0
:0100220022BB
:102258007E08EED39400748094804015EF30E70434
:10226800D2928002C292C291D291EF25E0FF1E80E5
:01227800E184
:012279002242
:0A1FF600C290C293122258D290222A
:05231700121FF67F011A
:0E231C00E4900050F0C290D293122258D2905A
:01232A002290
:0422B900AD07AC06BB
:1022BD00E4900047F0C290D293ECFF122258AF0584
:0522CD00122258D2901E
:0122D20022E9
:0E238B00C2947F647E00120003D2940200030D
:1019C60012238B7F11121FF67F787E001200037F91
:1019D600B11223177F2C12231C7F2D12231C7FB2DA
:1019E6001223177F2C12231C7F2D12231C7FB31268
:1019F60023177F2C12231C7F2D12231C7F011223F9
:101A06001C7F2C12231C7F2D12231C7FB4121FF661
:101A16007F0712231C7FC0121FF67FA212231C7F92
:101A26000212231C7F8412231C7FC1121FF67FC55E
:101A360012231C7FC2121FF67F0A12231CE4FF1218
:101A4600231C7FC3121FF67F8A12231C7F2A1223B0
:101A56001C7FC4121FF67F8A12231C7FEE12231CE2
:101A66007FC5121FF67F0E12231C7F36121FF67FCC
:101A7600C012231C7FE0121FF67F0F12231C7F1A51
:101A860012231C7F0F12231C7F1812231C7F2F1278
:101A9600231C7F2812231C7F2012231C7F22122343
:101AA6001C7F1F12231C7F1B12231C7F2312231C47
:101AB6007F3712231CE4FF12231C7F0712231C7F8F
:101AC6000212231C7F1012231C7FE1121FF67F0FC8
:101AD60012231C7F1B12231C7F0F12231C7F17123D
:101AE600231C7F3312231C7F2C12231C7F291223D5
:101AF6001C7F2E12231C7F3012231C7F3012231CC6
:101B06007F3912231C7F3F12231CE4FF12231C7F04
:101B16000712231C7F0312231C7F1012231C7F2A0B
:101B2600121FF6E4FF12231C7F0212231CE4FF128D
:101B3600231C7F8212231C7F2B121FF6E4FF122325
:101B46001C7F0312231CE4FF12231C7F8312231C19
:101B56007FF01223177FF6121FF6E4FF12231C7F75
:0E1B66003A121FF67F0512231C7F29021FF67C
:101E8000EEF0A3EFF090004DE4F0A3749FF0A37484
:0B1E900002F07B7F7A00E4FDFCFFFE07
:101E9B00900047EEF0A3EFF090004FE0F964027072
:101EAB00028005E96401703B7F2A121FF67F021244
:101EBB00231C900047A3E02402FF12231C7F021275
:101ECB00231CEB2402FF12231C7F2B122317ED0480
:101EDB00FF12231C7F0112231C90004DA3E004FF73
:081EEB0012231C7F2C021FF6DC
:10205300900041EEF0A3EFF0900045EAF0A3EBF01F
:10206300900043ECF0A3EDF0900041E0FAA3E0FF11
:10207300AE02C006C0072401FBE43AFAA3E0FEA3C4
:10208300E02401FFE43E90004DF0A3EFF0A37402BF
:10209300F0D007D006121E9B900045E0FEA3E0FFA0
:0320A3000222B95D
:03215200900000FA
:10215500121E80E4FBEBC394A074809480501DE4B0
:10216500FAEAC3948074809480500E900000E0FEDB
:0C217500A3E0FF1222B90A80E80B80D919
:01218100223B
:10211A0090004DE4F0A37412F0A37402F07B501205
:10212A001E94E4FBEBC39412748094805019E4FA71
:10213A00EAC3945074809480500A74FFFFFE1222FE
:07214A00B90A80EC0B80DDF7
:01215100226B
:101B740090000EEEF0A3EFF0A3ECF0A3EDF0A3EBD6
:071B8400F0A3EAF0A3E9F071
:101B8B00E4A3F0A3F0900012E0FBA3E0FAA3E0F9CA
:101B9B00122302900015E0FCA3E0FDC39FEC9E40D6
:101BAB0002A10A900012E0FBA3E0FAA3E0F98D82F8
:101BBB008C83121651FFC394A174809480400A90B9
:101BCB00003FEFF0E4A3F081F8900012E0FBA3E0FC
:101BDB00FAA3E0F9A3E0FEA3E0F5828E831216517F
:101BEB00FFE4FCFDFE7B10FAF9F81216B490001B13
:101BFB00121703E4FBFA90001BA3A3E0FEA3E02B58
:101C0B00FFEE3AFE74412FF58274003EF583E493A8
:101C1B00FF741F2BF58274003AF583EFF00BBB00BA
:101C2B00010AEB64104A70CEE4900019F0A3F0E4C3
:101C3B00900017F0A3F0900017E0FEA3E0FFC39411
:101C4B0008EE64809480400281D77C007D081216D8
:101C5B007E7E007480A805088006CEA2E713CE1303
:101C6B00D8F8FF900019E0FCA3E0FD241FF5827467
:101C7B00003CF583E0FB3395E05EFEEF5B4E603C92
:101C8B00900017E0FEA3E0FF90000FE02FFB900009
:101C9B000EE03EFA900015E0FEA3E07803C333CECE
:101CAB0033CED8F92BFFEA3EFE900010E0FAA3E00A
:101CBB002DFDEC3AFC7B007AF8122053900018E0D3
:101CCB0004F07006900017E004F0814190001AE0D8
:101CDB0004F07006900019E004F0C390001AE09431
:101CEB0010900019E0648094805002813A900016A5
:0F1CFB00E004F060026190900015E004F0619049
:011D0A0022B6
:0321820090007159
:10218500121E80E4FBEBC394A074809480501DE480
:10219500FAEAC3948074809480500E900071E0FE3A
:0C21A500A3E0FF1222B90A80E80B80D9E9
:0121B100220B
:10234D007BFF7A0079267D0A7C007F0A7E00021BC6
:01235D00740B
:0F17F0001219C6D2C474FFFFFE12215202234DFC
:1021B2002552483D00546D703D003A0032300030E7
:1021C2003132333435363738390000000000000030
:0C21D20000000000000000000000000001
:101DC70078007C007D017BFF7A2179CC7E007F0241
:101DD70012161278027C007D017BFF7A2179CE7E74
:101DE700007F02121612E4900068F0900069F090EC
:101DF700006AF090006BF0900066F0121D0B122342
:101E0700A7900068E0FD75F00A842430900000F088
:101E1700ED75F00A84E5F02430A3F07BFF7A217991
:101E2700B27D327C007F0A7E00121B747B017A0030
:101E370079007D327C007F2A7E00121B7490006A35
:101E4700E0FD75F00A842430900002F0ED75F00A89
:101E570084E5F02430A3F07BFF7A2179B77D467CB7
:101E6700007F0A7E00121B747B017A0079027D468F
:091E77007C007F2A7E00021B742E
:1018000078007C007D017BFF7A2179D07E007F0209
:1018100012161278027C007D017BFF7A2179D27E3C
:10182000007F0212161278047C007D017BFF7A2172
:1018300079D47E007F0212161278067C007D017B2F
:10184000FF7A2179D67E007F0212161278087C007A
:101850007D017BFF7A2179D87E007F0212161278F3
:101860000A7C007D017BFF7A2179DA7E007F0212FB
:101870001612780C7C007D017BFF7A2179DC7E00DA
:101880007F021216121221DE122399900051E0FFFE
:10189000C4540F9021C193900000F0EF540F902199
:1018A000C193900001F07B017A0079007D057C00F6
:1018B0007F2E7E00121B74900052E0FFC4540F90E4
:1018C00021C193900002F0EF540F9021C19390003A
:1018D00003F07B017A0079027D057C007F187E0091
:1018E000121B747BFF7A2179BC7D057C007F287EEA
:1018F00000121B74900053E0FFC4540F9021C19359
:10190000900004F0EF540F9021C193900005F07BFC
:10191000017A0079047D057C007F027E00121B7431
:101920007BFF7A2179BC7D057C007F127E00121B33
:1019300074900054E0FFC4540F9021C193900006AE
:10194000F0EF540F9021C193900007F07B017A00D3
:1019500079067D147C007F437E00121B7490005535
:10196000E0FFC4540F9021C193900008F0EF540F92
:101970009021C193900009F07B017A0079087D14D1
:101980007C007F327E00121B74900057E0FFC4542D
:101990000F9021C19390000CF0EF540F9021C19350
:1019A00090000DF07B017A00790C7D147C007F1390
:1019B0007E00121B747BFF7A2179BE7D147C007F30
:0619C000027E00021B7410
:10229B00D3EF9400EE940040147D377C00ED1D705D
:0D22AB00011CED4C70F7EF1F70E61E80E384
:0122B8002203
:0423E4007FEEDFFEAB
:0123E80022D2
:0A23B40000007F037E7BDEFEDFFCED
:0123BE0022FC
:0823D3007F047E1BDEFEDFFC2F
:0123DB0022DF
:0423E9007F06DFFE8E
:0123ED0022CD
:0923BF00007F027E3CDEFEDFFC23
:0123C80022F2
:0923C900007F027E8CDEFEDFFCC9
:0123D20022E8
:0E235E0000007F037E327D04DDFEDEFCDFFA30
:01236C00224E
:0D239900007F037E707D5BDDFEDEFCDFFA61
:0123A6002214
:0C23A7007FF47E827D04DDFEDEFCDFFAA8
:0123B3002207
:0E236D0000007F0D7E2D7DD6DDFEDEFCDFFA4A
:01237B00223F
:0E237C0000007F7A7EC17D80DDFEDEFCDFFA90
:01238A002230
:0300000002176480
:0C176400787FE4F6D8FD7581070217AB12
:10154200E709F608DFFA8046E709F208DFFA803E8B
:1015520088828C83E709F0A3DFFA8032E309F60878
:10156200DFFA8078E309F208DFFA807088828C83E0
:10157200E309F0A3DFFA806489828A83E0A3F60894
:10158200DFFA805889828A83E0A3F208DFFA804C6E
:1015920080D280FA80C680D4806980F28033801045
:1015A20080A680EA809A80A880DA80E280CA8033AE
:1015B20089828A83ECFAE493A3C8C582C8CCC58326
:1015C200CCF0A3C8C582C8CCC583CCDFE9DEE780F6
:1015D2000D89828A83E493A3F608DFF9ECFAA9F075
:1015E200EDFB2289828A83ECFAE0A3C8C582C8CCCB
:1015F200C583CCF0A3C8C582C8CCC583CCDFEADEE4
:10160200E880DB89828A83E493A3F208DFF980CC45
:1016120088F0EF60010E4E60C388F0ED2402B4043E
:101622000050B9F582EB2402B4040050AF232345E5
:0616320082239015927363
:10163800BB010689828A83E0225002E722BBFE02B0
:09164800E32289828A83E49322E3
:10165100BB010CE58229F582E5833AF583E022504E
:1016610006E92582F8E622BBFE06E92582F8E22298
:0D167100E58229F582E5833AF583E49322B2
:10167E00C2D5EC30E709B2D5E4C39DFDE49CFCEE87
:10168E0030E715B2D5E4C39FFFE49EFE12170FC3D9
:10169E00E49DFDE49CFC800312170F30D507C3E4D4
:0616AE009FFFE49EFE22F6
:1016B400E88FF0A4CC8BF0A42CFCE98EF0A42CFCD5
:1016C4008AF0EDA42CFCEA8EF0A4CDA8F08BF0A453
:1016D4002DCC3825F0FDE98FF0A42CCD35F0FCEBB2
:1016E4008EF0A4FEA9F0EB8FF0A4CFC5F02ECD3977
:0F16F400FEE43CFCEAA42DCE35F0FDE43CFC22E4
:0C170300ECF0A3EDF0A3EEF0A3EFF02259
:10230200E4FFFE121638600C0FEF70010E09E9703F
:05231200F20A80EF2239
:10177000022209E493A3F8E493A34003F68001F264
:1017800008DFF48029E493A3F85407240CC8C3337A
:10179000C4540F4420C8834004F456800146F6DF49
:1017A000E4800B0102040810204080902231E47E86
:1017B000019360BCA3FF543F30E509541FFEE4933E
:1017C000A360010ECF54C025E060A840B8E493A305
:1017D000FAE493A3F8E493A3C8C582C8CAC583CA30
:1017E000F0A3C8C582C8CAC583CADFE9DEE780BEE8
:012257000086
:10170F00BC000BBE0029EF8DF084FFADF022E4CCBE
:10171F00F875F008EF2FFFEE33FEEC33FCEE9DEC87
:10172F00984005FCEE9DFE0FD5F0E9E4CEFD22EDCD
:10173F00F8F5F0EE8420D21CFEADF075F008EF2F17
:10174F00FFED33FD4007985006D5F0F222C398FD08
:05175F000FD5F0EA22A5
:00000001FF
