:042933004100A400BB
:102847009000337401F0122A3512200074FFFFFE46
:102857001229BD7E007F0A7D317B017A007934120F
:102867001D4D7B017A007934E4900044F0A3F074A5
:10287700FFA3F0A3F07D017C007F0112234C80FEB3
:0300230002288729
:0D288700C0E0C083C082C0D075D000C00783
:10289400309902C299C298AF99EF647F7011900089
:1028A400A4E004F0E0640A700BF043C76080059074
:0428B40000A4E4F0A8
:0B28B800D007D0D0D082D083D0E03217
:0C29370041009C0041009D0041009E00FA
:102A930020A4137F0A7E00122A7520A40990009CAB
:072AA3007401F030A4FD22D4
:102AD30020A50D7F0A7E00122A7520A50330A5FDCF
:012AE30022D0
:1018020090007C7408F0E4A3F0A3F0A37414F0A396
:101812007406F0A3740FF0122A9390009CE0640106
:10182200600201A630A47420A5367F0A7E00122A27
:101832007520A52C90007CE004F0E0FF3395E0FEDB
:10184200EF64194E70037408F01228FB7B017A00D2
:10185200797C7D057C007F027E001221B530A5FDDA
:1018620020CCC17F0A7E00122A7520CCB790007C62
:10187200E014F0E0FF3395E0FEBEFF06BFFF037405
:1018820008F01228FB7B017A00797C7D057C007FC1
:10189200027E001221B520CC8B80FB30A4FD90008B
:1018A2009C7402F090009CE06402707930A46D2078
:1018B200A5337F0A7E00122A7520A52990007DE0BB
:1018C20004F0E0FF3395E0FEEF643D4E7003741EBA
:1018D200F01228FB7B017A00797D7D057C007F1860
:1018E2007E001221B520CCC47F0A7E00122A752008
:1018F200CCBA90007DE014F0E0FF3395E0FEBEFF2D
:1019020005BFFF02E4F01228FB7B017A00797D7D9E
:10191200057C007F187E001221B5809030A4FD90D6
:10192200009C7403F090009CE06403707930A46D15
:1019320020A5337F0A7E00122A7520A52990007EF9
:10194200E004F0E0FF3395E0FEEF643D4E70037477
:101952001EF01228FB7B017A00797E7D057C007FD8
:101962002E7E001221B520CCC47F0A7E00122A7579
:1019720020CCBA90007EE014F0E0FF3395E0FEBE8A
:10198200FF05BFFF02E4F01228FB7B017A00797E9B
:101992007D057C007F2E7E001221B5809030A4FD53
:1019A20090009C7404F090009CE06404707A30A46F
:1019B2006E20A5337F0A7E00122A7520A529900089
:1019C2007FE004F0E0FF3395E0FEEF64644E7003C5
:1019D2007414F01228FB7B017A00797F7D147C005D
:1019E2007F327E001221B520CCC47F0A7E00122AEB
:1019F2007520CCBA90007FE014F0E0FF3395E0FE52
:101A0200BEFF06BFFF037414F01228FB7B017A00AD
:101A1200797F7D147C007F327E001221B5808F3069
:101A2200A4FD90009C7405F090009CE06405707A1F
:101A320030A46E20A5337F0A7E00122A7520A529C4
:101A4200900080E004F0E0FF3395E0FEEF640D4E7D
:101A520070037406F01228FB7B017A0079807D14F2
:101A62007C007F327E001221B520CCC47F0A7E002A
:101A7200122A7520CCBA900080E014F0E0FF339572
:101A8200E0FEBEFF06BFFF037406F01228FB7B01D7
:101A92007A0079807D147C007F327E001221B5802D
:101AA2008F30A4FD90009C7406F090009CE06406C8
:101AB200707A30A46E20A5337F0A7E00122A752028
:101AC200A529900081E004F0E0FF3395E0FEEF6489
:101AD200204E7003740FF01228FB7B017A0079818B
:101AE2007D147C007F437E001221B520CCC47F0A86
:101AF2007E00122A7520CCBA900081E014F0E0FF3B
:101B02003395E0FEBEFF06BFFF03740FF01228FB01
:101B12007B017A0079817D147C007F437E00122153
:101B2200B5808F30A4FD90009C7407F090009CE07B
:101B32006407703390007EE0900059F090007DE0E1
:101B420090005AF090007CE090005BF0900081E001
:101B520090005CF0900080E090005DF090007FE0EB
:071B620090005FF01228C3A0
:011B69002259
:102A3500438780759850438E40538EFE53890F43CC
:102A45008920758BE6758DE6C2ABD28ED2AFD2AC3E
:012A5500225E
:1027E400121C60FF642160108F99740129F9E43A86
:0927F400FA3099FDC29980E82237
:0327FD00C2A22253
:0429430041008300CC
:101F9700E490009FF090009FE0C3940874809480C1
:101FA70050549000A17402F020C00A9000A1E0FFF5
:101FB70004F0EF70F3122B94E49000A0F030C0020D
:101FC70004F09000A17402F030C00A9000A1E0FF75
:101FD70004F0EF70F39000A1E064016019900083B2
:101FE700E025E0FFF09000A0E04F900083F0900024
:061FF7009FE004F0809F52
:011FFD0022C1
:10247500E490008EF0A3F0A3F0A3F0A3F0122B22BA
:10248500C2C0122B04D2C0122B6FD2C030C002A121
:10249500307F0220C006AE070FEE70F77F0230C016
:1024A50006AE070FEE70F7121F97900083E09000BD
:1024B5008EF0121F97900083E090008FF0121F9707
:1024C500900083E0900090F0121F97900083E090B9
:1024D5000091F0121F97900083E0FF900092F0D2D8
:1024E500C0900091E0FD900090E02DFDE433FC905C
:1024F500008EE0F97A002DFDEA3CFCA3E0FE2DFDFF
:10250500EA3CFCEFB50524EAB50420900084E9F027
:10251500A3EEF0900090E0900086F0900091E0909E
:0B2525000087F0900092E0900082F030
:012530002288
:1026E900121C60900093F0900001121C79900094E4
:1026F900F0900002121C79900095F0900003121CD2
:1027090079900096F0900004121C79900097F0C21D
:10271900ACE4FFEFC3940574809480501574932F33
:10272900F582E43400F583E0F5993099FDC2990FFB
:0427390080E1D2ACBD
:01273D002279
:1029470047006080828486888A8C4700590908106E
:0E2957001408052047006781838587898B8DD2
:10280000C2C700C2C500D2C700E4FEEEC39408747C
:102810008094805011EF1392C6EFC313FFD2C5000E
:10282000C2C5000E80E5E4FEEEC394087480948077
:102830005011ED1392C6EDC313FDD2C500C2C50001
:062840000E80E5C2C70096
:01284600226F
:10273E00C2C700C2C500D2C700E4FDEDC394087441
:10274E008094805011EF1392C6EFC313FFD2C500D1
:10275E00C2C5000D80E500E4FDEDC39408748094BD
:10276E0080501AA2C6E433FFC43333335480FCEED8
:10277E00C3134CFED2C500C2C5000D80DCC2C7001B
:02278E00AF0694
:012790002226
:1028C300E4FD7F8E122800E4FCECC394077480942B
:1028D30080501E74602CF582E43400F583E0FF74AD
:1028E300592CF582E43400F583E0FD1228000C80B6
:0828F300D87D807F8E022800D1
:10299200E4FBEBC3940774809480501E74672BF59C
:1029A20082E43400F583E0FF12273E74592BF5824E
:0A29B200E43400F583EFF00B80D849
:0129BC0022F8
:082B8C001228C312299280FBFC
:10002600447265616D697820697320736F20736F00
:100036002062656175746966756C000000000000D9
:1000460000000000000000000000000000000000AA
:10005600000000000000000000000000000000009A
:10006600000000000000000000000000000000008A
:10007600000000000000000000000000000000007A
:10008600000000000000000000000000000000006A
:10009600000000000000000000000000000000005A
:1000A600000000000000000000000000000000004A
:1000B600000000000000000000000000000018081A
:1000C600C80808000000000000000000007F606013
:1000D600606060606060E06020000000000000007A
:1000E60000000000000000000000000000181818C2
:1000F60010101000000000000000000000000000CA
:100106000000000808080C0C0C00000000000000AD
:10011600000000000000000000000000006C381025
:10012600007CC6701CC67C00000000000010386C05
:1001360000780C7CCCCC76000000000000000000AB
:10014600007CC670C0C67C000000000000000000F5
:10015600006C967CD0D66C00000000000000000009
:10016600007CC60606C67C00000000000000386C55
:10017600C6C6FEC6C66C38000000000000000000BF
:100186001038286C44C6C6000000000000000000BD
:10019600007CC606FEC67C000000000000000000D1
:1001A60000DC666666F60606663C000000006C38F3
:1001B600F80C7EC6C6C67C000000000000000E1BC0
:1001C60018181818181818D8700000000000000039
:1001D600FE860C180C0606C67C0000000076DC00C5
:1001E60000780C7CCCCC7600000000000076DC00A9
:1001F600007CC60606C67C00000000000076DC0017
:1002060000DC66666666660000000000000000000E
:100216000076999F98996F0000000000000000008A
:100226000000000000000C060600000000000000B0
:1002360000000000003C66663C0000000000000074
:100246000000000000000000000000000000183C54
:100256003C3C1818001818000000000000C6C6C66E
:1002660044000000000000000000000000006C6C6C
:10027600FE6C6C6CFE6C6C000000000018187CC6EE
:10028600C2C07C0686C67C1818000000000000006C
:10029600C3C60C183063C300000000000000386CB1
:1002A6006C3876DCCCCC76000000000000303030B4
:1002B6006000000000000000000000000000183090
:1002C6006060606060301800000000000000180CDC
:1002D60006060606060C18000000000000000000D6
:1002E6006C38FE386C0000000000000000000018AA
:1002F60018187E1818180000000000000000000002
:10030600000000001818183000000000000000006F
:100316000000FE00000000000000000000000000D9
:10032600000000000018180000000000000002068F
:100336000C183060C08000000000000000007CC681
:10034600CEDEF6E6C6C67C000000000000001838C7
:100356007818181818187E000000000000007CC6E7
:10036600060C183060C6FE000000000000007CC6C7
:1003760006063C0606C67C000000000000000C1CB9
:100386003C6CCCFE0C0C1E00000000000000FEC001
:10039600C0C0FC0606C67C000000000000003860F5
:1003A600C0C0FCC6C6C67C00000000000000FEC639
:1003B600060C1830303030000000000000007CC60B
:1003C600C6C67CC6C6C67C000000000000007CC60F
:1003D600C6C67E06060C7800000000000000001865
:1003E60018000000181800000000000000000018A7
:1003F6001800000018183000000000000000060C6D
:1004060018306030180C06000000000000000000E4
:10041600007E00007E00000000000000000060304A
:10042600180C060C183060000000000000007CC6A6
:10043600C60C1818001818000000000000007CC642
:10044600C6DEDEDEDCC07C000000000000001038E6
:100456006CC6C6FEC6C6C600000000000000FC66EC
:1004660066667C666666FC000000000000003C666E
:10047600C2C0C0C0C2663C00000000000000F86CAC
:1004860066666666666CF800000000000000FE66A0
:10049600626878686266FE00000000000000FE6682
:1004A600626878686060F0000000000000003C664A
:1004B600C2C0C0DEC6663A00000000000000C6C624
:1004C600C6C6FEC6C6C6C6000000000000003C1830
:1004D6001818181818183C000000000000001E0C20
:1004E6000C0C0C0CCCCC7800000000000000E6667A
:1004F6006C6C786C6C66E600000000000000F06032
:10050600606060606266FE00000000000000C6EEEB
:10051600FED6C6C6C6C6C600000000000000C6E677
:10052600F6FEDECEC6C6C600000000000000386C2F
:10053600C6C6C6C6C66C3800000000000000FC66D1
:1005460066667C606060F0000000000000007CC60B
:10055600C6C6D6DE7C0C0E00000000000000FC665D
:1005660066667C6C6666E6000000000000007CC6DD
:10057600C660380CC6C67C000000000000007E5A2B
:100586001818181818183C00000000000000C6C60D
:10059600C6C6C6C6C6C67C00000000000000C6C6A9
:1005A600C6C6C6C66C381000000000000000C6C6ED
:1005B600C6C6C6D6FEEEC600000000000000C6C6CF
:1005C600C66C386CC6C6C600000000000000C6C671
:1005D600C66C383838387C00000000000000FEC6C3
:1005E6008C183060C2C6FE000000000000003C30DF
:1005F6003030303030303C0000000000000080C059
:10060600E070381C0E0602000000000000003C0CE2
:100616000C0C0C0C0C0C3C000000000010386CC6D6
:1006260000000000000000000000000000000000C4
:100636000000000000000000FE000000003030183E
:1006460000000000000000000000000000000000A4
:1006560000780C7CCCCC7600000000000000E06046
:1006660060786C666666DC00000000000000000032
:10067600007CC6C0C0C67C000000000000001C0C48
:100686000C3C6CCCCCCC76000000000000000000D6
:10069600007CC6FEC0C67C000000000000001C36C0
:1006A60032307C303030780000000000000000005E
:1006B6000076CCCCCC7C0CCC780000000000E0604E
:1006C600606C76666666E60000000000000018189A
:1006D6000038181818183C00000000000000060634
:1006E600000E0606060666663C0000000000E06096
:1006F60060666C786C66E600000000000000381842
:100706001818181818183C00000000000000000017
:100716000044FED6D6D6D600000000000000000039
:1007260000DC6666666666000000000000000000E9
:10073600007CC6C6C6C67C000000000000000000A3
:1007460000DC6666667C6060F00000000000000069
:100756000076CCCCCC7C0C0C1E0000000000000007
:1007660000DC76666060F00000000000000000001B
:10077600007CC6701CC67C00000000000000103023
:1007860030FC303030361C00000000000000000055
:1007960000CCCCCCCCCC76000000000000000000E1
:1007A60000C6C6C66C38100000000000000000003D
:1007B60000C6C6C6D6FE6C000000000000000000A1
:1007C60000C66C38386CC60000000000000000004F
:1007D60000C6C6C6C67E060C7800000000000000F3
:1007E60000FECC183066FE000000000000000E1867
:1007F6001818701818180E000000000000001818CD
:1008060018180018181818000000000000007018CA
:1008160018180E181818700000000000000076DC8A
:1008260000000000000000000000000000000000C2
:1008360000000000000000000000000000000000B2
:1008460000000000000000000000000000000000A2
:100856000000000000000000000000000000000092
:10111600000000F000000000000000000FF00000DA
:101126000000000000003FF8000000000000000082
:101136003FF800000000000000003FF8000000003B
:10114600000000007FFC00000000000000007FFCA3
:1011560000000000000000007FFC0000000000000E
:101166000000FFFC0000000000000000FFFE000081
:10117600000000000000FFFE00000000000000016B
:10118600FBFE0000000000000001F3FF000000006D
:1011960000000001F3FF0000000000000003F1FF63
:1011A6000000000000000003E1FF800000000000D6
:1011B6000003E1FF8000000000000007E0FF800060
:1011C600000000000007C0FF8000000000000007CC
:1011D600C0FFC00000000000000FC07FC00000007C
:1011E6000000000F807FC00000000000000F807F1D
:1011F600E00000000000000F807FE000000000001B
:10120600001F003FE00000000000001F003FF0004C
:1012160000000000001F003FF00000000000003E3C
:10122600001FF00000000000003E001FF00000005C
:101236000000003E001FF80000000000007E000FC6
:10124600F80000000000007C000FF800000000001D
:10125600007C000FFC000000000000FC000FFC00FA
:101266000000000000F80007FC000000000000F885
:101276000007FE000000000001F80007FE00000065
:10128600000001F00003FE000000000001F0000372
:10129600FE000000000003F00003FF000000000055
:1012A60003E00001FF000000000003E00001FF0072
:1012B6000000000007E00001FF800000000007C0FA
:1012C6000001FF800000000007C00000FF80000052
:1012D600000007C00000FFC0000000000F800000F3
:1012E600FFC0000000000F8000007FC0000000006B
:1012F6000F8000007FC0000000001F8000007FE01C
:10130600000000001F0000003FE0000000001F007A
:1013160000003FE0000000003FFFFFFFFFF000007D
:1013260000003FFFFFFFFFF0000000003FFFFFFF50
:10133600FFF0000000007C0000001FF80000000025
:101346007C0000001FF8000000007C0000001FF871
:1013560000000000F80000000FF800000000F80090
:1013660000000FFC00000000F80000000FFC000069
:101376000001F80000000FFC00000001F000000072
:1013860007FE00000001F000000007FE0000000359
:10139600F000000007FE00000003E000000003FF6D
:1013A60000000003E000000003FF00000003E0006F
:1013B600000003FF00000007E000000003FF00003C
:1013C6000007C000000001FF80000007C000000009
:1013D60001FF8000000FC000000001FF8000000F29
:1013E6008000000000FFC000000F8000000000FF2A
:1013F600C000001F8000000000FFC000001F80002A
:10140600000000FFE000001F00000000007FE00079
:10141600003F00000000007FE000003F00000000E9
:10142600007FF000003F00000000007FF000007F1A
:1014360080000000007FF800007F80000000007F31
:10144600F80000FFC0000000007FFC0003FFE00082
:10145600000000FFFF007FFFFF0000003FFFFFF8D6
:101466007FFFFF0000003FFFFFF87FFFFF00000047
:101476003FFFFFF800000000000000000000000031
:101486000000000000000000000000000000000056
:101496000000000000000000000000000000000046
:1014A6000000000000000000000000000000000036
:1014B6000000000000000000000000000000000026
:1014C6000000000000000000000000000000000016
:1014D6000000000000000000000000000000000006
:1014E60000000000000000000000000000000000F6
:1014F60000000000000000000000000000000000E6
:1015060000000000000000000000000000000000D5
:1015160000000000000000000000000000000000C5
:1015260000000000000000000000000000000000B5
:1015360000000000000000000000000000000000A5
:1015460000000000000000000F00188030C060603E
:1015560060606020C030C030C030C030C030C030A5
:10156600C030C030C030C03060206060606030C0C5
:1015760018800F00000000000000000000000000BE
:101586000000000000000000020006007E000600C9
:101596000600060006000600060006000600060015
:1015A6000600060006000600060006000600060005
:1015B6000F007FE0000000000000000000000000B7
:1015C60000000000000000001F8020E04060803026
:1015D6008030C030C03000300060006000C0018044
:1015E600030006000C000800101020104010803088
:1015F600FFE0FFE000000000000000000000000027
:1016060000000000000000001F006180C0C0C06034
:10161600C060C0600060006000C001800F0001C0B3
:101626000060002000300030C030C030C020C060F4
:1016360060C01F0000000000000000000000000065
:10164600000000000000000001800180038003808C
:1016560005800580098011801180218021804180CC
:10166600C18081800180FFF00180018001800180BE
:1016760001800FF0000000000000000000000000E4
:1016860000000000000000003FF03FF04000400076
:1016960040004000400040004F8050C06060402045
:1016A6000030003000300030C030C03080608060D4
:1016B60060C01F00000000000000000000000000E5
:1016C6000000000000000000078018603060206005
:1016D600600040004000C000CF80D8C0E060E0203D
:1016E600C030C030C030C030C030603060203060A4
:1016F60038C00F800000000000000000000000005D
:1017060000000000000000007FF07FF04020C04095
:10171600804080800080010001000100020002007C
:1017260004000400040004000C000C000C000C0073
:101736000C000C000000000000000000000000008B
:1017460000000000000000001F8030C06060C03054
:10175600C030C030E030E02078603C801F0063C0BD
:10176600C1E0C0E080708030803080308030C06062
:1017760060C01F0000000000000000000000000024
:1017860000000000000000001F006080C040C06034
:10179600802080308030803080308030C070C0B093
:1017A60061B03E300030006000600040C0C0C180C3
:1017B600C3003E0000000000000000000000000022
:1017C6000000000000000000000000000000000013
:1017D6000000000000000000000000000000000003
:1017E6000000000000000000000000006000F000A3
:0C17F600F0006000000000000000000097
:10000300E4FDFCC3ED9FEC9E5015E4FBFA0BBB0033
:0F001300010AEB64FA4A70F50DBD00010C80E4A0
:0100220022BB
:102A13007E08EED39400748094804015EF30E70471
:102A2300D2928002C292C291D291EF25E0FF1E8022
:012A3300E1C1
:012A3400227F
:0A2B6500C290C293122A13D29022EC
:052ABF00122B657F01F0
:0E2AC400E4900058F0C290D293122A13D290E0
:012AD20022E1
:052A5600E0FEA3E0FF1B
:042A5B00AD07AC0611
:102A5F00E490004FF0C290D293ECFF122A13AF050F
:052A6F00122A13D290B1
:012A7400223F
:0E2B3100C2947F647E00120003D2940200035F
:10200000C2C4122B22D2C4122B317F11122B657F36
:10201000787E001200037FB1122ABF7F2C122AC4DF
:102020007F2D122AC47FB2122ABF7F2C122AC47FAE
:102030002D122AC47FB3122ABF7F2C122AC47F2DEF
:10204000122AC47F01122AC47F2C122AC47F2D12A7
:102050002AC47FB4122B657F07122AC47FC0122BBB
:10206000657FA2122AC47F02122AC47F84122AC466
:102070007FC1122B657FC5122AC47FC2122B657FD8
:102080000A122AC4E4FF122AC47FC3122B657F8A76
:10209000122AC47F2A122AC47FC4122B657F8A1297
:1020A0002AC47FEE122AC47FC5122B657F0E122A26
:1020B000C47F36122B657FC0122AC47FE0122B65C5
:1020C0007F0F122AC47F1A122AC47F0F122AC47FDC
:1020D00018122AC47F2F122AC47F28122AC47F20F4
:1020E000122AC47F22122AC47F1F122AC47F1B1205
:1020F0002AC47F23122AC47F37122AC4E4FF122A7B
:10210000C47F07122AC47F02122AC47F10122AC475
:102110007FE1122B657F0F122AC47F1B122AC47F16
:102120000F122AC47F17122AC47F33122AC47F2CAD
:10213000122AC47F29122AC47F2E122AC47F301289
:102140002AC47F30122AC47F39122AC47F3F122A40
:10215000C4E4FF122AC47F07122AC47F03122AC4D0
:102160007F10122AC47F2A122B65E4FF122AC47F33
:1021700002122AC4E4FF122AC47F82122AC47F2BCF
:10218000122B65E4FF122AC47F03122AC4E4FF1253
:102190002AC47F83122AC47FF0122ABF7FF6122B33
:1021A00065E4FF122AC47F3A122B657F05122AC408
:0521B0007F29022B65F0
:10267600EEF0A3EFF0900055E4F0A3749FF0A3747E
:0B26860002F07B7F7A00E4FDFCFFFE09
:1026910090004FEEF0A3EFF0900057E0F964027064
:1026A100028005E96401703B7F2A122B657F0212CB
:1026B1002AC490004FA3E02402FF122AC47F021211
:1026C1002AC4EB2402FF122AC47F2B122ABFED0475
:1026D100FF122AC47F01122AC4900055A3E004FF0F
:0826E100122AC47F2C022B65B4
:10279100900088EEF0A3EFF090008CEAF0A3EBF04C
:1027A10090008AECF0A3EDF0900088E0FAA3E0FF3E
:1027B100AE02C006C0072401FBE43AFAA3E0FEA37F
:1027C100E02401FFE43E900055F0A3EFF0A3740272
:1027D100F0D007D00612269190008CE0FEA3E0FF16
:0327E100022A5B6E
:0329BD0090003E49
:1029C000122676E4FBEBC394A0748094805018E444
:1029D000FAEAC3948074809480500990003E122AD1
:0729E000560A80ED0B80DEBA
:0129E70022CD
:1028FB00900055E4F0A37412F0A37402F07B501215
:10290B00268AE4FBEBC39412748094805019E4FA8A
:10291B00EAC3945074809480500A74FFFFFE122A0D
:07292B005B0A80EC0B80DD6C
:012932002282
:1021B500900000EEF0A3EFF0A3ECF0A3EDF0A3EB9D
:0721C500F0A3EAF0A3E9F02A
:1021CC00E4A3F0A3F0900004E0FBA3E0FAA3E0F991
:1021DC00122AAA900007E0FCA3E0FDC39FEC9E40EE
:1021EC0002614B900004E0FBA3E0FAA3E0F98D82BE
:1021FC008C83121C79FFC394A174809480400A9044
:10220C000031EFF0E4A3F06139900004E0FBA3E0AF
:10221C00FAA3E0F9A3E0FEA3E0F5828E83121C7909
:10222C00FFE4FCFDFE7B10FAF9F8121CF290000D95
:10223C00121D41E4FBFA90000DA3A3E0FEA3E02BDA
:10224C00FFEE3AFE74412FF58274003EF583E49361
:10225C00FF74112BF58274003AF583EFF00BBB0081
:10226C00010AEB64104A70CEE490000BF0A3F0E48A
:10227C00900009F0A3F0900009E0FEA3E0FFC394E6
:10228C0008EE64809480400261187C007D08121C6A
:10229C00A67E007480A805088006CEA2E713CE1394
:1022AC00D8F8FF90000BE0FCA3E0FD2411F582743C
:1022BC00003CF583E0FB3395E05EFEEF5B4E603C4B
:1022CC00900009E0FEA3E0FF900001E02FFB9000DE
:1022DC0000E03EFA900007E0FEA3E07803C333CEA3
:1022EC0033CED8F92BFFEA3EFE900002E0FAA3E0D1
:1022FC002DFDEC3AFC7B007AF812279190000AE055
:10230C0004F07006900009E004F0418290000CE0AB
:10231C0004F0700690000BE004F0C390000CE09405
:10232C001090000BE0648094805002417B90000878
:0F233C00E004F0600221D1900007E004F021D10D
:01234B00226F
:10234C0090003EEFF0A3ECF0A3EDF0A3EBF0A3EACA
:04235C00F0A3E9F011
:10236000E4900048F0900041E0FBA3E0FAA3E0F91C
:08237000121C60FF7002817471
:102378003395E0FE90004BF0A3EFF0642E4E700A08
:1023880090004BF0A3740AF0800E90004CE024D02B
:10239800F090004BE034FFF0900048E075F00FA497
:1023A800FDACF090003EE0FB7A002DFFEA3CFEC059
:1023B80006C007ED2BFFEA3CCF240FFBE43FFAA34E
:1023C800E0FCA3E0FD241FFEE43C900055F0A3CE02
:1023D800F0A37401F0D007D006122691E4900049CA
:1023E800F0A3F0900049E0FCA3E0FDC39440EC9416
:1023F800005067A3E0FEA3E07806C333CE33CED8FF
:10240800F92DFFEC3EFE74422FF58274153EF583DC
:10241800E49390004EF0E490004DF090004DE0C33E
:102428009408748094805022A3E0548064807005DE
:102438009000448003900046122A5690004EE025F2
:10244800E0F090004DE004F080D190004AE004F004
:102458007091900049E004F08089900048E004F011
:0A246800900042E475F001121CDC44
:022472006165A2
:012474002245
:0329E8009000A2BA
:1029EB00122676E4FBEBC394A0748094805018E419
:1029FB00FAEAC394807480948050099000A2122A42
:072A0B00560A80ED0B80DE8E
:012A120022A1
:102AE4007BFF7A0079267D0A7C007F0A7E00022122
:012AF400B52C
:0F2AF500122000D2C474FFFFFE1229BD022AE492
:102966002552483D00546D703D003A00323000302B
:102976003132333435363738390000000000000074
:0C29860000000000000000000000000045
:1025310078987C007D017BFF7A2979807E007F027B
:10254100121C3A789A7C007D017BFF7A2979827E80
:10255100007F02121C3AE4900084F0900085F09014
:102561000086F0900087F0900082F0122475122B03
:102571004D900084E0FD75F00A842430900098F0BD
:10258100ED75F00A84E5F02430A3F07BFF7A297918
:10259100667D327C007F0A7E001221B57B017A00C4
:1025A10079987D327C007F2A7E001221B5900086C9
:1025B100E0FD75F00A84243090009AF0ED75F00A80
:1025C10084E5F02430A3F07BFF7A29796B7D467C8A
:1025D100007F0A7E001221B57B017A00799A7D463F
:0925E1007C007F2A7E000221B576
:101DCE00786E7C007D017BFF7A2979847E007F020C
:101DDE00121C3A78707C007D017BFF7A2979867E11
:101DEE00007F02121C3A78727C007D017BFF7A29FB
:101DFE0079887E007F02121C3A78747C007D017B0C
:101E0E00FF7A29798A7E007F02121C3A78767C004E
:101E1E007D017BFF7A29798C7E007F02121C3A7835
:101E2E00787C007D017BFF7A29798E7E007F0212FD
:101E3E001C3A787A7C007D017BFF7A2979907E00AE
:101E4E007F02121C3A122B4D122992122B3F900038
:101E5E0059E0FFC4540F9029759390006EF0EF5423
:101E6E000F9029759390006FF07B017A00796E7D4B
:101E7E00057C007F2E7E001221B590005AE0FFC433
:101E8E00540F90297593900070F0EF540F902975B0
:101E9E0093900071F07B017A0079707D057C007F54
:101EAE00187E001221B57BFF7A2979707D057C00A2
:101EBE007F287E001221B590005BE0FFC4540F9086
:101ECE00297593900072F0EF540F9029759390003E
:101EDE0073F07B017A0079727D057C007F027E00B3
:101EEE001221B57BFF7A2979707D057C007F127EE9
:101EFE00001221B590005CE0FFC4540F9029759339
:101F0E00900074F0EF540F90297593900075F07B4C
:101F1E00017A0079747D147C007F437E001221B516
:101F2E0090005DE0FFC4540F90297593900076F0F9
:101F3E00EF540F90297593900077F07B017A00791A
:101F4E00767D147C007F327E001221B590005FE01A
:101F5E00FFC4540F9029759390007AF0EF540F90B0
:101F6E0029759390007BF07B017A00797A7D147C41
:101F7E00007F137E001221B57BFF7A2979727D14C2
:091F8E007C007F027E000221B5F7
:102A7500D3EF9400EE940040147D377C00ED1D707B
:0D2A8500011CED4C70F7EF1F70E61E80E3A2
:012A92002221
:042B94007FEEDFFEF3
:012B9800221A
:0A2B5A0000007F037E7BDEFEDFFC3F
:012B6400224E
:082B83007F047E1BDEFEDFFC77
:012B8B002227
:042B99007F06DFFED6
:012B9D002215
:092B6F00007F027E3CDEFEDFFC6B
:012B7800223A
:092B7900007F027E8CDEFEDFFC11
:012B82002230
:0E2B040000007F037E327D04DDFEDEFCDFFA82
:012B120022A0
:0D2B3F00007F037E707D5BDDFEDEFCDFFAB3
:012B4C002266
:0C2B4D007FF47E827D04DDFEDEFCDFFAFA
:012B59002259
:0E2B130000007F0D7E2D7DD6DDFEDEFCDFFA9C
:012B21002291
:0E2B220000007F7A7EC17D80DDFEDEFCDFFAE2
:012B30002282
:030000000225EAEC
:0C25EA00787FE4F6D8FD758107022631E9
:101B6A00E709F608DFFA8046E709F208DFFA803E5D
:101B7A0088828C83E709F0A3DFFA8032E309F6084A
:101B8A00DFFA8078E309F208DFFA807088828C83B2
:101B9A00E309F0A3DFFA806489828A83E0A3F60866
:101BAA00DFFA805889828A83E0A3F208DFFA804C40
:101BBA0080D280FA80C680D4806980F28033801017
:101BCA0080A680EA809A80A880DA80E280CA803380
:101BDA0089828A83ECFAE493A3C8C582C8CCC583F8
:101BEA00CCF0A3C8C582C8CCC583CCDFE9DEE780C8
:101BFA000D89828A83E493A3F608DFF9ECFAA9F047
:101C0A00EDFB2289828A83ECFAE0A3C8C582C8CC9C
:101C1A00C583CCF0A3C8C582C8CCC583CCDFEADEB5
:101C2A00E880DB89828A83E493A3F208DFF980CC17
:101C3A0088F0EF60010E4E60C388F0ED2402B40410
:101C4A000050B9F582EB2402B4040050AF232345B7
:061C5A008223901BBA7307
:101C6000BB010689828A83E0225002E722BBFE0282
:091C7000E32289828A83E49322B5
:101C7900BB010CE58229F582E5833AF583E0225020
:101C890006E92582F8E622BBFE06E92582F8E2226A
:0D1C9900E58229F582E5833AF583E4932284
:101CA600C2D5EC30E709B2D5E4C39DFDE49CFCEE59
:101CB60030E715B2D5E4C39FFFE49EFE121D79C33B
:101CC600E49DFDE49CFC8003121D7930D507C3E436
:061CD6009FFFE49EFE22C8
:101CDC00C5F0F8A3E028F0C5F0F8E5821582700293
:061CEC001583E038F02230
:101CF200E88FF0A4CC8BF0A42CFCE98EF0A42CFC91
:101D02008AF0EDA42CFCEA8EF0A4CDA8F08BF0A40E
:101D12002DCC3825F0FDE98FF0A42CCD35F0FCEB6D
:101D22008EF0A4FEA9F0EB8FF0A4CFC5F02ECD3932
:0F1D3200FEE43CFCEAA42DCE35F0FDE43CFC229F
:0C1D4100ECF0A3EDF0A3EEF0A3EFF02215
:102AAA00E4FFFE121C60600C0FEF70010E09E97062
:052ABA00F20A80EF228A
:101D4D00EF4E6012EF60010EEDBB010B89828A83AD
:101D5D00F0A3DFFCDEFA2289F05007F709DFFCA9BA
:0C1D6D00F022BBFEFCF309DFFCA9F02211
:1025F600022847E493A3F8E493A34003F68001F28C
:1026060008DFF48029E493A3F85407240CC8C333E5
:10261600C4540F4420C8834004F456800146F6DFB4
:10262600E4800B0102040810204080902933E47EE8
:10263600019360BCA3FF543F30E509541FFEE493A9
:10264600A360010ECF54C025E060A840B8E493A370
:10265600FAE493A3F8E493A3C8C582C8CAC583CA9B
:10266600F0A3C8C582C8CAC583CADFE9DEE780BE53
:012965000071
:101D7900BC000BBE0029EF8DF084FFADF022E4CC4E
:101D8900F875F008EF2FFFEE33FEEC33FCEE9DEC17
:101D9900984005FCEE9DFE0FD5F0E9E4CEFD22ED5D
:101DA900F8F5F0EE8420D21CFEADF075F008EF2FA7
:101DB900FFED33FD4007985006D5F0F222C398FD98
:051DC9000FD5F0EA2235
:00000001FF
