:04196C0041006700CF
:101A0A001219B1C2C4121AE8D2C412104274FFFFEA
:091A1A00FE1218E112183C80FBD9
:03002300021800C0
:0D180000C0E0C083C082C0D075D000C0071A
:10180D00309902C299C298AF99EF647F7011900020
:10181D0067E004F0E0640A700BF043C76080059048
:04182D000067E4F07C
:0B183100D007D0D0D082D083D0E032AE
:101A7B0020A50D7F0A7E001219D220A50330A5FDEB
:011A8B002238
:101A8C0020A40D7F0A7E001219D220A40330A4FDDD
:011A9C002227
:101A3C0020CC127F0A7E001219D220CC0643C7207C
:061A4C00021B31D2A222B0
:1019B100438780759850438E40538EFE53890F4361
:1019C1008920758BE6758DE6C2ABD28ED2AFD2ACD3
:0119D10022F3
:101A2300121387FF642160108F99740129F9E43A36
:091A3300FA3099FDC29980E82205
:031B3100C2A2222B
:10165700E490004CF090004CE0C3940874809480B0
:10166700505490004E7402F020C00A90004EE0FFE4
:1016770004F0EF70F3121B27E490004DF030C00226
:1016870004F090004E7402F030C00A90004EE0FF64
:1016970004F0EF70F390004EE0640160199000557C
:1016A700E025E0FFF090004DE04F900055F09000EE
:0616B7004CE004F0809FEE
:0116BD00220A
:1014B300C2C0121ABDD2C0121B0AD2C030C002A1D0
:1014C300577F0220C006AE070FEE70F77F0230C0D1
:1014D30006AE070FEE70F7121657900055E0900016
:1014E30048F0121657900055E0900049F012165735
:1014F300900055E090004AF0121657900055E09086
:10150300004BF0121657900055E0FFD2C090004BED
:10151300E0FD90004AE02DFDE433FC900048E0F943
:101523007A002DFDEA3CFCA3E0FE2DFDEA3CFCEF36
:10153300B50521EAB5041D900056E9F0A3EEF0903D
:10154300004AE090005DF090004BE090005EF09068
:041553000054EFF061
:011557002271
:1016BE00121387900048F09000011213A090004979
:1016CE00F09000021213A090004AF0900003121343
:1016DE00A090004BF09000041213A090004CF0C2AA
:1016EE00ACE4FFEFC3940574809480501574482FBA
:1016FE00F582E43400F583E0F5993099FDC2990F37
:04170E0080E1D2ACF8
:0117120022B4
:10183C00121AE81214B3121B1E900056E0900058B6
:10184C00F0900057E0900059F090005DE090005A45
:10185C00F090005EE090005BF0900054E090005C33
:0A186C00F07B017A0079580216BEE5
:1019700047003A80828486888A8C470033000008BA
:0E1980000101012047004181838587898B8DFD
:1017B900C2C700C2C500D2C700E4FEEEC3940874D4
:1017C9008094805011EF1392C6EFC313FFD2C50066
:1017D900C2C5000E80E5E4FEEEC3940874809480CF
:1017E9005011ED1392C6EDC313FDD2C500C2C50059
:0617F9000E80E5C2C700EE
:0117FF0022C7
:10171300C2C700C2C500D2C700E4FDEDC39408747C
:101723008094805011EF1392C6EFC313FFD2C5000C
:10173300C2C5000D80E500E4FDEDC39408748094F8
:1017430080501AA2C6E433FFC43333335480FCEE13
:10175300C3134CFED2C500C2C5000D80DCC2C70056
:02176300AF06CF
:011765002261
:10187600E4FD7F8E1217B9E4FCECC39407748094E0
:1018860080501E743A2CF582E43400F583E0FF7430
:10189600332CF582E43400F583E0FD1217B90C8091
:0818A600D87D807F8E0217B986
:10194100E4FBEBC3940774809480501E74412BF523
:1019510082E43400F583E0FF12171374332BF58210
:0A196100E43400F583EFF00B80D8AA
:01196B002259
:1018AE00121876121AE8121941C2ACE4FFEFC39473
:1018BE000774809480501574332FF582E43400F54C
:1018CE0083E0F5993099FDC2990F80E1D2AC121ADE
:0318DE00E880D0CF
:10002600447265616D697820697320736F20736F00
:100036002062656175746966756C000000000000D9
:1000460000000000000000000000000000000000AA
:10005600000000000000000000000000000000009A
:10006600000000000000000000000000000000008A
:10007600000000000000000000000000000000007A
:10008600000000000000000000000000000000006A
:10009600000000000000000000000000000000005A
:1000A600000000000000000000000000000000004A
:1000B600000000000000000000000000000018081A
:1000C600C80808000000000000000000007F606013
:1000D600606060606060E06020000000000000007A
:1000E60000000000000000000000000000181818C2
:1000F60010101000000000000000000000000000CA
:100106000000000808080C0C0C00000000000000AD
:10011600000000000000000000000000006C381025
:10012600007CC6701CC67C00000000000010386C05
:1001360000780C7CCCCC76000000000000000000AB
:10014600007CC670C0C67C000000000000000000F5
:10015600006C967CD0D66C00000000000000000009
:10016600007CC60606C67C00000000000000386C55
:10017600C6C6FEC6C66C38000000000000000000BF
:100186001038286C44C6C6000000000000000000BD
:10019600007CC606FEC67C000000000000000000D1
:1001A60000DC666666F60606663C000000006C38F3
:1001B600F80C7EC6C6C67C000000000000000E1BC0
:1001C60018181818181818D8700000000000000039
:1001D600FE860C180C0606C67C0000000076DC00C5
:1001E60000780C7CCCCC7600000000000076DC00A9
:1001F600007CC60606C67C00000000000076DC0017
:1002060000DC66666666660000000000000000000E
:100216000076999F98996F0000000000000000008A
:100226000000000000000C060600000000000000B0
:1002360000000000003C66663C0000000000000074
:100246000000000000000000000000000000183C54
:100256003C3C1818001818000000000000C6C6C66E
:1002660044000000000000000000000000006C6C6C
:10027600FE6C6C6CFE6C6C000000000018187CC6EE
:10028600C2C07C0686C67C1818000000000000006C
:10029600C3C60C183063C300000000000000386CB1
:1002A6006C3876DCCCCC76000000000000303030B4
:1002B6006000000000000000000000000000183090
:1002C6006060606060301800000000000000180CDC
:1002D60006060606060C18000000000000000000D6
:1002E6006C38FE386C0000000000000000000018AA
:1002F60018187E1818180000000000000000000002
:10030600000000001818183000000000000000006F
:100316000000FE00000000000000000000000000D9
:10032600000000000018180000000000000002068F
:100336000C183060C08000000000000000007CC681
:10034600CEDEF6E6C6C67C000000000000001838C7
:100356007818181818187E000000000000007CC6E7
:10036600060C183060C6FE000000000000007CC6C7
:1003760006063C0606C67C000000000000000C1CB9
:100386003C6CCCFE0C0C1E00000000000000FEC001
:10039600C0C0FC0606C67C000000000000003860F5
:1003A600C0C0FCC6C6C67C00000000000000FEC639
:1003B600060C1830303030000000000000007CC60B
:1003C600C6C67CC6C6C67C000000000000007CC60F
:1003D600C6C67E06060C7800000000000000001865
:1003E60018000000181800000000000000000018A7
:1003F6001800000018183000000000000000060C6D
:1004060018306030180C06000000000000000000E4
:10041600007E00007E00000000000000000060304A
:10042600180C060C183060000000000000007CC6A6
:10043600C60C1818001818000000000000007CC642
:10044600C6DEDEDEDCC07C000000000000001038E6
:100456006CC6C6FEC6C6C600000000000000FC66EC
:1004660066667C666666FC000000000000003C666E
:10047600C2C0C0C0C2663C00000000000000F86CAC
:1004860066666666666CF800000000000000FE66A0
:10049600626878686266FE00000000000000FE6682
:1004A600626878686060F0000000000000003C664A
:1004B600C2C0C0DEC6663A00000000000000C6C624
:1004C600C6C6FEC6C6C6C6000000000000003C1830
:1004D6001818181818183C000000000000001E0C20
:1004E6000C0C0C0CCCCC7800000000000000E6667A
:1004F6006C6C786C6C66E600000000000000F06032
:10050600606060606266FE00000000000000C6EEEB
:10051600FED6C6C6C6C6C600000000000000C6E677
:10052600F6FEDECEC6C6C600000000000000386C2F
:10053600C6C6C6C6C66C3800000000000000FC66D1
:1005460066667C606060F0000000000000007CC60B
:10055600C6C6D6DE7C0C0E00000000000000FC665D
:1005660066667C6C6666E6000000000000007CC6DD
:10057600C660380CC6C67C000000000000007E5A2B
:100586001818181818183C00000000000000C6C60D
:10059600C6C6C6C6C6C67C00000000000000C6C6A9
:1005A600C6C6C6C66C381000000000000000C6C6ED
:1005B600C6C6C6D6FEEEC600000000000000C6C6CF
:1005C600C66C386CC6C6C600000000000000C6C671
:1005D600C66C383838387C00000000000000FEC6C3
:1005E6008C183060C2C6FE000000000000003C30DF
:1005F6003030303030303C0000000000000080C059
:10060600E070381C0E0602000000000000003C0CE2
:100616000C0C0C0C0C0C3C000000000010386CC6D6
:1006260000000000000000000000000000000000C4
:100636000000000000000000FE000000003030183E
:1006460000000000000000000000000000000000A4
:1006560000780C7CCCCC7600000000000000E06046
:1006660060786C666666DC00000000000000000032
:10067600007CC6C0C0C67C000000000000001C0C48
:100686000C3C6CCCCCCC76000000000000000000D6
:10069600007CC6FEC0C67C000000000000001C36C0
:1006A60032307C303030780000000000000000005E
:1006B6000076CCCCCC7C0CCC780000000000E0604E
:1006C600606C76666666E60000000000000018189A
:1006D6000038181818183C00000000000000060634
:1006E600000E0606060666663C0000000000E06096
:1006F60060666C786C66E600000000000000381842
:100706001818181818183C00000000000000000017
:100716000044FED6D6D6D600000000000000000039
:1007260000DC6666666666000000000000000000E9
:10073600007CC6C6C6C67C000000000000000000A3
:1007460000DC6666667C6060F00000000000000069
:100756000076CCCCCC7C0C0C1E0000000000000007
:1007660000DC76666060F00000000000000000001B
:10077600007CC6701CC67C00000000000000103023
:1007860030FC303030361C00000000000000000055
:1007960000CCCCCCCCCC76000000000000000000E1
:1007A60000C6C6C66C38100000000000000000003D
:1007B60000C6C6C6D6FE6C000000000000000000A1
:1007C60000C66C38386CC60000000000000000004F
:1007D60000C6C6C6C67E060C7800000000000000F3
:1007E60000FECC183066FE000000000000000E1867
:1007F6001818701818180E000000000000001818CD
:1008060018180018181818000000000000007018CA
:1008160018180E181818700000000000000076DC8A
:1008260000000000000000000000000000000000C2
:1008360000000000000000000000000000000000B2
:1008460000000000000000000000000000000000A2
:100856000000000000000000000000000000000092
:10000300E4FDFCC3ED9FEC9E5015E4FBFA0BBB0033
:0F001300010AEB64FA4A70F50DBD00010C80E4A0
:0100220022BB
:10198F007E08EED39400748094804015EF30E70406
:10199F00D2928002C292C291D291EF25E0FF1E80B7
:0119AF00E156
:0119B0002214
:0A1B0000C290C29312198FD29022F6
:051A6700121B007F01CD
:0E1A6C00E4900053F0C290D29312198FD290E2
:011A7A002249
:0419F000AD07AC068D
:1019F400E490004AF0C290D293ECFF12198FAF0525
:051A040012198FD290C1
:011A090022BA
:0E1ACC00C2947F647E00120003D294020003D5
:10104200121ACC7F11121B007F787E001200037FE0
:10105200B1121A677F2C121A6C7F2D121A6C7FB292
:10106200121A677F2C121A6C7F2D121A6C7FB31220
:101072001A677F2C121A6C7F2D121A6C7F01121ABA
:101082006C7F2C121A6C7F2D121A6C7FB4121B000B
:101092007F07121A6C7FC0121B007FA2121A6C7F8C
:1010A20002121A6C7F84121A6C7FC1121B007FC558
:1010B200121A6C7FC2121B007F0A121A6CE4FF1212
:1010C2001A6C7FC3121B007F8A121A6C7F2A121AB3
:1010D2006C7FC4121B007F8A121A6C7FEE121A6C8C
:1010E2007FC5121B007F0E121A6C7F36121B007F07
:1010F200C0121A6C7FE0121B007F0F121A6C7F1A4B
:10110200121A6C7F0F121A6C7F18121A6C7F2F1230
:101112001A6C7F28121A6C7F20121A6C7F22121A04
:101122006C7F1F121A6C7F1B121A6C7F23121A6CAF
:101132007F37121A6CE4FF121A6C7F07121A6C7F47
:1011420002121A6C7F10121A6C7FE1121B007F0FC1
:10115200121A6C7F1B121A6C7F0F121A6C7F1712F5
:101162001A6C7F33121A6C7F2C121A6C7F29121A96
:101172006C7F2E121A6C7F30121A6C7F30121A6C2E
:101182007F39121A6C7F3F121A6CE4FF121A6C7FBD
:1011920007121A6C7F03121A6C7F10121A6C7F2AC4
:1011A200121B00E4FF121A6C7F02121A6CE4FF1287
:1011B2001A6C7F82121A6C7F2B121B00E4FF121A28
:1011C2006C7F03121A6CE4FF121A6C7F83121A6C82
:1011D2007FF0121A677FF6121B00E4FF121A6C7F6F
:0E11E2003A121B007F05121A6C7F29021B00B7
:1015E400EEF0A3EFF0900050E4F0A3749FF0A37426
:0B15F40002F07B7F7A00E4FDFCFFFEAC
:1015FF0090004AEEF0A3EFF0900052E0F964027011
:10160F00028005E96401703B7F2A121B007F0212E2
:10161F001A6C90004AA3E02402FF121A6C7F021288
:10162F001A6CEB2402FF121A6C7F2B121A67ED044F
:10163F00FF121A6C7F01121A6C900050A3E004FF86
:08164F00121A6C7F2C021B0033
:1017660090005FEEF0A3EFF0900063EAF0A3EBF0D9
:10177600900061ECF0A3EDF090005FE0FAA3E0FFCB
:10178600AE02C006C0072401FBE43AFAA3E0FEA3BA
:10179600E02401FFE43E900050F0A3EFF0A37402B2
:1017A600F0D007D0061215FF900063E0FEA3E0FF1D
:0317B6000219F025
:0318E1009000482C
:1018E4001215E4E4FBEBC394A074809480501DE4CF
:1018F400FAEAC3948074809480500E900048E0FE0D
:0C190400A3E0FF1219F00A80E80B80D964
:0119100022B4
:1011F000900000EEF0A3EFF0A3ECF0A3EDF0A3EB72
:07120000F0A3EAF0A3E9F0FE
:10120700E4A3F0A3F0900004E0FBA3E0FAA3E0F965
:10121700121A52900007E0FCA3E0FDC39FEC9E402A
:10122700026186900004E0FBA3E0FAA3E0F98D8257
:101237008C831213A0FFC394A174809480400A90FA
:101247000031EFF0E4A3F06174900004E0FBA3E049
:10125700FAA3E0F9A3E0FEA3E0F5828E831213A0C0
:10126700FFE4FCFDFE7B10FAF9F812140390000D61
:10127700121452E4FBFA90000DA3A3E0FEA3E02BA7
:10128700FFEE3AFE74412FF58274003EF583E49336
:10129700FF74112BF58274003AF583EFF00BBB0056
:1012A700010AEB64104A70CEE490000BF0A3F0E45F
:1012B700900009F0A3F0900009E0FEA3E0FFC394BB
:1012C70008EE64809480400261537C007D0812130D
:1012D700CD7E007480A805088006CEA2E713CE1342
:1012E700D8F8FF90000BE0FCA3E0FD2411F5827411
:1012F700003CF583E0FB3395E05EFEEF5B4E603C20
:10130700900009E0FEA3E0FF900001E02FFB9000B2
:1013170000E03EFA900007E0FEA3E07803C333CE77
:1013270033CED8F92BFFEA3EFE900002E0FAA3E0A5
:101337002DFDEC3AFC7B007AF812176690000AE064
:1013470004F07006900009E004F041BD90000CE045
:1013570004F0700690000BE004F0C390000CE094DA
:101367001090000BE064809480500241B690000812
:0F137700E004F06002410C900007E004F0410C2C
:011386002244
:03191100900065DE
:101914001215E4E4FBEBC394A074809480501DE49E
:10192400FAEAC3948074809480500E900065E0FEBF
:0C193400A3E0FF1219F00A80E80B80D934
:011940002284
:101A9D007BFF7A0079267D0A7C007F0A7E00021189
:011AAD00F048
:0F1AAE00121042D2C474FFFFFE1218E1021A9DFB
:1019D200D3EF9400EE940040147D377C00ED1D702F
:0D19E200011CED4C70F7EF1F70E61E80E356
:0119EF0022D5
:041B27007FEEDFFE70
:011B2B002297
:0A1AF50000007F037E7BDEFEDFFCB5
:011AFF0022C4
:081B1E007F047E1BDEFEDFFCEC
:011B2600229C
:041B2C007F06DFFE53
:011B30002292
:091B0A00007F027E3CDEFEDFFCE0
:011B130022AF
:091B1400007F027E8CDEFEDFFC86
:011B1D0022A5
:0E1ABD0000007F037E327D04DDFEDEFCDFFADA
:011ACB0022F8
:0D1ADA00007F037E707D5BDDFEDEFCDFFA29
:011AE70022DC
:0C1AE8007FF47E827D04DDFEDEFCDFFA70
:011AF40022CF
:030000000215588E
:0C155800787FE4F6D8FD75810702159F2E
:10138700BB010689828A83E0225002E722BBFE0264
:09139700E32289828A83E4932297
:1013A000BB010CE58229F582E5833AF583E0225002
:1013B00006E92582F8E622BBFE06E92582F8E2224C
:0D13C000E58229F582E5833AF583E4932266
:1013CD00C2D5EC30E709B2D5E4C39DFDE49CFCEE3B
:1013DD0030E715B2D5E4C39FFFE49EFE12145EC341
:1013ED00E49DFDE49CFC800312145E30D507C3E43C
:0613FD009FFFE49EFE22AA
:10140300E88FF0A4CC8BF0A42CFCE98EF0A42CFC88
:101413008AF0EDA42CFCEA8EF0A4CDA8F08BF0A406
:101423002DCC3825F0FDE98FF0A42CCD35F0FCEB65
:101433008EF0A4FEA9F0EB8FF0A4CFC5F02ECD392A
:0F144300FEE43CFCEAA42DCE35F0FDE43CFC2297
:0C145200ECF0A3EDF0A3EEF0A3EFF0220D
:101A5200E4FFFE121387600C0FEF70010E09E970AC
:051A6200F20A80EF22F2
:10156400021A0AE493A3F8E493A34003F68001F279
:1015740008DFF48029E493A3F85407240CC8C33388
:10158400C4540F4420C8834004F456800146F6DF57
:10159400E4800B010204081020408090196CE47E62
:1015A400019360BCA3FF543F30E509541FFEE4934C
:1015B400A360010ECF54C025E060A840B8E493A313
:1015C400FAE493A3F8E493A3C8C582C8CAC583CA3E
:1015D400F0A3C8C582C8CAC583CADFE9DEE780BEF6
:01198E000058
:10145E00BC000BBE0029EF8DF084FFADF022E4CC72
:10146E00F875F008EF2FFFEE33FEEC33FCEE9DEC3B
:10147E00984005FCEE9DFE0FD5F0E9E4CEFD22ED81
:10148E00F8F5F0EE8420D21CFEADF075F008EF2FCB
:10149E00FFED33FD4007985006D5F0F222C398FDBC
:0514AE000FD5F0EA2259
:00000001FF
