:0430FB0041009600FA
:10333F001232CD1231CF1228001229BC1227E412FB
:04334F00180080F8EA
:0300230002319314
:0D319300C0E0C083C082C0D075D000C0076E
:1031A000309902C299C298AF99EF647F7011900074
:1031B00096E004F0E0640A700BF043C7608005906D
:0431C0000096E4F0A1
:0B31C400D007D0D0D082D083D0E03202
:0527FB002530326400EE
:1030FF0041006A0041006B0041006C0042006D000E
:10310F000842006F00004200680000420066001491
:0A311F004200640006420062000F47
:1027E40020A4137F0A7E0012330C20A40990006AEF
:0727F4007401F030A4FD2286
:1033670020A50D7F0A7E0012330C20A50330A5FD92
:013377002233
:101800001227E490006AE064016002211B20A40218
:10181000211220A57A7F0A7E0012330C20A5709039
:10182000006EE004F0700690006DE004F090006D32
:10183000E07004A3E06419700890006DF0A37408D0
:10184000F07F011224CA7E007F0A7D207B017A008E
:1018500079001223F190000D74FFF0A37427F0A318
:1018600074FBF090006DE0FFA3E0900010CFF0A3B8
:10187000EFF07B017A007900121F0E7B017A00796C
:10188000007D027C007F017E00122B5D30A5FD30C3
:10189000CC02010D7F0A7E0012330C30CC02010D08
:1018A00090006EE024FFF090006DE034FFF0E0B4B3
:1018B000FF0EA3E0B4FF0990006DE4F0A37408F0FC
:1018C0007F011224CA7E007F0A7D207B017A007985
:1018D000001223F190000D74FFF0A37427F0A3749D
:1018E000FBF090006DE0FFA3E0900010CFF0A3EFBD
:1018F000F07B017A007900121F0E7B017A007900DB
:101900007D027C007F017E00122B5D30CC02010D38
:1019100080F930A4FD90006A7402F090006AE064DF
:10192000026002412920A402412020A5777F0A7E7F
:101930000012330C20A56D900070E004F07006904A
:10194000006FE004F090006FE07004A3E0643D706D
:101950000890006FF0A3741EF07F021224CA7E006C
:101960007F0A7D207B017A0079001223F190000D1F
:1019700074FFF0A37427F0A374FBF090006FE0FFF6
:10198000A3E0900010CFF0A3EFF07B017A00790084
:10199000121F0E7B017A0079007D027C007F327E6F
:1019A00000122B5D30CC0221257F0A7E0012330C01
:1019B00030CC022125900070E024FFF090006FE011
:1019C00034FFF0E0B4FF0CA3E0B4FF07E490006F35
:1019D000F0A3F07F021224CA7E007F0A7D207B01E3
:1019E0007A0079001223F190000D74FFF0A37427A0
:1019F000F0A374FBF090006FE0FFA3E0900010CF25
:101A0000F0A3EFF07B017A007900121F0E7B017AC0
:101A10000079007D027C007F327E00122B5D212543
:101A200030A4FD90006A7403F090006AE0640360E3
:101A300002613720A402612E20A5777F0A7E001262
:101A4000330C20A56D900069E004F07006900068EA
:101A5000E004F0900068E07004A3E0643D7008903A
:101A60000068F0A3741EF07F031224CA7E007F0A70
:101A70007D207B017A0079001223F190000D74FF24
:101A8000F0A37427F0A374FBF0900068E0FFA3E0DC
:101A9000900010CFF0A3EFF07B017A007900121FC5
:101AA0000E7B017A0079007D027C007F667E001249
:101AB0002B5D30CC0241337F0A7E0012330C30CCD8
:101AC000024133900069E024FFF0900068E034FFA9
:101AD000F0E0B4FF0CA3E0B4FF07E4900068F0A3CB
:101AE000F07F031224CA7E007F0A7D207B017A00EA
:101AF00079001223F190000D74FFF0A37427F0A376
:101B000074FBF0900068E0FFA3E0900010CFF0A31A
:101B1000EFF07B017A007900121F0E7B017A0079C9
:101B2000007D027C007F667E00122B5D413330A475
:101B3000FD90006A7404F090006AE0640460028121
:101B40004720A402813E20A5777F0A7E0012330C35
:101B500020A56D900067E004F07006900066E00438
:101B6000F0900066E07004A3E06464700890006682
:101B7000F0A37414F07F041224CA7E007F0A7D2033
:101B80007B017A0079001223F190000D74FFF0A31D
:101B90007427F0A374FBF0900066E0FFA3E09000D0
:101BA00010CFF0A3EFF07B017A007900121F0E7BBB
:101BB000017A0079007D287C007F127E00122B5D67
:101BC00030CC0261417F0A7E0012330C30CC0261BE
:101BD00041900067E024FFF0900066E034FFF0E001
:101BE000B4FF0EA3E0B4FF09900066E4F0A3741400
:101BF000F07F041224CA7E007F0A7D207B017A00D8
:101C000079001223F190000D74FFF0A37427F0A364
:101C100074FBF0900066E0FFA3E0900010CFF0A30B
:101C2000EFF07B017A007900121F0E7B017A0079B8
:101C3000007D287C007F127E00122B5D614130A464
:101C4000FD90006A7405F090006AE064056002A1EE
:101C50005720A402A14E20A5777F0A7E0012330CE4
:101C600020A56D900065E004F07006900064E0042B
:101C7000F0900064E07004A3E0640D7008900064CC
:101C8000F0A37406F07F051224CA7E007F0A7D202F
:101C90007B017A0079001223F190000D74FFF0A30C
:101CA0007427F0A374FBF0900064E0FFA3E09000C1
:101CB00010CFF0A3EFF07B017A007900121F0E7BAA
:101CC000017A0079007D287C007F327E00122B5D36
:101CD00030CC0281517F0A7E0012330C30CC02815D
:101CE00051900065E024FFF0900064E034FFF0E0E4
:101CF000B4FF0EA3E0B4FF09900064E4F0A37406FF
:101D0000F07F051224CA7E007F0A7D207B017A00C5
:101D100079001223F190000D74FFF0A37427F0A353
:101D200074FBF0900064E0FFA3E0900010CFF0A3FC
:101D3000EFF07B017A007900121F0E7B017A0079A7
:101D4000007D287C007F327E00122B5D815130A403
:101D5000FD90006A7406F090006AE064066002C1BB
:101D60006720A402C15E20A5777F0A7E0012330C93
:101D700020A56D900063E004F07006900062E0041E
:101D8000F0900062E07004A3E064207008900062AC
:101D9000F0A3740FF07F061224CA7E007F0A7D2014
:101DA0007B017A0079001223F190000D74FFF0A3FB
:101DB0007427F0A374FBF0900062E0FFA3E09000B2
:101DC00010CFF0A3EFF07B017A007900121F0E7B99
:101DD000017A0079007D287C007F5A7E00122B5DFD
:101DE00030CC02A1617F0A7E0012330C30CC02A1FC
:101DF00061900063E024FFF0900062E034FFF0E0C7
:101E0000B4FF0EA3E0B4FF09900062E4F0A3740FE6
:101E1000F07F061224CA7E007F0A7D207B017A00B3
:101E200079001223F190000D74FFF0A37427F0A342
:101E300074FBF0900062E0FFA3E0900010CFF0A3ED
:101E4000EFF07B017A007900121F0E7B017A007996
:101E5000007D287C007F5A7E00122B5DA16130A49A
:101E6000FD90006A7407F090006AE0640770399092
:101E70000068A3E090004DF090006FA3E090004E4A
:101E8000F090006DA3E090004FF0900062A3E0900E
:101E90000050F0900064A3E0900051F0900066A321
:081EA000E0900053F01231CF75
:011EA8002217
:1032CD00438780759850438E40538EFE53890F432C
:1032DD008920758BE6758DE6C2ABD28ED2AFD2AC9E
:0132ED0022BE
:1017E700122304FF642160108F99740129F9E43AE8
:0917F700FA3099FDC29980E82244
:03341200C2A22231
:0431290041007E00E3
:102F6700E4900091F0900091E0C3940874809480FD
:102F770050549000937402F020C00A900093E0FF31
:102F870004F0EF70F3123408E4900092F030C002BE
:102F970004F09000937402F030C00A900093E0FFB1
:102FA70004F0EF70F3900093E06401601990007EE5
:102FB700E025E0FFF0900092E04F90007EF0900057
:062FC70091E004F0809F80
:012FCD0022E1
:102CF300E4900083F0A3F0A3F0A3F0A3F0123396C3
:102D0300C2C0123378D2C01233E3D2C030C002A1A2
:102D1300AE7F0220C006AE070FEE70F77F0230C011
:102D230006AE070FEE70F7122F6790007EE090005B
:102D330083F0122F6790007EE0900084F0122F67DB
:102D430090007EE0900085F0122F6790007EE09067
:102D53000086F0122F6790007EE0FF900087F0D28C
:102D6300C0900086E0FD900085E02DFDE433FC90EB
:102D73000083E0F97A002DFDEA3CFCA3E0FE2DFD83
:102D8300EA3CFCEFB50524EAB5042090007FE9F0A6
:102D9300A3EEF0900085E0900081F0900086E09033
:0B2DA3000082F0900087E090007DF0BF
:012DAE002202
:10300000122304900088F090000112231D90008983
:10301000F090000212231D90008AF090000312230A
:103020001D90008BF090000412231D90008CF0C2C4
:10303000ACE4FFEFC3940574809480501574882F1E
:10304000F582E43400F583E0F5993099FDC2990FDB
:0430500080E1D2AC9D
:013054002259
:10312D0047005480828486888A8C47004D00301277
:0E313D001506052047005B81838587898B8DF1
:10314C00C2C700C2C500D2C700E4FEEEC394087427
:10315C008094805011EF1392C6EFC313FFD2C500B9
:10316C00C2C5000E80E5E4FEEEC394087480948022
:10317C005011ED1392C6EDC313FDD2C500C2C500AC
:06318C000E80E5C2C70041
:01319200221A
:10305500C2C700C2C500D2C700E4FDEDC394087421
:103065008094805011EF1392C6EFC313FFD2C500B1
:10307500C2C5000D80E500E4FDEDC394087480949D
:1030850080501AA2C6E433FFC43333335480FCEEB8
:10309500C3134CFED2C500C2C5000D80DCC2C700FB
:0230A500AF0674
:0130A7002206
:1031CF00E4FD7F8E12314CE4FCECC39407748094C1
:1031DF0080501E74542CF582E43400F583E0FF74A4
:1031EF004D2CF582E43400F583E0FD12314C0C8058
:0831FF00D87D807F8E02314C67
:10323700E4FBEBC3940774809480501E745B2BF5FA
:1032470082E43400F583E0FF123055744D2BF5828C
:0A325700E43400F583EFF00B80D89B
:01326100224A
:083400001231CF12323780FBBC
:1000260000000000000000000000000000000000CA
:1000360000000000000000000000000000000000BA
:1000460000000000000000000000000000000000AA
:10005600000000000000000000000000000000009A
:10006600000000000000000000000000000000008A
:10007600000000000000000000000000000000007A
:10008600000000000000000000000000000000006A
:10009600000000000000000000000000000000005A
:1000A6000000001808C80808000000000000000052
:1000B60000007F6060606060606060E0602000005B
:1000C600000000000000000000000000000000002A
:1000D60000001818181010100000000000000000A2
:1000E60000000000000000000808080C0C0C0000CE
:1000F60000000000000000000000000000000000FA
:1001060000006C3810007CC6701CC67C0000000025
:10011600000010386C00780C7CCCCC760000000017
:100126000000000000007CC670C0C67C0000000015
:100136000000000000006C967CD0D66C0000000029
:100146000000000000007CC60606C67C0000000019
:10015600000000386CC6C6FEC6C66C38000000003B
:1001660000000000001038286C44C6C600000000DD
:100176000000000000007CC606FEC67C00000000F1
:10018600000000000000DC666666F60606663C00B7
:100196000000006C38F80C7EC6C6C67C0000000065
:1001A6000000000E1B18181818181818D870000030
:1001B6000000000000FE860C180C0606C67C000037
:1001C600000076DC0000780C7CCCCC7600000000C9
:1001D600000076DC00007CC60606C67C0000000037
:1001E600000076DC0000DC666666666600000000DD
:1001F60000000000000076999F98996F00000000AB
:1002060000000000000000000000000C06060000D0
:10021600000000000000000000003C66663C000094
:1002260000000000000000000000000000000000C8
:10023600000000183C3C3C1818001818000000008C
:100246000000C6C6C6440000000000000000000012
:100256000000006C6CFE6C6C6CFE6C6C00000000A8
:100266000018187CC6C2C07C0686C67C181800001A
:100276000000000000C3C60C183063C30000000075
:10028600000000386C6C3876DCCCCC7600000000C0
:100296000000303030600000000000000000000068
:1002A60000000018306060606060301800000000D8
:1002B600000000180C06060606060C1800000000D2
:1002C60000000000006C38FE386C000000000000E2
:1002D600000000001818187E18181800000000000A
:1002E6000000000000000000001818183000000090
:1002F60000000000000000FE0000000000000000FA
:1003060000000000000000000000181800000000B7
:1003160000000002060C183060C0800000000000DB
:100326000000007CC6CEDEF6E6C6C67C00000000F5
:1003360000000018387818181818187E00000000F9
:100346000000007CC6060C183060C6FE00000000E7
:100356000000007CC606063C0606C67C00000000BF
:100366000000000C1C3C6CCCFE0C0C1E00000000B7
:10037600000000FEC0C0C0FC0606C67C00000000EF
:100386000000003860C0C0FCC6C6C67C0000000085
:10039600000000FEC6060C183030303000000000A9
:1003A6000000007CC6C6C67CC6C6C67C000000002F
:1003B6000000007CC6C6C67E06060C78000000005B
:1003C60000000000181800000018180000000000C7
:1003D6000000000018180000001818300000000087
:1003E600000000060C18306030180C0600000000F3
:1003F6000000000000007E00007E000000000000FB
:100406000000006030180C060C1830600000000078
:100416000000007CC6C60C18180018180000000062
:100426000000007CC6C6DEDEDEDCC07C000000000C
:1004360000000010386CC6C6FEC6C6C60000000026
:10044600000000FC6666667C666666FC00000000CE
:100456000000003C66C2C0C0C0C2663C000000008E
:10046600000000F86C66666666666CF800000000C0
:10047600000000FE66626878686266FE00000000A2
:10048600000000FE66626878686060F000000000A8
:100496000000003C66C2C0C0DEC6663A000000002E
:1004A600000000C6C6C6C6FEC6C6C6C60000000018
:1004B6000000003C181818181818183C0000000016
:1004C6000000001E0C0C0C0C0CCCCC7800000000BC
:1004D600000000E6666C6C786C6C66E60000000056
:1004E600000000F060606060606266FE0000000070
:1004F600000000C6EEFED6C6C6C6C6C60000000090
:10050600000000C6E6F6FEDECEC6C6C60000000047
:10051600000000386CC6C6C6C6C66C3800000000AF
:10052600000000FC6666667C606060F0000000000B
:100536000000007CC6C6C6D6DE7C0C0E000000009D
:10054600000000FC6666667C6C6666E600000000DD
:100556000000007CC6C660380CC6C67C00000000E1
:100566000000007E5A1818181818183C00000000E1
:10057600000000C6C6C6C6C6C6C6C67C00000000C9
:10058600000000C6C6C6C6C6C66C3810000000000D
:10059600000000C6C6C6C6C6D6FEEEC600000000EF
:1005A600000000C6C6C66C386CC6C6C60000000091
:1005B600000000C6C6C66C383838387C000000001B
:1005C600000000FEC68C183060C2C6FE00000000A7
:1005D6000000003C303030303030303C000000004D
:1005E60000000080C0E070381C0E0602000000000B
:1005F6000000003C0C0C0C0C0C0C0C3C0000000029
:100606000010386CC600000000000000000000006A
:1006160000000000000000000000000000FE0000D6
:10062600000030301800000000000000000000004C
:10063600000000000000780C7CCCCC7600000000A6
:10064600000000E06060786C666666DC0000000012
:100656000000000000007CC6C0C0C67C0000000090
:100666000000001C0C0C3C6CCCCCCC7600000000CE
:100676000000000000007CC6FEC0C67C0000000032
:100686000000001C3632307C30303078000000002C
:1006960000000000000076CCCCCC7C0CCC780000AE
:1006A600000000E060606C76666666E600000000AA
:1006B60000000018180038181818183C0000000030
:1006C6000000000606000E0606060666663C0000EA
:1006D600000000E06060666C786C66E60000000072
:1006E60000000038181818181818183C00000000E8
:1006F60000000000000044FED6D6D6D6000000005A
:10070600000000000000DC66666666660000000009
:100716000000000000007CC6C6C6C67C00000000C3
:10072600000000000000DC6666667C6060F0000089
:1007360000000000000076CCCCCC7C0C0C1E000027
:10074600000000000000DC76666060F0000000003B
:100756000000000000007CC6701CC67C0000000083
:10076600000000103030FC303030361C0000000035
:10077600000000000000CCCCCCCCCC760000000001
:10078600000000000000C6C6C66C3810000000005D
:10079600000000000000C6C6C6D6FE6C00000000C1
:1007A600000000000000C66C38386CC6000000006F
:1007B600000000000000C6C6C6C67E060C78000013
:1007C600000000000000FECC183066FE00000000AD
:1007D6000000000E181818701818180E00000000F7
:1007E6000000001818181800181818180000000043
:1007F600000000701818180E181818700000000075
:1008060000000076DC000000000000000000000090
:1008160000000000000000000000000000000000D2
:1008260000000000000000000000000000000000C2
:1008360000000000000000000000000000000000B2
:1008460000000000000000000000000000000000A2
:1010F6000000000000000000F000000000000000FA
:10110600000FF000000000000000003FF8000000A3
:1011160000000000003FF800000000000000003F53
:10112600F800000000000000007FFC000000000046
:101136000000007FFC00000000000000007FFC00B3
:1011460000000000000000FFFC000000000000009E
:1011560000FFFE0000000000000000FFFE0000008F
:101166000000000001FBFE0000000000000001F38B
:10117600FF0000000000000001F3FF000000000077
:10118600000003F1FF0000000000000003E1FF8003
:1011960000000000000003E1FF80000000000000E6
:1011A60007E0FF8000000000000007C0FF8000008D
:1011B6000000000007C0FFC00000000000000FC0D4
:1011C6007FC00000000000000F807FC0000000000C
:1011D60000000F807FE00000000000000F807FE02D
:1011E6000000000000001F003FE0000000000000BB
:1011F6001F003FF00000000000001F003FF000004D
:10120600000000003E001FF00000000000003E004D
:101216001FF00000000000003E001FF80000000064
:1012260000007E000FF80000000000007C000FF8B0
:101236000000000000007C000FFC00000000000021
:10124600FC000FFC000000000000F80007FC000096
:1012560000000000F80007FE000000000001F80092
:1012660007FE000000000001F00003FE0000000081
:101276000001F00003FE000000000003F00003FF81
:10128600000000000003E00001FF00000000000372
:10129600E00001FF000000000007E00001FF800001
:1012A60000000007C00001FF800000000007C0002A
:1012B60000FF800000000007C00000FFC000000023
:1012C600000F800000FFC0000000000F8000007FBC
:1012D600C0000000000F8000007FC0000000001F5B
:1012E6008000007FE0000000001F0000003FE000DB
:1012F6000000001F0000003FE0000000003FFFFF6D
:10130600FFFFF0000000003FFFFFFFFFF0000000BE
:10131600003FFFFFFFFFF0000000007C0000001F01
:10132600F8000000007C0000001FF8000000007CB0
:101336000000001FF800000000F80000000FF80091
:10134600000000F80000000FFC00000000F800009C
:10135600000FFC00000001F80000000FFC00000078
:1013660001F000000007FE00000001F00000000789
:10137600FE00000003F000000007FE00000003E08E
:1013860000000003FF00000003E000000003FF0070
:10139600000003E000000003FF00000007E000007B
:1013A6000003FF00000007C000000001FF800000EE
:1013B60007C000000001FF8000000FC00000000110
:1013C600FF8000000F8000000000FFC000000F80BB
:1013D60000000000FFC000001F8000000000FFC0EA
:1013E60000001F8000000000FFE000001F0000005A
:1013F60000007FE000003F00000000007FE00000EA
:101406003F00000000007FF000003F0000000000E9
:101416007FF000007F80000000007FF800007F80E2
:10142600000000007FF80000FFC0000000007FFC05
:101436000003FFE000000000FFFF007FFFFF000049
:10144600003FFFFFF87FFFFF0000003FFFFFF87F30
:10145600FFFF0000003FFFFFF80000000000000053
:101466000000000000000000000000000000000076
:101476000000000000000000000000000000000066
:101486000000000000000000000000000000000056
:101496000000000000000000000000000000000046
:1014A6000000000000000000000000000000000036
:1014B6000000000000000000000000000000000026
:1014C6000000000000000000000000000000000016
:1014D6000000000000000000000000000000000006
:1014E60000000000000000000000000000000000F6
:1014F60000000000000000000000000000000000E6
:1015060000000000000000000000000000000000D5
:1015160000000000000000000000000000000000C5
:10152600000000000000000000000000000F00188E
:101536008030C0606060606020C030C030C030C0A5
:1015460030C030C030C030C030C030C030602060E5
:1015560060606030C018800F0000000000000000CE
:10156600000000000000000000000000000200066D
:10157600007E0006000600060006000600060006BD
:101586000006000600060006000600060006000625
:1015960000060006000F007FE000000000000000CB
:1015A600000000000000000000000000001F802076
:1015B600E0406080308030C030C0300030006000D5
:1015C6006000C00180030006000C00080010102017
:1015D6001040108030FFE0FFE00000000000000037
:1015E600000000000000000000000000001F006175
:1015F60080C0C0C060C060C0600060006000C00104
:10160600800F0001C00060002000300030C030C0F4
:1016160030C020C06060C01F000000000000000055
:101626000000000000000000000000000001800132
:101636008003800380058005800980118011802148
:101646008021804180C18081800180FFF00180017E
:10165600800180018001800FF00000000000000082
:10166600000000000000000000000000003FF03F06
:10167600F04000400040004000400040004F8050D5
:10168600C0606040200030003000300030C030C004
:10169600308060806060C01F000000000000000015
:1016A6000000000000000000000000000007801895
:1016B6006030602060600040004000C000CF80D8ED
:1016C600C0E060E020C030C030C030C030C0306004
:1016D600306020306038C00F80000000000000003D
:1016E600000000000000000000000000007FF07F06
:1016F600F04020C040804080800080010001000151
:10170600000200020004000400040004000C000CA7
:10171600000C000C000C000C000000000000000093
:10172600000000000000000000000000001F8030E4
:10173600C06060C030C030C030E030E02078603C2F
:10174600801F0063C0C1E0C0E080708030803080C0
:10175600308030C06060C01F000000000000000044
:10176600000000000000000000000000001F0060F4
:1017760080C040C0608020803080308030803080E3
:1017860030C070C0B061B03E300030006000600014
:1017960040C0C0C180C3003E000000000000000041
:1017A6000000000000000000000000000000000033
:1017B6000000000000000000000000000000000023
:1017C6000000000000000000000000000000000013
:1017D600006000F000F00060000000000000000063
:0117E6000002
:10000300E4FDFCC3ED9FEC9E5015E4FBFA0BBB0033
:0F001300010AEB64FA4A70F50DBD00010C80E4A0
:0100220022BB
:103289007E08EED39400748094804015EF30E704F3
:10329900D2928002C292C291D291EF25E0FF1E80A4
:0132A900E143
:0132AA002201
:0A33D900C290C293123289D29022F2
:053353001233D97F01D7
:0E335800E490004CF0C290D293123289D290D1
:013366002244
:0432EE0074FFFFFE6C
:0432F200AD07AC0672
:1032F600E4900043F0C290D293ECFF123289AF05FE
:05330600123289D29093
:01330B00229F
:0E33A500C2947F647E00120003D294020003E3
:10280000C2C4123396D2C41233A57F111233D97FBA
:10281000787E001200037FB11233537F2C1233589D
:102820007F2D1233587FB21233537F2C1233587FCF
:102830002D1233587FB31233537F2C1233587F2D10
:102840001233587F011233587F2C1233587F2D12C8
:1028500033587FB41233D97F071233587FC01233F5
:10286000D97FA21233587F021233587F8412335813
:102870007FC11233D97FC51233587FC21233D97F3B
:102880000A123358E4FF1233587FC31233D97F8AB8
:102890001233587F2A1233587FC41233D97F8A12D9
:1028A00033587FEE1233587FC51233D97F0E12335F
:1028B000587F361233D97FC01233587FE01233D994
:1028C0007F0F1233587F1A1233587F0F1233587FFD
:1028D000181233587F2F1233587F281233587F2015
:1028E0001233587F221233587F1F1233587F1B1226
:1028F00033587F231233587F37123358E4FF123393
:10290000587F071233587F021233587F1012335802
:102910007FE11233D97F0F1233587F1B1233587F58
:102920000F1233587F171233587F331233587F2CCE
:102930001233587F291233587F2E1233587F3012AA
:1029400033587F301233587F391233587F3F123358
:1029500058E4FF1233587F071233587F031233585D
:102960007F101233587F2A1233D9E4FF1233587F75
:1029700002123358E4FF1233587F821233587F2BF0
:102980001233D9E4FF1233587F03123358E4FF1295
:1029900033587F831233587FF01233537FF612334C
:1029A000D9E4FF1233587F3A1233D97F05123358D6
:0C29B0007F291233D974FFFFFE022FCEE6
:102EF400EEF0A3EFF0900049E4F0A3749FF0A37404
:0B2F040002F07B7FE4FDFC7A00FFFE82
:102F0F00900043EEF0A3EFF090004BE0F9640270F5
:102F1F00028005E96401703B7F2A1233D97F0212C8
:102F2F003358900043A3E02402FF1233587F02125C
:102F3F003358EB2402FF1233587F2B123353ED0417
:102F4F00FF1233587F01123358900049A3E004FF5A
:082F5F001233587F2C0233D914
:1030A80090003DEEF0A3EFF0900041EAF0A3EBF0C2
:1030B80090003FECF0A3EDF090003DE0FAA3E0FFB4
:1030C800AE02C006C0072401FBE43AFAA3E0FEA35F
:1030D800E02401FFE43E900049F0A3EFF0A374025E
:1030E800F0D007D006122F0F900041E0FEA3E0FFBA
:0330F8000232F2AF
:032FCE0090000070
:102FD100122EF4E4FBEBC394A074809480501DE4A2
:102FE100FAEAC3948074809480500E900000E0FE51
:0C2FF100A3E0FF1232F20A80E80B80D946
:012FFD0022B1
:102B5D0090000AEEF0A3EFF0A3ECF0A3EDF0A3EBE1
:072B6D00F0A3EAF0A3E9F078
:102B7400E4A3F0A3F090000EE0FBA3E0FAA3E0F9D5
:102B840012332A900011E0FCA3E0FDC39FEC9E40A9
:102B94000281F290000EE0FBA3E0FAA3E0F98D823B
:102BA4008C8312231DFFC394A174809480400A90E7
:102BB400003BEFF0E4A3F081E090000EE0FBA3E023
:102BC400FAA3E0F9A3E0FEA3E0F5828E8312231DAD
:102BD400FFE4FCFDFE7B10FAF9F81223969000172F
:102BE4001223E5E4FBFA900017A3A3E0FEA3E02B75
:102BF400FFEE3AFE74262FF58274003EF583E493CB
:102C0400FF741B2BF58274003AF583EFF00BBB00C5
:102C1400010AEB64104A70CEE4900015F0A3F0E4CE
:102C2400900013F0A3F0900013E0FEA3E0FFC39420
:102C340008EE64809480400281BF7C007D081223EA
:102C44004A7E007480A805088006CEA2E713CE133E
:102C5400D8F8FF900015E0FCA3E0FD241BF5827476
:102C6400003CF583E0FB3395E05EFEEF5B4E603B9A
:102C7400900013E0FEA3E0FF90000BE02FFB900018
:102C84000AE03EFA900011E0FEA3E07803C333CEDD
:102C940033CED8F92BFFEA3EFE90000CE0FAA3E015
:102CA4002DFDEC3AFCE4FBFA1230A8900014E00489
:102CB400F07006900013E004F0812A900016E004FE
:102CC400F07006900015E004F0C3900016E0941034
:102CD400900015E06480948050028123900012E0FB
:0E2CE40004F060026179900011E004F0617963
:012CF20022BF
:1026C500900071EFF0A3EDF0A3EBF0A3EAF0A3E91E
:0126D500F014
:1026D600E4A3F0900073E0FBA3E0FAA3E0F9122371
:0626E60004FF7002E1E3B5
:1026EC007E00900079EEF0A3EFF0642E700A90005B
:1026FC0079F0A3740AF0800E90007AE024D0F09068
:10270C000079E034FFF0900076E075F00FA4FDAC9A
:10271C00F0900071E0FB7A002DFFEA3CFEC006C091
:10272C0007ED2BFFEA3CCF240FFBE43FFAA3E0FDBF
:10273C007C00241FFEE433900049F0A3CEF0A37478
:10274C0001F0D007D006122F0FE4900077F0A3F021
:10275C00900077E0FCA3E0FDC39440EC940050653E
:10276C00A3E0FEA3E07806C333CE33CED8F92DFF19
:10277C00EC3EFE74272FF58274153EF583E493909E
:10278C00007CF0E490007BF090007BE0C394087434
:10279C008094805020A3E054806480700280027486
:1027AC00FFFFFE1232F290007CE025E0F090007BFF
:1027BC00E004F080D3900078E004F0709390007700
:1027CC00E004F0808B900076E004F0900074E475E7
:0527DC00F00112238052
:0227E100C1D95C
:0127E30022D3
:03320700900094A0
:10320A00122EF4E4FBEBC394A074809480501DE466
:10321A00FAEAC3948074809480500E900094E0FE81
:0C322A00A3E0FF1232F20A80E80B80D90A
:013236002275
:1024CA00EF24FE6063147002A183147002A1D41475
:1024DA007002C122147002C17324056002C1C49043
:1024EA000049E4F0A37414F0A37402F07B14122FD1
:1024FA0008E490000AF090000AE0C39414748094EF
:10250A00804002C1C4E4A3F090000BE0C3941474A9
:10251A00809480500B1232EE90000BE004F080E8B9
:10252A0090000AE004F080CE900049E4F0A374140D
:10253A00F0A37402F07B467A00E4FDFC7F32FE12BF
:10254A002F0FE490000AF090000AE0C394147480FC
:10255A0094804002C1C4E4A3F090000BE0C3941439
:10256A0074809480500B1232EE90000BE004F080DD
:10257A00E890000AE004F080CE900049E4F0A374E9
:10258A0014F0A37402F07B787A00E4FDFC7F64FE09
:10259A00122F0FE490000AF090000AE0C39414741A
:1025AA008094804002C1C4E4A3F090000BE0C3947D
:1025BA001474809480500B1232EE90000BE004F0F9
:1025CA0080E890000AE004F080CE900049E4F0A38D
:1025DA00743CF0A37402F07B257D287C00E4122F62
:1025EA000BE490000AF090000AE0C39425748094EA
:1025FA00804002C1C4E4A3F090000BE0C3941474B9
:10260A00809480500B1232EE90000BE004F080E8C8
:10261A0090000AE004F080CE900049E4F0A3743CF4
:10262A00F0A37402F07B467A007D287C007F327E1C
:10263A0000122F0FE490000AF090000AE0C39414ED
:10264A00748094805074E4A3F090000BE0C3941457
:10265A0074809480500B1232EE90000BE004F080EC
:10266A00E890000AE004F080D0900049E4F0A374F6
:10267A003CF0A37402F07B6E7A007D287C007F5ABE
:10268A007E00122F0FE490000AF090000AE0C39433
:10269A0014748094805023E4A3F090000BE0C39458
:1026AA001474809480500B1232EE90000BE004F008
:0A26BA0080E890000AE004F080D0F0
:0126C40022F3
:1032AB002552483D00546D703D003A003230002FDE
:1032BB0000303132333435363738390000000000F6
:0232CB00000001
:102DAF00788D7C007D017BFF7A3279C77E007F02B0
:102DBF001222DE788F7C007D017BFF7A3279C97E0B
:102DCF00007F021222DEE490007FF0900080F090EE
:102DDF000081F0900082F090007DF0122CF31233FE
:102DEF00C190007FE0FD75F00A84243090008DF0D3
:102DFF00ED75F00A84E5F02430A3F07BFF7A327989
:102E0F00AB7D327C007F0A7E00122B5D7B017A0046
:102E1F00798D7D327C007F2A7E00122B5D900081A0
:102E2F00E0FD75F00A84243090008FF0ED75F00A04
:102E3F0084E5F02430A3F07BFF7A3279B07D467CB5
:102E4F00007F0A7E00122B5D7B017A00798F7D4611
:092E5F007C007F2A7E00022B5D3D
:1029BC0078007C007D017BFF7A3279CB7E007F0230
:1029CC001222DE1233C11233B390004FE0FFC45415
:1029DC000F9032BC93900000F0EF540F9032BC93E8
:1029EC00900001F07B017A0079007D027C007F0170
:1029FC007E00122B5D7BFF7A3279B57D0E7C007FD9
:102A0C00227E00122B5DE4900000F0A3F090004EAB
:102A1C00E0FFC4540F9032BC93900000F0EF540FC1
:102A2C009032BC93900001F07B017A0079007D021A
:102A3C007C007F327E00122B5D7BFF7A3279B57D74
:102A4C000E7C007F507E00122B5DE4900000F0A302
:102A5C00F090004DE0FFC4540F9032BC93900000F6
:102A6C00F0EF540F9032BC93900001F07B017A0090
:102A7C0079007D027C007F667E00122B5DE4900065
:102A8C0000F0A3F0900053E0FFC4540F9032BC93BD
:102A9C00900000F0EF540F9032BC93900001F07B4B
:102AAC00FF7A3279B77D287C007F017E00122B5D86
:102ABC007B017A0079007D287C007F127E00122B2E
:102ACC005D7BFF7A3279BA7D287C007F267E0012EE
:102ADC002B5DE4900000F0A3F0900051E0FFC45493
:102AEC000F9032BC93900000F0EF540F9032BC93D7
:102AFC00900001F07B017A0079007D287C007F3208
:102B0C007E00122B5D7BFF7A3279BA7D287C007FA8
:102B1C004A7E00122B5DE4900000F0A3F090005070
:102B2C00E0FFC4540F9032BC93900000F0EF540FB0
:102B3C009032BC93900001F07B017A0079007D28E3
:102B4C007C007F5A7E00122B5DE4900000F0A3F015
:012B5C002256
:10330C00D3EF9400EE940040147D377C00ED1D70DB
:0D331C00011CED4C70F7EF1F70E61E80E302
:013329002281
:043408007FEEDFFE76
:01340C00229D
:0A33CE0000007F037E7BDEFEDFFCC3
:0133D80022D2
:0833F7007F047E1BDEFEDFFCFB
:0133FF0022AB
:04340D007F06DFFE59
:013411002298
:0933E300007F027E3CDEFEDFFCEF
:0133EC0022BE
:0933ED00007F027E8CDEFEDFFC95
:0133F60022B4
:0E33780000007F037E327D04DDFEDEFCDFFA06
:013386002224
:0D33B300007F037E707D5BDDFEDEFCDFFA37
:0133C00022EA
:0C33C1007FF47E827D04DDFEDEFCDFFA7E
:0133CD0022DD
:0E33870000007F0D7E2D7DD6DDFEDEFCDFFA20
:013395002215
:0E33960000007F7A7EC17D80DDFEDEFCDFFA66
:0133A4002206
:03000000022E6865
:0C2E6800787FE4F6D8FD758121022EAFC2
:10220E00E709F608DFFA8046E709F208DFFA803EB2
:10221E0088828C83E709F0A3DFFA8032E309F6089F
:10222E00DFFA8078E309F208DFFA807088828C8307
:10223E00E309F0A3DFFA806489828A83E0A3F608BB
:10224E00DFFA805889828A83E0A3F208DFFA804C95
:10225E0080D280FA80C680D4806980F2803380106C
:10226E0080A680EA809A80A880DA80E280CA8033D5
:10227E0089828A83ECFAE493A3C8C582C8CCC5834D
:10228E00CCF0A3C8C582C8CCC583CCDFE9DEE7801D
:10229E000D89828A83E493A3F608DFF9ECFAA9F09C
:1022AE00EDFB2289828A83ECFAE0A3C8C582C8CCF2
:1022BE00C583CCF0A3C8C582C8CCC583CCDFEADE0B
:1022CE00E880DB89828A83E493A3F208DFF980CC6D
:1022DE0088F0EF60010E4E60C388F0ED2402B40466
:1022EE000050B9F582EB2402B4040050AF2323450D
:0622FE00822390225E73B2
:10230400BB010689828A83E0225002E722BBFE02D7
:09231400E32289828A83E493220A
:10231D00BB010CE58229F582E5833AF583E0225075
:10232D0006E92582F8E622BBFE06E92582F8E222BF
:0D233D00E58229F582E5833AF583E49322D9
:10234A00C2D5EC30E709B2D5E4C39DFDE49CFCEEAE
:10235A0030E715B2D5E4C39FFFE49EFE12242FC3D3
:10236A00E49DFDE49CFC800312242F30D507C3E4CE
:06237A009FFFE49EFE221D
:10238000C5F0F8A3E028F0C5F0F8E58215827002E8
:062390001583E038F02285
:10239600E88FF0A4CC8BF0A42CFCE98EF0A42CFCE6
:1023A6008AF0EDA42CFCEA8EF0A4CDA8F08BF0A464
:1023B6002DCC3825F0FDE98FF0A42CCD35F0FCEBC3
:1023C6008EF0A4FEA9F0EB8FF0A4CFC5F02ECD3988
:0F23D600FEE43CFCEAA42DCE35F0FDE43CFC22F5
:0C23E500ECF0A3EDF0A3EEF0A3EFF0226B
:101EA900E508240DF582E43400F583E00508229065
:101EB900000A30070390000DE475F0011224840232
:101EC90023042000E97F2ED2008018EF540F2490BC
:101ED900D43440D4FF30040BEF24BFB41A005003AC
:101EE9002461FFE50960021509050CE50C7002057E
:101EF9000B30070E90000AE475F001122484EF02FA
:101F0900241D0232627403D2078003E4C207F50874
:101F190090000A12249BE4F509F50BF50CE509601C
:101F2900077F20121EEC80F5750AFFC201C200C2AC
:101F390002C203C205C206C208121EB8FF700D30E4
:101F490007057F00121EFDAF0CAE0B22B4255FC240
:101F5900D5C204121EB8FF24D0B40A00501A75F075
:101F69000A780930D50508B6FF0106C6A426F62069
:101F7900D5047002D20380D924CFB41A00EF5004DB
:101F8900C2E5D2040220FED20180C6D20080C0D2AE
:101F99000280BCD2D580BAD20580B47F20121EEC53
:101FA9002002077401B5090040F1121EA9FF121E93
:101FB900EC021F26D208D2068095121EA9FB121E1A
:101FC900A9FA121EA9F94A4B700679CF7A217BFF2B
:101FD90020022EE509602A7E008E82758300122375
:101FE9001D60060EEE650A70F0C2D5EBC0E0EAC0CE
:101FF900E0E9C0E0EE122145D0E0F9D0E0FAD0E006
:10200900FB122304FF60AAEBC0E0EAC0E0E9C0E0EC
:10201900121EECD0E02401F9D0E03400FAD0E0FB44
:10202900E50A0460DCD50AD980877BFF7A217941EA
:10203900D202809C791080027908C206C208800801
:10204900D2D5790A8004790AC2D5E50A047002F565
:102059000AE4FAFDFEFF121EA9FC7B0820011312F7
:102069001EA9FD7B1030000A121EA9FE121EA9FF2F
:102079007B20EC3382D592D55013C3E43000069F00
:10208900FFE49EFEE42001039DFDE49CFCE4CBF803
:10209900C201EC700CCFCECDCCE824F8F870F380F7
:1020A90017C3EF33FFEE33FEED33FDEC33FCEB33B7
:1020B900FB994002FB0FD8E9EB300105F8D0E0C4E9
:1020C90048B201C0E00AEC4D4E4F78207B0070C247
:1020D900EAB50A0040BCC0E0122147D0F0D0E020A8
:1020E9000104C4C0E0C4B201C0F0121ED5D0F0D5BD
:1020F900F0EB021F261224A41FC353203D581F943E
:102109004C1F904220414F2049442049491FA9436F
:08211900204F5520334620330E
:102121004520334721EF501F982D1F9C2E1FBF2B99
:102131001FA0231FBD2021D82A1F584800001FB708
:102141003F3F3F00790AA2D5200314300509B91099
:10215100020404B9080104A2D5200602500104209A
:1021610002689202B509005034C0E07F20300319A3
:102171007F30A20272067205500F12219EC202C266
:1021810006C205C2087F30800F300503E9C0E012A6
:102191001EEC300503D0E0F9D0E0B509CC300517CD
:1021A1007F30B9100C121EEC7F583004077F788005
:1021B10003B90803121EEC3002057F2D021EEC7FCD
:1021C100202008F87F2B2006F322920280CF286E70
:1021D100756C6C2900D201121EA93001F8C2017878
:1021E1000930D50108F6021F582D50434958121ED7
:1021F100A92403B405004001E49021EA93121EDDF5
:0D220100743A121EDDD20375090402203D5F
:10332A00E4FFFE122304600C0FEF70010E09E9702E
:05333A00F20A80EF2201
:1023F100EF4E6012EF60010EEDBB010B89828A8303
:10240100F0A3DFFCDEFA2289F05007F709DFFCA90F
:0C241100F022BBFEFCF309DFFCA9F02266
:102E740002333FE493A3F8E493A34003F68001F202
:102E840008DFF48029E493A3F85407240CC8C3335F
:102E9400C4540F4420C8834004F456800146F6DF2E
:102EA400E4800B01020408102040809030FBE47E93
:102EB400019360BCA3FF543F30E509541FFEE49323
:102EC400A360010ECF54C025E060A840B8E493A3EA
:102ED400FAE493A3F8E493A3C8C582C8CAC583CA15
:102EE400F0A3C8C582C8CAC583CADFE9DEE780BECD
:01314B000083
:10241D00BB010689828A83F0225002F722BBFE019E
:02242D00F32298
:10242F00BC000BBE0029EF8DF084FFADF022E4CC91
:10243F00F875F008EF2FFFEE33FEEC33FCEE9DEC5A
:10244F00984005FCEE9DFE0FD5F0E9E4CEFD22EDA0
:10245F00F8F5F0EE8420D21CFEADF075F008EF2FEA
:10246F00FFED33FD4007985006D5F0F222C398FDDB
:05247F000FD5F0EA2278
:10248400F8E0FBA3A3E0F925F0F0E58215827002E1
:072494001583E0FA38F02285
:09249B00EBF0A3EAF0A3E9F02242
:1024A400D083D082F8E4937012740193700DA3A3C7
:1024B40093F8740193F5828883E4737402936860DB
:0624C400EFA3A3A380DFDB
:10326200EFB40A07740D12326D740A309811A899DE
:10327200B8130CC2983098FDA899C298B811F630CC
:0732820099FDC299F59922A4
:00000001FF
