:04285B0041006E00CA
:1028F9001228A0C2C41229D7D2C412200074FFFF23
:09290900FE121FCA12257080FBAA
:0300230002278B26
:0D278B00C0E0C083C082C0D075D000C00780
:10279800309902C299C298AF99EF647F7011900086
:1027A8006EE004F0E0640A700BF043C760800590A7
:0427B800006EE4F0DB
:0B27BC00D007D0D0D082D083D0E03214
:10296A0020A50D7F0A7E001228C120A50330A5FDEF
:01297A00223A
:10297B0020A40D7F0A7E001228C120A40330A4FDE1
:01298B002229
:10292B0020CC127F0A7E001228C120CC0643C72080
:06293B00022A23D2A222B1
:1028A000438780759850438E40538EFE53890F4363
:1028B0008920758BE6758DE6C2ABD28ED2AFD2ACD5
:0128C00022F5
:10291200122345FF642160108F99740129F9E43A6A
:09292200FA3099FDC29980E82207
:032A2300C2A2222A
:1025E200E4900008F0900008E0C39408748094809E
:1025F200505490000A7402F020C00A90000AE0FFD2
:1026020004F0EF70F3121FFAE4900009F030C002F8
:1026120004F090000A7402F030C00A90000AE0FF51
:1026220004F0EF70F390000AE06401601990005D1D
:10263200E025E0FFF0900009E04F90005DF090008F
:0626420008E004F0809F97
:01264800226F
:101F2500C2C01229ACD2C01229F9D2C030C002E118
:101F3500C97F0220C006AE070FEE70F77F0230C0E2
:101F450006AE070FEE70F71225E290005DE09000F7
:101F550004F01225E290005DE0900005F01225E204
:101F650090005DE0900006F01225E290005DE090A3
:101F75000007F01225E290005DE0FFD2C090000757
:101F8500E0FD900006E02DFDE433FC900004E0F94F
:101F95007A002DFDEA3CFCA3E0FE2DFDEA3CFCEFBA
:101FA500B50521EAB5041D90005EE9F0A3EEF090B9
:101FB5000006E0900065F0900007E0900066F09064
:041FC500005CEFF0DD
:011FC90022F5
:10264900122345900067F090000112235E90006804
:10265900F090000212235E900069F09000031223AB
:102669005E90006AF090000412235E90006BF0C245
:10267900ACE4FFEFC3940574809480501574672F00
:10268900F582E43400F583E0F5993099FDC2990F9C
:0426990080E1D2AC5E
:01269D00221A
:10285F0047004E80828486888A8C47004700000894
:0E286F000101012047005581838587898B8DEB
:10274400C2C700C2C500D2C700E4FEEEC394087439
:102754008094805011EF1392C6EFC313FFD2C500CB
:10276400C2C5000E80E5E4FEEEC394087480948034
:102774005011ED1392C6EDC313FDD2C500C2C500BE
:062784000E80E5C2C70053
:01278A00222C
:10269E00C2C700C2C500D2C700E4FDEDC3940874E2
:1026AE008094805011EF1392C6EFC313FFD2C50072
:1026BE00C2C5000D80E500E4FDEDC394087480945E
:1026CE0080501AA2C6E433FFC43333335480FCEE79
:1026DE00C3134CFED2C500C2C5000D80DCC2C700BC
:0226EE00AF0635
:0126F00022C7
:1027C700E4FD7F8E122744E4FCECC39407748094E5
:1027D70080501E744E2CF582E43400F583E0FF74BC
:1027E700472CF582E43400F583E0FD1227440C8082
:0827F700D87D807F8E0227448B
:10283000E4FBEBC3940774809480501E74552BF511
:1028400082E43400F583E0FF12269E74472BF58264
:0A285000E43400F583EFF00B80D8AC
:01285A00225B
:082A16001227C712283080FBD3
:10002600447265616D697820697320736F20736F00
:100036002062656175746966756C000000000000D9
:1000460000000000000000000000000000000000AA
:10005600000000000000000000000000000000009A
:10006600000000000000000000000000000000008A
:10007600000000000000000000000000000000007A
:10008600000000000000000000000000000000006A
:10009600000000000000000000000000000000005A
:1000A600000000000000000000000000000000004A
:1000B600000000000000000000000000000018081A
:1000C600C80808000000000000000000007F606013
:1000D600606060606060E06020000000000000007A
:1000E60000000000000000000000000000181818C2
:1000F60010101000000000000000000000000000CA
:100106000000000808080C0C0C00000000000000AD
:10011600000000000000000000000000006C381025
:10012600007CC6701CC67C00000000000010386C05
:1001360000780C7CCCCC76000000000000000000AB
:10014600007CC670C0C67C000000000000000000F5
:10015600006C967CD0D66C00000000000000000009
:10016600007CC60606C67C00000000000000386C55
:10017600C6C6FEC6C66C38000000000000000000BF
:100186001038286C44C6C6000000000000000000BD
:10019600007CC606FEC67C000000000000000000D1
:1001A60000DC666666F60606663C000000006C38F3
:1001B600F80C7EC6C6C67C000000000000000E1BC0
:1001C60018181818181818D8700000000000000039
:1001D600FE860C180C0606C67C0000000076DC00C5
:1001E60000780C7CCCCC7600000000000076DC00A9
:1001F600007CC60606C67C00000000000076DC0017
:1002060000DC66666666660000000000000000000E
:100216000076999F98996F0000000000000000008A
:100226000000000000000C060600000000000000B0
:1002360000000000003C66663C0000000000000074
:100246000000000000000000000000000000183C54
:100256003C3C1818001818000000000000C6C6C66E
:1002660044000000000000000000000000006C6C6C
:10027600FE6C6C6CFE6C6C000000000018187CC6EE
:10028600C2C07C0686C67C1818000000000000006C
:10029600C3C60C183063C300000000000000386CB1
:1002A6006C3876DCCCCC76000000000000303030B4
:1002B6006000000000000000000000000000183090
:1002C6006060606060301800000000000000180CDC
:1002D60006060606060C18000000000000000000D6
:1002E6006C38FE386C0000000000000000000018AA
:1002F60018187E1818180000000000000000000002
:10030600000000001818183000000000000000006F
:100316000000FE00000000000000000000000000D9
:10032600000000000018180000000000000002068F
:100336000C183060C08000000000000000007CC681
:10034600CEDEF6E6C6C67C000000000000001838C7
:100356007818181818187E000000000000007CC6E7
:10036600060C183060C6FE000000000000007CC6C7
:1003760006063C0606C67C000000000000000C1CB9
:100386003C6CCCFE0C0C1E00000000000000FEC001
:10039600C0C0FC0606C67C000000000000003860F5
:1003A600C0C0FCC6C6C67C00000000000000FEC639
:1003B600060C1830303030000000000000007CC60B
:1003C600C6C67CC6C6C67C000000000000007CC60F
:1003D600C6C67E06060C7800000000000000001865
:1003E60018000000181800000000000000000018A7
:1003F6001800000018183000000000000000060C6D
:1004060018306030180C06000000000000000000E4
:10041600007E00007E00000000000000000060304A
:10042600180C060C183060000000000000007CC6A6
:10043600C60C1818001818000000000000007CC642
:10044600C6DEDEDEDCC07C000000000000001038E6
:100456006CC6C6FEC6C6C600000000000000FC66EC
:1004660066667C666666FC000000000000003C666E
:10047600C2C0C0C0C2663C00000000000000F86CAC
:1004860066666666666CF800000000000000FE66A0
:10049600626878686266FE00000000000000FE6682
:1004A600626878686060F0000000000000003C664A
:1004B600C2C0C0DEC6663A00000000000000C6C624
:1004C600C6C6FEC6C6C6C6000000000000003C1830
:1004D6001818181818183C000000000000001E0C20
:1004E6000C0C0C0CCCCC7800000000000000E6667A
:1004F6006C6C786C6C66E600000000000000F06032
:10050600606060606266FE00000000000000C6EEEB
:10051600FED6C6C6C6C6C600000000000000C6E677
:10052600F6FEDECEC6C6C600000000000000386C2F
:10053600C6C6C6C6C66C3800000000000000FC66D1
:1005460066667C606060F0000000000000007CC60B
:10055600C6C6D6DE7C0C0E00000000000000FC665D
:1005660066667C6C6666E6000000000000007CC6DD
:10057600C660380CC6C67C000000000000007E5A2B
:100586001818181818183C00000000000000C6C60D
:10059600C6C6C6C6C6C67C00000000000000C6C6A9
:1005A600C6C6C6C66C381000000000000000C6C6ED
:1005B600C6C6C6D6FEEEC600000000000000C6C6CF
:1005C600C66C386CC6C6C600000000000000C6C671
:1005D600C66C383838387C00000000000000FEC6C3
:1005E6008C183060C2C6FE000000000000003C30DF
:1005F6003030303030303C0000000000000080C059
:10060600E070381C0E0602000000000000003C0CE2
:100616000C0C0C0C0C0C3C000000000010386CC6D6
:1006260000000000000000000000000000000000C4
:100636000000000000000000FE000000003030183E
:1006460000000000000000000000000000000000A4
:1006560000780C7CCCCC7600000000000000E06046
:1006660060786C666666DC00000000000000000032
:10067600007CC6C0C0C67C000000000000001C0C48
:100686000C3C6CCCCCCC76000000000000000000D6
:10069600007CC6FEC0C67C000000000000001C36C0
:1006A60032307C303030780000000000000000005E
:1006B6000076CCCCCC7C0CCC780000000000E0604E
:1006C600606C76666666E60000000000000018189A
:1006D6000038181818183C00000000000000060634
:1006E600000E0606060666663C0000000000E06096
:1006F60060666C786C66E600000000000000381842
:100706001818181818183C00000000000000000017
:100716000044FED6D6D6D600000000000000000039
:1007260000DC6666666666000000000000000000E9
:10073600007CC6C6C6C67C000000000000000000A3
:1007460000DC6666667C6060F00000000000000069
:100756000076CCCCCC7C0C0C1E0000000000000007
:1007660000DC76666060F00000000000000000001B
:10077600007CC6701CC67C00000000000000103023
:1007860030FC303030361C00000000000000000055
:1007960000CCCCCCCCCC76000000000000000000E1
:1007A60000C6C6C66C38100000000000000000003D
:1007B60000C6C6C6D6FE6C000000000000000000A1
:1007C60000C66C38386CC60000000000000000004F
:1007D60000C6C6C6C67E060C7800000000000000F3
:1007E60000FECC183066FE000000000000000E1867
:1007F6001818701818180E000000000000001818CD
:1008060018180018181818000000000000007018CA
:1008160018180E181818700000000000000076DC8A
:1008260000000000000000000000000000000000C2
:1008360000000000000000000000000000000000B2
:1008460000000000000000000000000000000000A2
:100856000000000000000000000000000000000092
:10000300E4FDFCC3ED9FEC9E5015E4FBFA0BBB0033
:0F001300010AEB64FA4A70F50DBD00010C80E4A0
:0100220022BB
:10287E007E08EED39400748094804015EF30E70408
:10288E00D2928002C292C291D291EF25E0FF1E80B9
:01289E00E158
:01289F002216
:0A29EF00C290C29312287ED29022FB
:052956001229EF7F01D2
:0E295B00E4900046F0C290D29312287ED290F3
:01296900224B
:0428DF00AD07AC068F
:1028E300E490003DF0C290D293ECFF12287EAF0536
:0528F30012287ED290C6
:0128F80022BD
:0E29BB00C2947F647E00120003D294020003D7
:102000001229BB7F111229EF7F787E001200037F17
:10201000B11229567F2C12295B7F2D12295B7FB2CA
:102020001229567F2C12295B7F2D12295B7FB31258
:1020300029567F2C12295B7F2D12295B7F011229E3
:102040005B7F2C12295B7F2D12295B7FB41229EF55
:102050007F0712295B7FC01229EF7FA212295B7FC5
:102060000212295B7F8412295B7FC11229EF7FC591
:1020700012295B7FC21229EF7F0A12295BE4FF124B
:10208000295B7FC31229EF7F8A12295B7F2A1229DD
:102090005B7FC41229EF7F8A12295B7FEE12295BD6
:1020A0007FC51229EF7F0E12295B7F361229EF7F41
:1020B000C012295B7FE01229EF7F0F12295B7F1A84
:1020C00012295B7F0F12295B7F1812295B7F2F1269
:1020D000295B7F2812295B7F2012295B7F2212292E
:1020E0005B7F1F12295B7F1B12295B7F2312295BF9
:1020F0007F3712295BE4FF12295B7F0712295B7F80
:102100000212295B7F1012295B7FE11229EF7F0FFA
:1021100012295B7F1B12295B7F0F12295B7F17122D
:10212000295B7F3312295B7F2C12295B7F291229BF
:102130005B7F2E12295B7F3012295B7F3012295B77
:102140007F3912295B7F3F12295BE4FF12295B7FF5
:102150000712295B7F0312295B7F1012295B7F2AFC
:102160001229EFE4FF12295B7F0212295BE4FF12C0
:10217000295B7F8212295B7F2B1229EFE4FF122952
:102180005B7F0312295BE4FF12295B7F8312295BCB
:102190007FF01229567FF61229EFE4FF12295B7FA8
:0E21A0003A1229EF7F0512295B7F290229EFF1
:1024FD00EEF0A3EFF0900043E4F0A3749FF0A3740B
:0B250D0002F07B7F7A00E4FDFCFFFE83
:1025180090003DEEF0A3EFF0900045E0F964027002
:10252800028005E96401703B7F2A1229EF7F0212BD
:10253800295B90003DA3E02402FF12295B7F021271
:10254800295BEB2402FF12295B7F2B122956ED042D
:10255800FF12295B7F0112295B900043A3E004FF6F
:0825680012295B7F2C0229EF10
:1026F100900037EEF0A3EFF090003BEAF0A3EBF08F
:10270100900039ECF0A3EDF0900037E0FAA3E0FF80
:10271100AE02C006C0072401FBE43AFAA3E0FEA31F
:10272100E02401FFE43E900043F0A3EFF0A3740224
:10273100F0D007D00612251890003BE0FEA3E0FF81
:032741000228DF8C
:031FCA0090000480
:101FCD001224FDE4FBEBC394A074809480501DE4B7
:101FDD00FAEAC3948074809480500E900004E0FE61
:0C1FED00A3E0FF1228DF0A80E80B80D977
:011FF90022C5
:1021AE00900004EEF0A3EFF0A3ECF0A3EDF0A3EBA0
:0721BE00F0A3EAF0A3E9F031
:1021C500E4A3F0A3F0900008E0FBA3E0FAA3E0F994
:1021D50012294190000BE0FCA3E0FDC39FEC9E405B
:1021E500026144900008E0FBA3E0FAA3E0F98D82C8
:1021F5008C8312235EFFC394A174809480400A905F
:102205000035EFF0E4A3F06132900008E0FBA3E0B5
:10221500FAA3E0F9A3E0FEA3E0F5828E8312235E24
:10222500FFE4FCFDFE7B10FAF9F81223C1900011C2
:10223500122410E4FBFA900011A3A3E0FEA3E02B07
:10224500FFEE3AFE74412FF58274003EF583E49368
:10225500FF74152BF58274003AF583EFF00BBB0084
:10226500010AEB64104A70CEE490000FF0A3F0E48D
:1022750090000DF0A3F090000DE0FEA3E0FFC394E5
:1022850008EE64809480400261117C007D08122371
:102295008B7E007480A805088006CEA2E713CE13B6
:1022A500D8F8FF90000FE0FCA3E0FD2415F582743B
:1022B500003CF583E0FB3395E05EFEEF5B4E603C52
:1022C50090000DE0FEA3E0FF900005E02FFB9000DD
:1022D50004E03EFA90000BE0FEA3E07803C333CEA2
:1022E50033CED8F92BFFEA3EFE900006E0FAA3E0D4
:1022F5002DFDEC3AFC7B007AF81226F190000EE0F9
:1023050004F0700690000DE004F0417B900010E0B1
:1023150004F0700690000FE004F0C3900010E09404
:102325001090000FE0648094805002417490000C7E
:0F233500E004F0600221CA90000BE004F021CA1E
:012344002276
:0328000090006CD9
:102803001224FDE4FBEBC394A074809480501DE478
:10281300FAEAC3948074809480500E90006CE0FEBA
:0C282300A3E0FF1228DF0A80E80B80D938
:01282F002286
:10298C007BFF7A0079267D0A7C007F0A7E0002217B
:01299C00AE8C
:0F299D00122000D2C474FFFFFE121FCA02298C41
:10104200000000000000000000000000000000009E
:1010520000000010101010101010000018180000EE
:1010620000123624480000000000000000000000CA
:10107200000000242424FE484848FE484848000056
:1010820000001038545450301814145454381010AE
:1010920000000044A4A8A8A8541A2A2A2A4400003E
:1010A20000000030484848506EA4948889760000B9
:1010B20000606020C000000000000000000000008E
:1010C2000002040808101010101010080804020092
:1010D20000402010100808080808081010204000DE
:1010E200000000001010D63838D6101000000000A2
:1010F2000000000010101010FE1010101000000070
:10110200000000000000000000000000606020C03D
:1011120000000000000000007F000000000000004E
:1011220000000000000000000000000060600000FD
:1011320000000102020404080810102020404000B0
:101142000000001824424242424242422418000057
:10115200000000107010101010101010107C000011
:101162000000003C4242420404081020427E00007B
:101172000000003C424204180402024244380000CB
:10118200000000040C14242444447E04041E0000C5
:101192000000007E40404058640202424438000091
:1011A2000000001C244040586442424224180000BF
:1011B2000000007E444408081010101010100000B7
:1011C2000000003C4242422418244242423C0000B9
:1011D2000000001824424242261A0202243800006B
:1011E200000000000000181800000000181800009D
:1011F200000000000000001000000000001010209D
:101202000000000204081020402010080402000020
:10121200000000000000FE000000FE0000000000D0
:1012220000000040201008040204081020400000C2
:101232000000003C42426202040808001818000044
:1012420000000038445AAAAAAAAAB44244380000AC
:101252000000001010182828243C444242E70000F5
:10126200000000F8444444784442424244F80000FA
:101272000000003E4242808080808042443800006C
:10128200000000F8444242424242424244F8000016
:10129200000000FC424848784848404242FC0000B6
:1012A200000000FC424848784848404040E00000C6
:1012B2000000003C44448080808E84444438000016
:1012C200000000E7424242427E42424242E70000C0
:1012D2000000007C1010101010101010107C000084
:1012E2000000003E0808080808080808080888F0F6
:1012F200000000EE444850705048484444EE00005C
:10130200000000E0404040404040404042FE0000BB
:10131200000000EE6C6C6C6C5454545454D60000B3
:10132200000000C7626252524A4A4A4646E2000040
:101332000000003844828282828282824438000025
:10134200000000FC424242427C40404040E000003B
:1013520000000038448282828282B2CA4C3806007F
:10136200000000FC4242427C4848444442E3000000
:101372000000003E4242402018040242427C00002B
:10138200000000FE92101010101010101038000013
:10139200000000E74242424242424242423C0000D6
:1013A200000000E7424244242428281810100000BC
:1013B200000000D692929292AAAA6C444444000081
:1013C200000000E7422424181818242442E70000F1
:1013D200000000EE444428281010101010380000BD
:1013E2000000007E840408081020204242FC000015
:1013F200001E1010101010101010101010101E00EF
:1014020000004040202010101008080404040202CA
:10141200007808080808080808080808080878007A
:10142200001C22000000000000000000000000007C
:10143200000000000000000000000000000000FFAB
:1014420000606020C00000000000000000000000FA
:10145200000000000000003C421E2242423F000009
:10146200000000C0404040586442424264580000BC
:10147200000000000000001C22404040221C00002E
:10148200000000060202021E22424242261B000007
:10149200000000000000003C427E4040423C000050
:1014A2000000000F1110107E10101010107C0000B0
:1014B200000000000000003E444438403C42423CF0
:1014C200000000C04040405C6242424242E70000ED
:1014D200000000303000007010101010107C00006E
:1014E2000000000C0C00001C0404040404044478F2
:1014F200000000C04040404E4850684844EE0000A2
:10150200000000701010101010101010107C00005D
:1015120000000000000000FE4949494949ED000071
:1015220000000000000000DC6242424242E700008C
:10153200000000000000003C42424242423C0000E7
:1015420000000000000000D864424242447840E0BB
:10155200000000000000001E22424242221E02073A
:1015620000000000000000EE3220202020F80000E1
:10157200000000000000003E42403C02427C0000AD
:10158200000000000010107C10101010100C000061
:1015920000000000000000C642424242463B0000FA
:1015A20000000000000000E7422424281010000080
:1015B20000000000000000D79292AAAA4444000052
:1015C200000000000000006E2418181824760000A5
:1015D20000000000000000E742242428181010E058
:1015E200000000000000007E44081010227E00006F
:1015F20000030404040404080404040404040300AF
:101602000808080808080808080808080808080858
:101612000060101010101008101010101010600050
:10162200304C4300000000000000000000000000F9
:1016320000000000000000002020202020002000E8
:1016420050505000000000005050F850F850500028
:101652002078C07028F02000C0C8102040981800E0
:1016620040A0A040A8906800302040000000000088
:101672001020404040201000402010101020400058
:1016820020A8702070A82000202020F82020200010
:101692000000000060408000000000F80000000030
:1016A2000000000000606000000810204080000080
:1016B200708898A8C88870002060202020207000C0
:1016C200708808304080F800F808103008887000F0
:1016D20010305090F8101000F880F0080888700060
:1016E200384080F088887000F808102040404000A0
:1016F2007088887088887000708888780810E00088
:101702000060600060600000006060006060800057
:1017120010204080402010000000F800F800000077
:101722004020100810204000708810202000200067
:101732007088B8A8B880780020508888F888880017
:10174200F08888F08888F000708880808088700037
:10175200F08888888888F000F88080F08080F8001F
:10176200F88080F08080800070888080B88878005F
:10177200888888F8888888007020202020207000BF
:1017820038101010109060008890A0C0A0908800BF
:10179200808080808080F80088D8A8A88888880007
:1017A2008888C8A898888800708888888888700087
:1017B200F08888F08080800070888888A89068000F
:1017C200F08888F0A0908800708880700888700087
:1017D200F8202020202020008888888888887000AF
:1017E2008888888888502000888888A8A8D8880097
:1017F2008888502050888800888850202020200027
:10180200F80810204080F800F0C0C0C0C0C0F0004E
:101812000080402010080000781818181818780066
:101822002070A82020202000002040F84020000046
:1018320020100800000000000000E0107090680016
:101842008080B0C888C8B0000000708880807000B6
:10185200080868988898680000007088F080700016
:10186200304840F04040400000007088887808F01E
:101872008080B0C8888888002000002020202000B6
:101882001000003010101060808090A0C0A098005E
:101892006020202020207000000050A8A8A8A800E6
:1018A2000000B048484848000000708888887000EE
:1018B2000000F08888F08080000078888878080826
:1018C2000000B04840404000000078807008F000FE
:1018D2004040F840404830000000909090906800EE
:1018E20000008888885020000000A8A8A8A85000FE
:1018F200000088502050880000008888986808F00E
:101902000000F8102040F8002040408040402000B5
:10191200202020002020200020101008101020007D
:10192200000040A8100000000000000000000000BD
:101932000000000000000000000000101010101055
:1019420010100000101000000012242448000000B3
:1019520000000000000000000000001212127E24AD
:1019620024247E24242400000000083C4A4A4838EB
:101972000C0A0A4A4A3C080800000044A4A8A8B07D
:10198200541A2A2A4A4400000000003048484850AD
:101992006EA4949889760000006020204000000028
:1019A20000000000000000000002040808101010EF
:1019B2001010100808040200004020101008080847
:1019C2000808081010204000000000001010D6384F
:1019D20038D61010000000000000000000080808BF
:1019E2007F0808080000000000000000000000005E
:1019F2000000000060202040000000000000000005
:101A02007E00000000000000000000000000000056
:101A120000000000606000000000020404040808E6
:101A220010101020204040000000001824424242C2
:101A32004242424224180000000000083808080808
:101A420008080808083E00000000003C424242022A
:101A520004081020427E00000000003C42420204C2
:101A620018040242423C0000000000040C0C142442
:101A720024447F04041F00000000007E40404078A0
:101A82004402024244380000000000182440405C36
:101A920062424242221C00000000007E420404080E
:101AA20008101010101000000000003C42424224B6
:101AB20018244242423C00000000003844424242A4
:101AC200463A020224180000000000000000181824
:101AD20000000000181800000000000000000010C4
:101AE2000000000000101010000000020408102086
:101AF20040201008040200000000000000007E00E8
:101B0200007E0000000000000000004020100804D9
:101B120002040810204000000000003C424262041F
:101B2200080808001818000000000038445AAAAA41
:101B3200AAAAAA5C423C0000000000101018282843
:101B4200243C444242E70000000000F84444447848
:101B52004442424244F800000000003E424280807B
:101B62008080804244380000000000F84442424233
:101B72004242424244F80000000000FC42484878D9
:101B82004848404242FC0000000000FC42484878BD
:101B92004848404040E000000000003C444480804F
:101BA200808E844444380000000000E742424242F2
:101BB2007E42424242E700000000007C10101010FA
:101BC20010101010107C00000000003E08080808E9
:101BD20008080808080888F0000000EE4448507021
:101BE2005048484444EE0000000000E040404040BD
:101BF2004040404042FE0000000000EE6C6C6C6C05
:101C02006C54545454D60000000000C76262525211
:101C12004A4A4A4646E20000000000384482828274
:101C22008282828244380000000000FC424242422A
:101C32007C40404040E00000000000384482828244
:101C4200828282B24C380600000000FC4242427C92
:101C52004848444442E300000000003E4242402023
:101C620018040242427C0000000000FE9210101094
:101C72001010101010380000000000E742424242EB
:101C820042424242423C0000000000E742424424F9
:101C92002428281810100000000000D65454545470
:101CA200546C282828280000000000E74224241849
:101CB2001818242442E70000000000EE44442828BB
:101CC20010101010103800000000007E8404080874
:101CD2001020204242FC0000001E101010101010B4
:101CE2001010101010101E000000402020201010B4
:101CF200100808040404020200780808080808080A
:101D020008080808080878000018240000000000ED
:101D120000000000000000000000000000000000C1
:101D220000000000000000FF006010000000000042
:101D32000000000000000000000000000000003869
:101D4200440C34444C36000000000000C0404058AF
:101D52006442424264580000000000000000001C7F
:101D620022404040221C0000000000000602023E09
:101D720042424242463B0000000000000000003C9C
:101D820042427E40423C0000000000000C12107CE7
:101D920010101010107C0000000000000000003E37
:101DA200444438403C42423C00000000C040405C99
:101DB2006242424242E70000000000303000007000
:101DC20010101010107C00000000000C0C00001C11
:101DD200040404040404447800000000C040404E9F
:101DE2004850704844EE00000000001070101010BF
:101DF20010101010107C000000000000000000FE17
:101E02004949494949ED000000000000000000DC9A
:101E12006242424242E70000000000000000003C33
:101E220042424242423C000000000000000000D852
:101E320064424242645840E0000000000000001A80
:101E420026424242261A020700000000000000EE6D
:101E52003220202020F80000000000000000003E98
:101E620042403C02427C0000000000000010107C56
:101E720010101010120C000000000000000000C63C
:101E820042424242463B000000000000000000EED9
:101E9200444428281010000000000000000000DB6D
:101EA200894A5A54242400000000000000000076F1
:101EB20024181818246E000000000000000000E73B
:101EC2004224241818101060000000000000007E58
:101ED20044081010227E00000003040404040404D9
:101EE2000804040404040300080808080808080891
:101EF200080808080808080800C020202020202020
:101F0200102020202020C000205A040000000000E1
:101F12000000000000000000303132333435363723
:031F22003839004B
:102570001229D7121F25122A0D74FFFFFE121FCA3F
:1025800090005EE0FF75F00A84901F1A939000009F
:10259000F0EF75F00A84E5F0901F1A93900001F0B7
:1025A0007B017A0079007D0A7C007F0A7E0012217F
:1025B000AE900065E0FF75F00A84901F1A939000BA
:1025C00002F0EF75F00A84E5F0901F1A9390000373
:1025D000F07B017A0079027D147C007F0A7E000284
:0225E00021AE2A
:011FFF0022BF
:1028C100D3EF9400EE940040147D377C00ED1D7031
:0D28D100011CED4C70F7EF1F70E61E80E358
:0128DE0022D7
:041FFA007FEEDFFE99
:011FFE0022C0
:0A29E40000007F037E7BDEFEDFFCB7
:0129EE0022C6
:082A0D007F047E1BDEFEDFFCEE
:012A1500229E
:042A1E007F06DFFE52
:012A22002291
:0929F900007F027E3CDEFEDFFCE3
:012A020022B1
:092A0300007F027E8CDEFEDFFC88
:012A0C0022A7
:0E29AC0000007F037E327D04DDFEDEFCDFFADC
:0129BA0022FA
:0D29C900007F037E707D5BDDFEDEFCDFFA2B
:0129D60022DE
:0C29D7007FF47E827D04DDFEDEFCDFFA72
:0129E30022D1
:0300000002247166
:0C247100787FE4F6D8FD7581070224B8DE
:10234500BB010689828A83E0225002E722BBFE0296
:09235500E32289828A83E49322C9
:10235E00BB010CE58229F582E5833AF583E0225034
:10236E0006E92582F8E622BBFE06E92582F8E2227E
:0D237E00E58229F582E5833AF583E4932298
:10238B00C2D5EC30E709B2D5E4C39DFDE49CFCEE6D
:10239B0030E715B2D5E4C39FFFE49EFE12241CC3A5
:1023AB00E49DFDE49CFC800312241C30D507C3E4A0
:0623BB009FFFE49EFE22DC
:1023C100E88FF0A4CC8BF0A42CFCE98EF0A42CFCBB
:1023D1008AF0EDA42CFCEA8EF0A4CDA8F08BF0A439
:1023E1002DCC3825F0FDE98FF0A42CCD35F0FCEB98
:1023F1008EF0A4FEA9F0EB8FF0A4CFC5F02ECD395D
:0F240100FEE43CFCEAA42DCE35F0FDE43CFC22C9
:0C241000ECF0A3EDF0A3EEF0A3EFF0223F
:10294100E4FFFE122345600C0FEF70010E09E970E0
:05295100F20A80EF22F4
:10247D000228F9E493A3F8E493A34003F68001F254
:10248D0008DFF48029E493A3F85407240CC8C33360
:10249D00C4540F4420C8834004F456800146F6DF2F
:1024AD00E4800B010204081020408090285BE47E3C
:1024BD00019360BCA3FF543F30E509541FFEE49324
:1024CD00A360010ECF54C025E060A840B8E493A3EB
:1024DD00FAE493A3F8E493A3C8C582C8CAC583CA16
:1024ED00F0A3C8C582C8CAC583CADFE9DEE780BECE
:01287D00005A
:10241C00BC000BBE0029EF8DF084FFADF022E4CCA4
:10242C00F875F008EF2FFFEE33FEEC33FCEE9DEC6D
:10243C00984005FCEE9DFE0FD5F0E9E4CEFD22EDB3
:10244C00F8F5F0EE8420D21CFEADF075F008EF2FFD
:10245C00FFED33FD4007985006D5F0F222C398FDEE
:05246C000FD5F0EA228B
:00000001FF
