:0E32B7004700AF003012150605204100AE00A2
:10336A007E009000AF7410F01233497B017A007925
:0F337A00AF1231621228001232601229BC80FE9D
:030023000231F4B3
:0D31F400C0E0C083C082C0D075D000C0070D
:10320100309902C299C298AF99EF647F7011900012
:10321100AEE004F0E0640A700BF043C760800590F3
:0432210000AEE4F027
:0B322500D007D0D0D082D083D0E032A0
:0C34550025303264003230253032640033
:012FFD0022B1
:1033EE0020A50D7F0A7E001233A720A50330A5FD70
:0133FE0022AC
:10180000E490006DF0A3F0A3F0A3F0A37408F0E45B
:10181000A3F0A3F0A3F0A3F0A3F0A37414F0A3E447
:10182000F0A37406F0A3E4F0A3740FF020A4157FD6
:101830000A7E001233A720A40890006D7401F0D234
:101840000930A4FD200902E11F90006DE0640160F1
:1018500002216020A5797F0AFE1233A720A570908F
:101860000071E004F07006900070E004F0900070E9
:10187000E07004A3E064197008900070F0A374088D
:10188000F07F011225417E007F0A7D207B017A00D6
:10189000797C12246890004874FFF0A37434F0A39C
:1018A0007455F0900070E0FFA3E090004BCFF0A3E0
:1018B000EFF07B017A00797C121F857B017A007939
:1018C0007C7D027C007F017E00122B6030A5FD2014
:1018D000CC787F0A7E001233A720CC6E900071E096
:1018E00024FFF0900070E034FFF0E0B4FF0EA3E0BE
:1018F000B4FF09900070E4F0A37408F07F01122592
:10190000417E007F0A7D207B017A00797C12246869
:1019100090004874FFF0A37434F0A37455F0900065
:1019200070E0FFA3E090004BCFF0A3EFF07B017AD3
:1019300000797C121F857B017A00797C7D027C0016
:101940007F017E00122B6030CCFD20A4137F0A7E25
:10195000001233A720A40690006D7402F030A4FD9D
:1019600090006DE064026002417720A5797F0AFE55
:101970001233A720A570900073E004F07006900069
:1019800072E004F0900072E07004A3E0643D70081F
:10199000900072F0A3741EF07F021225417E007F3A
:1019A0000A7D207B017A00797C12246890004874BB
:1019B000FFF0A37434F0A37455F0900072E0FFA31D
:1019C000E090004BCFF0A3EFF07B017A00797C121E
:1019D0001F857B017A00797C7D027C007F327E004E
:1019E000122B6030A5FD20CC787F0A7E001233A731
:1019F00020CC6E900073E024FFF0900072E034FF82
:101A0000F0E0B4FF0EA3E0B4FF09900072E4F0A38D
:101A1000741EF07F021225417E007F0A7D207B012B
:101A20007A00797C12246890004874FFF0A3743423
:101A3000F0A37455F0900072E0FFA3E090004BCF4C
:101A4000F0A3EFF07B017A00797C121F857B017A8D
:101A500000797C7D027C007F327E00122B6030CCCE
:101A6000FD20A4137F0A7E001233A720A406900055
:101A70006D7403F030A4FD90006DE06403600261BA
:101A80008C20A5797F0AFE1233A720A570900075DF
:101A9000E004F07006900074E004F0900074E070D0
:101AA00004A3E0643D7008900074F0A3741EF07FFE
:101AB000031225417E007F0A7D207B017A00797C1C
:101AC00012246890004874FFF0A37434F0A3745596
:101AD000F0900074E0FFA3E090004BCFF0A3EFF094
:101AE0007B017A00797C121F857B017A00797C7DED
:101AF000027C007F667E00122B6030A5FD20CC7634
:101B00007F0A7E001233A720CC6C900075E024FF82
:101B1000F0900074E034FFF0E0B4FF0CA3E0B4FFF9
:101B200007E4900074F0A3F07F031225417E007F4C
:101B30000A7D207B017A00797C1224689000487429
:101B4000FFF0A37434F0A37455F0900074E0FFA389
:101B5000E090004BCFF0A3EFF07B017A00797C128C
:101B60001F857B017A00797C7D027C007F667E0088
:101B7000122B6030CCFD20A4137F0A7E001233A705
:101B800020A40690006D7404F030A4FD90006DE078
:101B90006404600281A320A5797F0AFE1233A72086
:101BA000A570900077E004F07006900076E004F0F5
:101BB000900076E07004A3E064647008900076F012
:101BC000A37414F07F041225417E007F0A7D207BE0
:101BD000017A00797C12246890004874FFF0A374A5
:101BE00034F0A3745AF0900076E0FFA3E090004B2D
:101BF000CFF0A3EFF07B017A00797C121F857B0187
:101C00007A00797C7D287C007F017E00122B603079
:101C1000A5FD20CC787F0A7E001233A720CC6E90E1
:101C20000077E024FFF0900076E034FFF0E0B4FFAE
:101C30000EA3E0B4FF09900076E4F0A37414F07FE3
:101C4000041225417E007F0A7D207B017A00797C89
:101C500012246890004874FFF0A37434F0A3745AFF
:101C6000F0900076E0FFA3E090004BCFF0A3EFF000
:101C70007B017A00797C121F857B017A00797C7D5B
:101C8000287C007F017E00122B6030CCFD20A41345
:101C90007F0A7E001233A720A40690006D7405F021
:101CA00030A4FD90006DE064056002A1B020A5792C
:101CB0007F0AFE1233A720A570900079E004F0702F
:101CC00006900078E004F0900078E07004A3E064EF
:101CD0000D7008900078F0A37406F07F051225417E
:101CE0007E007F0A7D207B017A00797C1224689037
:101CF000004874FFF0A37434F0A37455F09000789A
:101D0000E0FFA3E090004BCFF0A3EFF07B017A005F
:101D1000797C121F857B017A00797C7D287C007F8D
:101D2000327E00122B6030A5FD20CC787F0A7E0029
:101D30001233A720CC6E900079E024FFF090007859
:101D4000E034FFF0E0B4FF0EA3E0B4FF09900078A8
:101D5000E4F0A37406F07F051225417E007F0A7D22
:101D6000207B017A00797C12246890004874FFF08F
:101D7000A37434F0A37455F0900078E0FFA3E090D2
:101D8000004BCFF0A3EFF07B017A00797C121F8526
:101D90007B017A00797C7D287C007F327E00122BCB
:101DA0006030CCFD20A40690006D7406F030A4FDD8
:101DB00090006DE064066002C1C720A5797F0AFE2D
:101DC0001233A720A57090007BE004F0700690000D
:101DD0007AE004F090007AE07004A3E064207008D8
:101DE00090007AF0A3740FF07F061225417E007FE9
:101DF0000A7D207B017A00797C1224689000487467
:101E0000FFF0A37434F0A37455F090007AE0FFA3C0
:101E1000E090004BCFF0A3EFF07B017A00797C12C9
:101E20001F857B017A00797C7D287C007F5A7E00AB
:101E3000122B6030A5FD20CC787F0A7E001233A7DC
:101E400020CC6E90007BE024FFF090007AE034FF1D
:101E5000F0E0B4FF0EA3E0B4FF0990007AE4F0A331
:101E6000740FF07F061225417E007F0A7D207B01E2
:101E70007A00797C12246890004874FFF0A37434CF
:101E8000F0A37455F090007AE0FFA3E090004BCFF0
:101E9000F0A3EFF07B017A00797C121F857B017A39
:101EA00000797C7D287C007F5A7E00122B6030CC2C
:101EB000FD20A4137F0A7E001233A720A406900001
:101EC0006D7407F030A4FD90006DE06407600201BE
:101ED00044900074A3E0900086F0900072A3E0901C
:101EE0000087F0900070A3E0900088F090007AA343
:101EF000E0900089F0900078A3E090008AF09000D4
:101F000076A3E090008CF07B017A00798612316232
:0F1F10001232601229BCE490006DF0C209014446
:011F1F00229F
:10334900438780759850438E40538EFE53890F43AF
:103359008920758BE6758DE6C2ABD28ED2AFD2AC21
:013369002241
:1017E70012237BFF642160108F99740129F9E43A71
:0917F700FA3099FDC29980E82244
:0327FD00C2A22253
:0432C5004100B7000D
:10300000E49000CAF09000CAE0C3940874809480F1
:1030100050549000CC7402F020C00A9000CCE0FF25
:1030200004F0EF70F31227F8E49000CBF030C00208
:1030300004F09000CC7402F030C00A9000CCE0FFA5
:1030400004F0EF70F39000CCE0640160199000B7D9
:10305000E025E0FFF09000CBE04F9000B7F090004B
:06306000CAE004F0809FAD
:013066002247
:10273C00E49000BCF0A3F0A3F0A3F0A3F012341DBE
:10274C00C2C01233FFD2C0123476D2C030C002E104
:10275C00F77F0220C006AE070FEE70F77F0230C085
:10276C0006AE070FEE70F71230009000B7E0900045
:10277C00BCF01230009000B7E09000BDF0123000B9
:10278C009000B7E09000BEF01230009000B7E090DF
:10279C0000BFF01230009000B7E0FF9000C0F0D204
:1027AC00C09000BFE0FD9000BEE02DFDE433FC9036
:1027BC0000BCE0F97A002DFDEA3CFCA3E0FE2DFD07
:1027CC00EA3CFCEFB50524EAB504209000B8E9F02A
:1027DC00A3EEF09000BEE09000BAF09000BFE09045
:0B27EC0000BBF09000C0E09000B6F0D1
:0127F70022BF
:1030670012237B9000C1F09000011223949000C2BC
:10307700F09000021223949000C3F09000031223F3
:10308700949000C4F09000041223949000C5F0C2FD
:10309700ACE4FFEFC3940574809480501574C12F7E
:1030A700F582E43400F583E0F5993099FDC2990F74
:0430B70080E1D2AC36
:0130BB0022F2
:1032C90047009480828486888A8C47009B81838505
:0432D90087898B8DC9
:1031AD00C2C700C2C500D2C700E4FEEEC3940874C6
:1031BD008094805011EF1392C6EFC313FFD2C50058
:1031CD00C2C5000E80E5E4FEEEC3940874809480C1
:1031DD005011ED1392C6EDC313FDD2C500C2C5004B
:0631ED000E80E5C2C700E0
:0131F30022B9
:1030BC00C2C700C2C500D2C700E4FDEDC3940874BA
:1030CC008094805011EF1392C6EFC313FFD2C5004A
:1030DC00C2C5000D80E500E4FDEDC3940874809436
:1030EC0080501AA2C6E433FFC43333335480FCEE51
:1030FC00C3134CFED2C500C2C5000D80DCC2C70094
:02310C00AF060C
:01310E00229E
:0B316200900000EBF0A3EAF0A3E9F0FE
:10316D00E4FD7F8E1231ADE4FCECC39407748094C2
:10317D0080502674942CF582E43400F583E0FF90A2
:10318D000000E0FBA3E0FAA3E0F98C827583001246
:10319D002394FD1231AD0C80D07D807F8E0231AD38
:10328C00E4FBEBC3940774809480501E749B2BF565
:10329C0082E43400F583E0FF1230BC748D2BF58290
:0A32AC00E43400F583EFF00B80D846
:0132B60022F5
:1000260000000000000000000000000000000000CA
:1000360000000000000000000000000000000000BA
:1000460000000000000000000000000000000000AA
:10005600000000000000000000000000000000009A
:10006600000000000000000000000000000000008A
:10007600000000000000000000000000000000007A
:10008600000000000000000000000000000000006A
:10009600000000000000000000000000000000005A
:1000A6000000001808C80808000000000000000052
:1000B60000007F6060606060606060E0602000005B
:1000C600000000000000000000000000000000002A
:1000D60000001818181010100000000000000000A2
:1000E60000000000000000000808080C0C0C0000CE
:1000F60000000000000000000000000000000000FA
:1001060000006C3810007CC6701CC67C0000000025
:10011600000010386C00780C7CCCCC760000000017
:100126000000000000007CC670C0C67C0000000015
:100136000000000000006C967CD0D66C0000000029
:100146000000000000007CC60606C67C0000000019
:10015600000000386CC6C6FEC6C66C38000000003B
:1001660000000000001038286C44C6C600000000DD
:100176000000000000007CC606FEC67C00000000F1
:10018600000000000000DC666666F60606663C00B7
:100196000000006C38F80C7EC6C6C67C0000000065
:1001A6000000000E1B18181818181818D870000030
:1001B6000000000000FE860C180C0606C67C000037
:1001C600000076DC0000780C7CCCCC7600000000C9
:1001D600000076DC00007CC60606C67C0000000037
:1001E600000076DC0000DC666666666600000000DD
:1001F60000000000000076999F98996F00000000AB
:1002060000000000000000000000000C06060000D0
:10021600000000000000000000003C66663C000094
:1002260000000000000000000000000000000000C8
:10023600000000183C3C3C1818001818000000008C
:100246000000C6C6C6440000000000000000000012
:100256000000006C6CFE6C6C6CFE6C6C00000000A8
:100266000018187CC6C2C07C0686C67C181800001A
:100276000000000000C3C60C183063C30000000075
:10028600000000386C6C3876DCCCCC7600000000C0
:100296000000303030600000000000000000000068
:1002A60000000018306060606060301800000000D8
:1002B600000000180C06060606060C1800000000D2
:1002C60000000000006C38FE386C000000000000E2
:1002D600000000001818187E18181800000000000A
:1002E6000000000000000000001818183000000090
:1002F60000000000000000FE0000000000000000FA
:1003060000000000000000000000181800000000B7
:1003160000000002060C183060C0800000000000DB
:100326000000007CC6CEDEF6E6C6C67C00000000F5
:1003360000000018387818181818187E00000000F9
:100346000000007CC6060C183060C6FE00000000E7
:100356000000007CC606063C0606C67C00000000BF
:100366000000000C1C3C6CCCFE0C0C1E00000000B7
:10037600000000FEC0C0C0FC0606C67C00000000EF
:100386000000003860C0C0FCC6C6C67C0000000085
:10039600000000FEC6060C183030303000000000A9
:1003A6000000007CC6C6C67CC6C6C67C000000002F
:1003B6000000007CC6C6C67E06060C78000000005B
:1003C60000000000181800000018180000000000C7
:1003D6000000000018180000001818300000000087
:1003E600000000060C18306030180C0600000000F3
:1003F6000000000000007E00007E000000000000FB
:100406000000006030180C060C1830600000000078
:100416000000007CC6C60C18180018180000000062
:100426000000007CC6C6DEDEDEDCC07C000000000C
:1004360000000010386CC6C6FEC6C6C60000000026
:10044600000000FC6666667C666666FC00000000CE
:100456000000003C66C2C0C0C0C2663C000000008E
:10046600000000F86C66666666666CF800000000C0
:10047600000000FE66626878686266FE00000000A2
:10048600000000FE66626878686060F000000000A8
:100496000000003C66C2C0C0DEC6663A000000002E
:1004A600000000C6C6C6C6FEC6C6C6C60000000018
:1004B6000000003C181818181818183C0000000016
:1004C6000000001E0C0C0C0C0CCCCC7800000000BC
:1004D600000000E6666C6C786C6C66E60000000056
:1004E600000000F060606060606266FE0000000070
:1004F600000000C6EEFED6C6C6C6C6C60000000090
:10050600000000C6E6F6FEDECEC6C6C60000000047
:10051600000000386CC6C6C6C6C66C3800000000AF
:10052600000000FC6666667C606060F0000000000B
:100536000000007CC6C6C6D6DE7C0C0E000000009D
:10054600000000FC6666667C6C6666E600000000DD
:100556000000007CC6C660380CC6C67C00000000E1
:100566000000007E5A1818181818183C00000000E1
:10057600000000C6C6C6C6C6C6C6C67C00000000C9
:10058600000000C6C6C6C6C6C66C3810000000000D
:10059600000000C6C6C6C6C6D6FEEEC600000000EF
:1005A600000000C6C6C66C386CC6C6C60000000091
:1005B600000000C6C6C66C383838387C000000001B
:1005C600000000FEC68C183060C2C6FE00000000A7
:1005D6000000003C303030303030303C000000004D
:1005E60000000080C0E070381C0E0602000000000B
:1005F6000000003C0C0C0C0C0C0C0C3C0000000029
:100606000010386CC600000000000000000000006A
:1006160000000000000000000000000000FE0000D6
:10062600000030301800000000000000000000004C
:10063600000000000000780C7CCCCC7600000000A6
:10064600000000E06060786C666666DC0000000012
:100656000000000000007CC6C0C0C67C0000000090
:100666000000001C0C0C3C6CCCCCCC7600000000CE
:100676000000000000007CC6FEC0C67C0000000032
:100686000000001C3632307C30303078000000002C
:1006960000000000000076CCCCCC7C0CCC780000AE
:1006A600000000E060606C76666666E600000000AA
:1006B60000000018180038181818183C0000000030
:1006C6000000000606000E0606060666663C0000EA
:1006D600000000E06060666C786C66E60000000072
:1006E60000000038181818181818183C00000000E8
:1006F60000000000000044FED6D6D6D6000000005A
:10070600000000000000DC66666666660000000009
:100716000000000000007CC6C6C6C67C00000000C3
:10072600000000000000DC6666667C6060F0000089
:1007360000000000000076CCCCCC7C0C0C1E000027
:10074600000000000000DC76666060F0000000003B
:100756000000000000007CC6701CC67C0000000083
:10076600000000103030FC303030361C0000000035
:10077600000000000000CCCCCCCCCC760000000001
:10078600000000000000C6C6C66C3810000000005D
:10079600000000000000C6C6C6D6FE6C00000000C1
:1007A600000000000000C66C38386CC6000000006F
:1007B600000000000000C6C6C6C67E060C78000013
:1007C600000000000000FECC183066FE00000000AD
:1007D6000000000E181818701818180E00000000F7
:1007E6000000001818181800181818180000000043
:1007F600000000701818180E181818700000000075
:1008060000000076DC000000000000000000000090
:1008160000000000000000000000000000000000D2
:1008260000000000000000000000000000000000C2
:1008360000000000000000000000000000000000B2
:1008460000000000000000000000000000000000A2
:1010F6000000000000000000F000000000000000FA
:10110600000FF000000000000000003FF8000000A3
:1011160000000000003FF800000000000000003F53
:10112600F800000000000000007FFC000000000046
:101136000000007FFC00000000000000007FFC00B3
:1011460000000000000000FFFC000000000000009E
:1011560000FFFE0000000000000000FFFE0000008F
:101166000000000001FBFE0000000000000001F38B
:10117600FF0000000000000001F3FF000000000077
:10118600000003F1FF0000000000000003E1FF8003
:1011960000000000000003E1FF80000000000000E6
:1011A60007E0FF8000000000000007C0FF8000008D
:1011B6000000000007C0FFC00000000000000FC0D4
:1011C6007FC00000000000000F807FC0000000000C
:1011D60000000F807FE00000000000000F807FE02D
:1011E6000000000000001F003FE0000000000000BB
:1011F6001F003FF00000000000001F003FF000004D
:10120600000000003E001FF00000000000003E004D
:101216001FF00000000000003E001FF80000000064
:1012260000007E000FF80000000000007C000FF8B0
:101236000000000000007C000FFC00000000000021
:10124600FC000FFC000000000000F80007FC000096
:1012560000000000F80007FE000000000001F80092
:1012660007FE000000000001F00003FE0000000081
:101276000001F00003FE000000000003F00003FF81
:10128600000000000003E00001FF00000000000372
:10129600E00001FF000000000007E00001FF800001
:1012A60000000007C00001FF800000000007C0002A
:1012B60000FF800000000007C00000FFC000000023
:1012C600000F800000FFC0000000000F8000007FBC
:1012D600C0000000000F8000007FC0000000001F5B
:1012E6008000007FE0000000001F0000003FE000DB
:1012F6000000001F0000003FE0000000003FFFFF6D
:10130600FFFFF0000000003FFFFFFFFFF0000000BE
:10131600003FFFFFFFFFF0000000007C0000001F01
:10132600F8000000007C0000001FF8000000007CB0
:101336000000001FF800000000F80000000FF80091
:10134600000000F80000000FFC00000000F800009C
:10135600000FFC00000001F80000000FFC00000078
:1013660001F000000007FE00000001F00000000789
:10137600FE00000003F000000007FE00000003E08E
:1013860000000003FF00000003E000000003FF0070
:10139600000003E000000003FF00000007E000007B
:1013A6000003FF00000007C000000001FF800000EE
:1013B60007C000000001FF8000000FC00000000110
:1013C600FF8000000F8000000000FFC000000F80BB
:1013D60000000000FFC000001F8000000000FFC0EA
:1013E60000001F8000000000FFE000001F0000005A
:1013F60000007FE000003F00000000007FE00000EA
:101406003F00000000007FF000003F0000000000E9
:101416007FF000007F80000000007FF800007F80E2
:10142600000000007FF80000FFC0000000007FFC05
:101436000003FFE000000000FFFF007FFFFF000049
:10144600003FFFFFF87FFFFF0000003FFFFFF87F30
:10145600FFFF0000003FFFFFF80000000000000053
:101466000000000000000000000000000000000076
:101476000000000000000000000000000000000066
:101486000000000000000000000000000000000056
:101496000000000000000000000000000000000046
:1014A6000000000000000000000000000000000036
:1014B6000000000000000000000000000000000026
:1014C6000000000000000000000000000000000016
:1014D6000000000000000000000000000000000006
:1014E60000000000000000000000000000000000F6
:1014F60000000000000000000000000000000000E6
:1015060000000000000000000000000000000000D5
:1015160000000000000000000000000000000000C5
:10152600000000000000000000000000000F00188E
:101536008030C0606060606020C030C030C030C0A5
:1015460030C030C030C030C030C030C030602060E5
:1015560060606030C018800F0000000000000000CE
:10156600000000000000000000000000000200066D
:10157600007E0006000600060006000600060006BD
:101586000006000600060006000600060006000625
:1015960000060006000F007FE000000000000000CB
:1015A600000000000000000000000000001F802076
:1015B600E0406080308030C030C0300030006000D5
:1015C6006000C00180030006000C00080010102017
:1015D6001040108030FFE0FFE00000000000000037
:1015E600000000000000000000000000001F006175
:1015F60080C0C0C060C060C0600060006000C00104
:10160600800F0001C00060002000300030C030C0F4
:1016160030C020C06060C01F000000000000000055
:101626000000000000000000000000000001800132
:101636008003800380058005800980118011802148
:101646008021804180C18081800180FFF00180017E
:10165600800180018001800FF00000000000000082
:10166600000000000000000000000000003FF03F06
:10167600F04000400040004000400040004F8050D5
:10168600C0606040200030003000300030C030C004
:10169600308060806060C01F000000000000000015
:1016A6000000000000000000000000000007801895
:1016B6006030602060600040004000C000CF80D8ED
:1016C600C0E060E020C030C030C030C030C0306004
:1016D600306020306038C00F80000000000000003D
:1016E600000000000000000000000000007FF07F06
:1016F600F04020C040804080800080010001000151
:10170600000200020004000400040004000C000CA7
:10171600000C000C000C000C000000000000000093
:10172600000000000000000000000000001F8030E4
:10173600C06060C030C030C030E030E02078603C2F
:10174600801F0063C0C1E0C0E080708030803080C0
:10175600308030C06060C01F000000000000000044
:10176600000000000000000000000000001F0060F4
:1017760080C040C0608020803080308030803080E3
:1017860030C070C0B061B03E300030006000600014
:1017960040C0C0C180C3003E000000000000000041
:1017A6000000000000000000000000000000000033
:1017B6000000000000000000000000000000000023
:1017C6000000000000000000000000000000000013
:1017D600006000F000F00060000000000000000063
:0117E6000002
:10000300E4FDFCC3ED9FEC9E5015E4FBFA0BBB0033
:0F001300010AEB64FA4A70F50DBD00010C80E4A0
:0100220022BB
:103305007E08EED39400748094804015EF30E70476
:10331500D2928002C292C291D291EF25E0FF1E8027
:01332500E1C6
:013326002284
:0A346C00C290C293123305D29022E1
:0533DA0012346C7F01BC
:0E33DF00E4900044F0C290D293123305D290D5
:0133ED0022BD
:0433890074FFFFFED0
:04338D00AD07AC06D6
:10339100E490003BF0C290D293ECFF123305AF05ED
:0533A100123305D2907B
:0133A6002204
:0E342C00C2947F647E00120003D2940200035B
:10280000C2C412341DD2C412342C7F1112346C7F16
:10281000787E001200037FB11233DA7F2C1233DF8F
:102820007F2D1233DF7FB21233DA7F2C1233DF7F3A
:102830002D1233DF7FB31233DA7F2C1233DF7F2D7B
:102840001233DF7F011233DF7F2C1233DF7F2D1233
:1028500033DF7FB412346C7F071233DF7FC0123452
:102860006C7FA21233DF7F021233DF7F841233DFEB
:102870007FC112346C7FC51233DF7FC212346C7F8C
:102880000A1233DFE4FF1233DF7FC312346C7F8A16
:102890001233DF7F2A1233DF7FC412346C7F8A1237
:1028A00033DF7FEE1233DF7FC512346C7F0E1233BD
:1028B000DF7F3612346C7FC01233DF7FE012346C5E
:1028C0007F0F1233DF7F1A1233DF7F0F1233DF7F68
:1028D000181233DF7F2F1233DF7F281233DF7F2080
:1028E0001233DF7F221233DF7F1F1233DF7F1B1291
:1028F00033DF7F231233DF7F371233DFE4FF1233FE
:10290000DF7F071233DF7F021233DF7F101233DFE6
:102910007FE112346C7F0F1233DF7F1B1233DF7FB6
:102920000F1233DF7F171233DF7F331233DF7F2C39
:102930001233DF7F291233DF7F2E1233DF7F301215
:1029400033DF7F301233DF7F391233DF7F3F1233C3
:10295000DFE4FF1233DF7F071233DF7F031233DF41
:102960007F101233DF7F2A12346CE4FF1233DF7FD3
:10297000021233DFE4FF1233DF7F821233DF7F2B5B
:1029800012346CE4FF1233DF7F031233DFE4FF12F3
:1029900033DF7F831233DF7FF01233DA7FF61234B6
:1029A0006CE4FF1233DF7F3A12346C7F051233DFA1
:0C29B0007F2912346C74FFFFFE022FCD53
:102F5A00EEF0A3EFF0900041E4F0749FA3F0A374A5
:0B2F6A0002F07B7FE4FDFC7A00FFFE1C
:102F750090003BEEF0A3EFF0900043E0F96402709F
:102F8500028005E96401703B7F2A12346C7F0212CE
:102F950033DF90003BA3E02402FF1233DF7F0212F0
:102FA50033DFEB2402FF1233DF7F2B1233DAED041C
:102FB500FF1233DF7F011233DF900041A3E004FFEE
:082FC5001233DF7F2C02346C93
:10310F00900035EEF0A3EFF0900039EAF0A3EBF06A
:10311F00900037ECF0A3EDF0900035E0FAA3E0FF5C
:10312F00AE02C006C0072401FBE43AFAA3E0FEA3F7
:10313F00E02401FFE43E900041F0A3EFF0A37402FE
:10314F00F0D007D006122F75900039E0FEA3E0FFF4
:03315F0002338DAB
:032FCD0090000071
:102FD000122F5AE4FBEBC394A074809480501DE43C
:102FE000FAEAC3948074809480500E900000E0FE52
:0C2FF000A3E0FF12338D0A80E80B80D9AB
:012FFC0022B2
:102B6000900002EEF0A3EFF0A3ECF0A3EDF0A3EBE6
:072B7000F0A3EAF0A3E9F075
:102B7700E4A3F0A3F0900006E0FBA3E0FAA3E0F9DA
:102B87001233C5900009E0FCA3E0FDC39FEC9E4013
:102B97000281F5900006E0FBA3E0FAA3E0F98D823D
:102BA7008C83122394FFC394A174809480400A906D
:102BB7000033EFF0E4A3F081E3900006E0FBA3E02D
:102BC700FAA3E0F9A3E0FEA3E0F5828E8312239433
:102BD700FFE4FCFDFE7B10FAF9F812240D90000FBC
:102BE70012245CE4FBFA90000FA3A3E0FEA3E02B02
:102BF700FFEE3AFE74262FF58274003EF583E493C8
:102C0700FF74132BF58274003AF583EFF00BBB00CA
:102C1700010AEB64104A70CEE490000DF0A3F0E4D3
:102C270090000BF0A3F090000BE0FEA3E0FFC3942D
:102C370008EE64809480400281C27C007D081223E4
:102C4700C17E007480A805088006CEA2E713CE13C4
:102C5700D8F8FF90000DE0FCA3E0FD2413F5827483
:102C6700003CF583E0FB3395E05EFEEF5B4E603B97
:102C770090000BE0FEA3E0FF900003E02FFB900025
:102C870002E03EFA900009E0FEA3E07803C333CEEA
:102C970033CED8F92BFFEA3EFE900004E0FAA3E01A
:102CA7002DFDEC3AFCE4FBFA12310F90000CE00426
:102CB700F0700690000BE004F0812D90000EE00408
:102CC700F0700690000DE004F0C390000EE0941041
:102CD70090000DE0648094805002812690000AE005
:0E2CE70004F06002617C900009E004F0617C62
:012CF50022BC
:102CF6009000A2EFF0A3EDF0A3EBF0A3EAF0A3E9B6
:012D0600F0DC
:102D0700E4A3F09000A4E0FBA3E0FAA3E0F9122308
:062D17007BFF7002C114F5
:102D1D007E009000AAEEF0A3EFF0642E700A9000F2
:102D2D00AAF0A3740AF0800E9000ABE024D0F090CE
:102D3D0000AAE034FFF09000A7E075F00FA4FDAC01
:102D4D00F09000A2E0FB7A002DFFEA3CFEC006C029
:102D5D0007ED2BFFEA3CCF240FFBE43FFAA3E0FD88
:102D6D007C00241FFEE433900041F0A3CEF0A37449
:102D7D0001F0D007D006122F75E49000A8F0A3F053
:102D8D009000A8E0FCA3E0FDC39440EC94005065D6
:102D9D00A3E0FEA3E07806C333CE33CED8F92DFFE2
:102DAD00EC3EFE74272FF58274153EF583E4939067
:102DBD0000ADF0E49000ACF09000ACE0C39408746A
:102DCD008094805020A3E05480648070028002744F
:102DDD00FFFFFE12338D9000ADE025E0F09000ACCA
:102DED00E004F080D39000A9E004F070939000A867
:102DFD00E004F0808B9000A7E004F09000A5E4754E
:052E0D00F0011223F7A3
:022E1200A10A13
:012E1400229B
:033230009000CD3E
:10323300122F5AE4FBEBC394A074809480501DE4D6
:10324300FAEAC3948074809480500E9000CDE0FE1F
:0C325300A3E0FF12338D0A80E80B80D945
:01325F00224C
:10326000900041E4F07446122F66E4FBEBC39446F1
:10327000748094805015E4FAEAC39480748094803A
:0B32800050061233890A80F00B80E139
:01328B002220
:10254100EF24FE6063147002A1FA147002C14B14EF
:102551007002C199147002C1EA24056002E13B9046
:102561000041E4F0A37414F0A37402F07B14122F61
:102571006EE49000CFF09000CFE0C3941474809487
:10258100804002E13BE4A3F09000D0E0C3941474D6
:10259100809480500B1233899000D0E004F080E8E1
:1025A1009000CFE004F080CE900041E4F0A37414D9
:1025B100F0A37402F07B467A00E4FDFC7F32FE1248
:1025C1002F75E49000CFF09000CFE0C39414748095
:1025D10094804002E13BE4A3F09000D0E0C3941466
:1025E10074809480500B1233899000D0E004F08005
:1025F100E89000CFE004F080CE900041E4F0A374B5
:1026010014F0A37402F07B787A00E4FDFC7F64FE91
:10261100122F75E49000CFF09000CFE0C3941474B2
:102621008094804002E13BE4A3F09000D0E0C394A9
:102631001474809480500B1233899000D0E004F020
:1026410080E89000CFE004F080CE900041E4F0A358
:10265100743CF0A37402F07B257D287C00E4122FEA
:1026610071E49000CFF09000CFE0C3942574809482
:10267100804002E13BE4A3F09000D0E0C3941474E5
:10268100809480500B1233899000D0E004F080E8F0
:102691009000CFE004F080CE900041E4F0A3743CC0
:1026A100F0A37402F07B467A007D287C007F327EA5
:1026B10000122F75E49000CFF09000CFE0C3941486
:1026C100748094805074E4A3F09000D0E0C394141B
:1026D10074809480500B1233899000D0E004F08014
:1026E100E89000CFE004F080D0900041E4F0A374C2
:1026F1003CF0A37402F07B6E7A007D287C007F5A47
:102701007E00122F75E49000CFF09000CFE0C394CB
:1027110014748094805023E4A3F09000D0E0C3941B
:102721001474809480500B1233899000D0E004F02F
:0A27310080E89000CFE004F080D0B3
:01273B00227B
:103327002552483D00546D703D003A003230002F61
:103337000030313233343536373839000000000079
:02334700000084
:102E150078C67C007D017BFF7A3379437E007F0293
:102E250012235578C87C007D017BFF7A3379457E76
:102E3500007F02122355E49000B8F09000B9F0909D
:102E450000BAF09000BBF09000B6F012273C1234A7
:102E5500489000B8E0FD75F00A8424309000C6F073
:102E6500ED75F00A84E5F02430A3F07BFF7A337921
:102E7500277D327C007F0A7E00122B607B017A0061
:102E850079C67D327C007F2A7E00122B609000BAC5
:102E9500E0FD75F00A8424309000C8F0ED75F00A65
:102EA50084E5F02430A3F07BFF7A33792C7D467CD2
:102EB500007F0A7E00122B607B017A0079C87D466F
:092EC5007C007F2A7E00022B60D4
:1029BC0078007C007D017BFF7A3379477E007F02B3
:1029CC0012235512344812328C12343A90008FE094
:1029DC00FFC4540F90333893900000F0EF540F90D5
:1029EC00333893900001F07B017A0079007D027CF2
:1029FC00007F017E00122B607BFF7A3379317D0ED4
:102A0C007C007F227E00122B60E4900000F0A3F08B
:102A1C0090008EE0FFC4540F90333893900000F078
:102A2C00EF540F90333893900001F07B017A0079CA
:102A3C00007D027C007F327E00122B607BFF7A339C
:102A4C0079317D0E7C007F507E00122B60E490006B
:102A5C0000F0A3F090008DE0FFC4540F9033389336
:102A6C00900000F0EF540F90333893900001F07BFE
:102A7C00017A0079007D027C007F667E00122B605B
:102A8C00E4900000F0A3F0900093E0FFC4540F908A
:102A9C00333893900000F0EF540F9033389390003C
:102AAC0001F07BFF7A3379337D287C007F017E0037
:102ABC00122B607B017A0079007D287C007F127ECE
:102ACC0000122B607BFF7A3379367D287C007F26C1
:102ADC007E00122B60E4900000F0A3F0900091E0D7
:102AEC00FFC4540F90333893900000F0EF540F90C4
:102AFC00333893900001F07B017A0079007D287CBB
:102B0C00007F327E00122B607BFF7A3379367D2872
:102B1C007C007F4A7E00122B60E4900000F0A3F052
:102B2C00900090E0FFC4540F90333893900000F065
:102B3C00EF540F90333893900001F07B017A0079B9
:102B4C00007D287C007F5A7E00122B60E4900000F0
:032B5C00F0A3F0F3
:012B5F002253
:1033A700D3EF9400EE940040147D6E7C00ED1D7009
:0D33B700011CED4C70F7EF1F70E61E80E367
:0133C40022E6
:0427F8007FEEDFFE93
:0127FC0022BA
:0A34610000007F037E7BDEFEDFFC2F
:01346B00223E
:08348A007F047E1BDEFEDFFC67
:013492002217
:043493007F06DFFED3
:013497002212
:09347600007F027E3CDEFEDFFC5B
:01347F00222A
:09348000007F027E8CDEFEDFFC01
:013489002220
:0E33FF0000007F037E327D04DDFEDEFCDFFA7F
:01340D00229C
:0D343A00007F037E707D5BDDFEDEFCDFFAAF
:013447002262
:0C3448007FF47E827D04DDFEDEFCDFFAF6
:013454002255
:0E340E0000007F0D7E2D7DD6DDFEDEFCDFFA98
:01341C00228D
:0E341D0000007F7A7EC17D80DDFEDEFCDFFADE
:01342B00227E
:03000000022ECEFF
:0C2ECE00787FE4F6D8FD758121022F15F5
:10228500E709F608DFFA8046E709F208DFFA803E3B
:1022950088828C83E709F0A3DFFA8032E309F60828
:1022A500DFFA8078E309F208DFFA807088828C8390
:1022B500E309F0A3DFFA806489828A83E0A3F60844
:1022C500DFFA805889828A83E0A3F208DFFA804C1E
:1022D50080D280FA80C680D4806980F280338010F5
:1022E50080A680EA809A80A880DA80E280CA80335E
:1022F50089828A83ECFAE493A3C8C582C8CCC583D6
:10230500CCF0A3C8C582C8CCC583CCDFE9DEE780A5
:102315000D89828A83E493A3F608DFF9ECFAA9F024
:10232500EDFB2289828A83ECFAE0A3C8C582C8CC7A
:10233500C583CCF0A3C8C582C8CCC583CCDFEADE93
:10234500E880DB89828A83E493A3F208DFF980CCF5
:1023550088F0EF60010E4E60C388F0ED2402B404EE
:102365000050B9F582EB2402B4040050AF23234595
:0623750082239022D573C3
:10237B00BB010689828A83E0225002E722BBFE0260
:09238B00E32289828A83E4932293
:10239400BB010CE58229F582E5833AF583E02250FE
:1023A40006E92582F8E622BBFE06E92582F8E22248
:0D23B400E58229F582E5833AF583E4932262
:1023C100C2D5EC30E709B2D5E4C39DFDE49CFCEE37
:1023D10030E715B2D5E4C39FFFE49EFE1224A6C3E5
:1023E100E49DFDE49CFC80031224A630D507C3E4E0
:0623F1009FFFE49EFE22A6
:1023F700C5F0F8A3E028F0C5F0F8E5821582700271
:062407001583E038F0220D
:10240D00E88FF0A4CC8BF0A42CFCE98EF0A42CFC6E
:10241D008AF0EDA42CFCEA8EF0A4CDA8F08BF0A4EC
:10242D002DCC3825F0FDE98FF0A42CCD35F0FCEB4B
:10243D008EF0A4FEA9F0EB8FF0A4CFC5F02ECD3910
:0F244D00FEE43CFCEAA42DCE35F0FDE43CFC227D
:0C245C00ECF0A3EDF0A3EEF0A3EFF022F3
:101F2000E5082448F582E43400F583E005082290B2
:101F30000045300703900048E475F0011224FB02CD
:101F4000237B2000E97F2ED2008018EF540F2490CD
:101F5000D43440D4FF30040BEF24BFB41A00500334
:101F60002461FFE50960021509050CE50C70020506
:101F70000B30070E900045E475F0011224FBEF02D0
:101F800024940232DE7403D2078003E4C207F5080A
:101F9000900045122512E4F509F50BF50CE50960F2
:101FA000077F20121F6380F5750AFFC201C200C2BD
:101FB00002C203C205C206C208121F2FFF700D30F5
:101FC00007057F00121F74AF0CAE0B22B4255FC251
:101FD000D5C204121F2FFF24D0B40A00501A75F086
:101FE0000A780930D50508B6FF0106C6A426F620F2
:101FF000D5047002D20380D924CFB41A00EF500464
:10200000C2E5D204022175D20180C6D20080C0D2BE
:102010000280BCD2D580BAD20580B47F20121F6363
:102020002002077401B5090040F1121F20FF121FA2
:1020300063021F9DD208D2068095121F20FB121F3B
:1020400020FA121F20F94A4B700679467A227BFF4C
:1020500020022EE509602A7E008E827583001223FD
:102060009460060EEE650A70F0C2D5EBC0E0EAC0DF
:10207000E0E9C0E0EE1221BCD0E0F9D0E0FAD0E017
:10208000FB12237BFF60AAEBC0E0EAC0E0E9C0E0FE
:10209000121F63D0E02401F9D0E03400FAD0E0FB55
:1020A000E50A0460DCD50AD980877BFF7A2179B8FC
:1020B000D202809C791080027908C206C20880088A
:1020C000D2D5790A8004790AC2D5E50A047002F5EE
:1020D0000AE4FAFDFEFF121F20FC7B082001131208
:1020E0001F20FD7B1030000A121F20FE121F20FF50
:1020F0007B20EC3382D592D55013C3E43000069F89
:10210000FFE49EFEE42001039DFDE49CFCE4CBF88B
:10211000C201EC700CCFCECDCCE824F8F870F3807F
:1021200017C3EF33FFEE33FEED33FDEC33FCEB333F
:10213000FB994002FB0FD8E9EB300105F8D0E0C471
:1021400048B201C0E00AEC4D4E4F78207B0070C2CF
:10215000EAB50A0040BCC0E01221BED0F0D0E020B9
:102160000104C4C0E0C4B201C0F0121F4CD0F0D5CD
:10217000F0EB021F9D12251B203A5320B458200B70
:102180004C20074220B84F20C04420C049202043A3
:0821900020C65520AA4620AA32
:102198004520AA47226650200F2D20132E20362BCB
:1021A800201723203420224F2A1FCF480000202E3A
:1021B8003F3F3F00790AA2D5200314300509B91022
:1021C800020404B9080104A2D52006025001042023
:1021D80002689202B509005034C0E07F203003192C
:1021E8007F30A20272067205500F122215C202C277
:1021F80006C205C2087F30800F300503E9C0E0122F
:102208001F63300503D0E0F9D0E0B509CC300517DD
:102218007F30B9100C121F637F583004077F788015
:1022280003B90803121F633002057F2D021F637F65
:10223800202008F87F2B2006F322920280CF286EF8
:10224800756C6C2900D201121F203001F8C2017888
:102258000930D50108F6021FCF2D50434958121FE7
:10226800202403B405004001E490226193121F5416
:0D227800743A121F54D2037509040220B4F9
:1033C500E4FFFE12237B600C0FEF70010E09E9701C
:0533D500F20A80EF2266
:10246800EF4E6012EF60010EEDBB010B89828A838B
:10247800F0A3DFFCDEFA2289F05007F709DFFCA998
:0C248800F022BBFEFCF309DFFCA9F022EF
:102EDA0002336AE493A3F8E493A34003F68001F271
:102EEA0008DFF48029E493A3F85407240CC8C333F9
:102EFA00C4540F4420C8834004F456800146F6DFC8
:102F0A00E4800B01020408102040809032B7E47E6E
:102F1A00019360BCA3FF543F30E509541FFEE493BC
:102F2A00A360010ECF54C025E060A840B8E493A383
:102F3A00FAE493A3F8E493A3C8C582C8CAC583CAAE
:102F4A00F0A3C8C582C8CAC583CADFE9DEE780BE66
:0132DD0000F0
:10249400BB010689828A83F0225002F722BBFE0127
:0224A400F32221
:1024A600BC000BBE0029EF8DF084FFADF022E4CC1A
:1024B600F875F008EF2FFFEE33FEEC33FCEE9DECE3
:1024C600984005FCEE9DFE0FD5F0E9E4CEFD22ED29
:1024D600F8F5F0EE8420D21CFEADF075F008EF2F73
:1024E600FFED33FD4007985006D5F0F222C398FD64
:0524F6000FD5F0EA2201
:1024FB00F8E0FBA3A3E0F925F0F0E582158270026A
:07250B001583E0FA38F0220D
:09251200EBF0A3EAF0A3E9F022CA
:10251B00D083D082F8E4937012740193700DA3A34F
:10252B0093F8740193F5828883E473740293686063
:06253B00EFA3A3A380DF63
:1032DE00EFB40A07740D1232E9740A309811A899E6
:1032EE00B8130CC2983098FDA899C298B811F63050
:0732FE0099FDC299F5992228
:00000001FF
