:0E33240047008200301215060520410081008E
:1032CA001233B6123230900060E05480FFC41313F8
:1032DA00135401640170097B017A00798212316208
:0E32EA001228001232F81229BC12180080FBC4
:030023000231F4B3
:0D31F400C0E0C083C082C0D075D000C0070D
:10320100309902C299C298AF99EF647F7011900012
:1032110081E004F0E0640A700BF043C76080059020
:043221000081E4F054
:0B322500D007D0D0D082D083D0E032A0
:0C34A100253032640032302530326400E7
:0134E40022C5
:10343A0020A50D7F0A7E001233F520A50330A5FDD5
:01344A00225F
:10180000E4900000F0A3F0A3F0A3F0A37408F0E4C8
:10181000A3F0A3F0A3F0A3F0A3F0A37414F0A3E447
:10182000F0A37406F0A3E4F0A3740FF020A4157FD6
:101830000A7E001233F520A4089000007401F0D253
:101840000030A4FD200002E13D900000E064016052
:1018500002216020A5797F0AFE1233F520A5709041
:101860000004E004F07006900003E004F090000330
:10187000E07004A3E064197008900003F0A37408FA
:10188000F07F0112255F7E007F057D207B017A00BD
:10189000790F12248690001E74FFF0A37434F0A315
:1018A00074A1F0900003E0FFA3E0900021CFF0A32B
:1018B000EFF07B017A00790F121FA37B017A007988
:1018C0000F7D027C007F017E00122B6030A5FD2081
:1018D000CC787F0A7E001233F520CC6E900004E0B5
:1018E00024FFF0900003E034FFF0E0B4FF0EA3E02B
:1018F000B4FF09900003E4F0A37408F07F011225FF
:101900005F7E007F057D207B017A00790F1224869F
:1019100090001E74FFF0A37434F0A374A1F0900043
:1019200003E0FFA3E0900021CFF0A3EFF07B017A6A
:1019300000790F121FA37B017A00790F7D027C00D2
:101940007F017E00122B6030CCFD20A4137F0A7E25
:10195000001233F520A4069000007402F030A4FDBC
:10196000900000E064026002417720A5797F0AFEC2
:101970001233F520A570900006E004F07006900088
:1019800005E004F0900005E07004A3E0643D7008F9
:10199000900005F0A3741EF07F0212255F7E007F89
:1019A000057D207B017A00790F12248690001E7439
:1019B000FFF0A37434F0A374A1F0900005E0FFA33E
:1019C000E0900021CFF0A3EFF07B017A00790F12B5
:1019D0001FA37B017A00790F7D027C007F327E009D
:1019E000122B6030A5FD20CC787F0A7E001233F5E3
:1019F00020CC6E900006E024FFF0900005E034FF5C
:101A0000F0E0B4FF0EA3E0B4FF09900005E4F0A3FA
:101A1000741EF07F0212255F7E007F057D207B0112
:101A20007A00790F12248690001E74FFF0A374349C
:101A3000F0A374A1F0900005E0FFA3E0900021CF97
:101A4000F0A3EFF07B017A00790F121FA37B017ADC
:101A500000790F7D027C007F327E00122B6030CC3B
:101A6000FD20A4137F0A7E001233F520A406900007
:101A7000007403F030A4FD900000E0640360026194
:101A80008C20A5797F0AFE1233F520A570900008FE
:101A9000E004F07006900007E004F0900007E070AA
:101AA00004A3E0643D7008900007F0A3741EF07F6B
:101AB0000312255F7E007F057D207B017A00790F70
:101AC00012248690001E74FFF0A37434F0A374A156
:101AD000F0900007E0FFA3E0900021CFF0A3EFF02B
:101AE0007B017A00790F121FA37B017A00790F7DA9
:101AF000027C007F667E00122B6030A5FD20CC7634
:101B00007F0A7E001233F520CC6C900008E024FFA1
:101B1000F0900007E034FFF0E0B4FF0CA3E0B4FF66
:101B200007E4900007F0A3F07F0312255F7E007F9B
:101B3000057D207B017A00790F12248690001E74A7
:101B4000FFF0A37434F0A374A1F0900007E0FFA3AA
:101B5000E0900021CFF0A3EFF07B017A00790F1223
:101B60001FA37B017A00790F7D027C007F667E00D7
:101B7000122B6030CCFD20A4137F0A7E001233F5B7
:101B800020A4069000007404F030A4FD900000E052
:101B90006404600281A320A5797F0AFE1233F52038
:101BA000A57090000AE004F07006900009E004F0CF
:101BB000900009E07004A3E064647008900009F0EC
:101BC000A37414F07F0412255F7E007F057D207BC7
:101BD000017A00790F12248690001E74FFF0A3741E
:101BE00034F0A374A6F0900009E0FFA3E090002178
:101BF000CFF0A3EFF07B017A00790F121FA37B01D6
:101C00007A00790F7D287C007F017E00122B6030E6
:101C1000A5FD20CC787F0A7E001233F520CC6E9093
:101C2000000AE024FFF0900009E034FFF0E0B4FF88
:101C30000EA3E0B4FF09900009E4F0A37414F07F50
:101C40000412255F7E007F057D207B017A00790FDD
:101C500012248690001E74FFF0A37434F0A374A6BF
:101C6000F0900009E0FFA3E0900021CFF0A3EFF097
:101C70007B017A00790F121FA37B017A00790F7D17
:101C8000287C007F017E00122B6030CCFD20A41345
:101C90007F0A7E001233F520A4069000007405F040
:101CA00030A4FD900000E064056002A1B020A57999
:101CB0007F0AFE1233F520A57090000CE004F0704E
:101CC0000690000BE004F090000BE07004A3E064C9
:101CD0000D700890000BF0A37406F07F0512255FCD
:101CE0007E007F057D207B017A00790F122486908B
:101CF000001E74FFF0A37434F0A374A1F090000BE5
:101D0000E0FFA3E0900021CFF0A3EFF07B017A0089
:101D1000790F121FA37B017A00790F7D287C007F49
:101D2000327E00122B6030A5FD20CC787F0A7E0029
:101D30001233F520CC6E90000CE024FFF090000BE5
:101D4000E034FFF0E0B4FF0EA3E0B4FF0990000B15
:101D5000E4F0A37406F07F0512255F7E007F057D09
:101D6000207B017A00790F12248690001E74FFF008
:101D7000A37434F0A374A1F090000BE0FFA3E090F3
:101D80000021CFF0A3EFF07B017A00790F121FA39F
:101D90007B017A00790F7D287C007F327E00122B38
:101DA0006030CCFD20A4069000007406F030A4FD45
:101DB000900000E064066002C1C720A5797F0AFE9A
:101DC0001233F520A57090000EE004F0700690002C
:101DD0000DE004F090000DE07004A3E064207008B2
:101DE00090000DF0A3740FF07F0612255F7E007F38
:101DF000057D207B017A00790F12248690001E74E5
:101E0000FFF0A37434F0A374A1F090000DE0FFA3E1
:101E1000E0900021CFF0A3EFF07B017A00790F1260
:101E20001FA37B017A00790F7D287C007F5A7E00FA
:101E3000122B6030A5FD20CC787F0A7E001233F58E
:101E400020CC6E90000EE024FFF090000DE034FFF7
:101E5000F0E0B4FF0EA3E0B4FF0990000DE4F0A39E
:101E6000740FF07F0612255F7E007F057D207B01C9
:101E70007A00790F12248690001E74FFF0A3743448
:101E8000F0A374A1F090000DE0FFA3E0900021CF3B
:101E9000F0A3EFF07B017A00790F121FA37B017A88
:101EA00000790F7D287C007F5A7E00122B6030CC99
:101EB000FD20A4137F0A7E001233F520A4069000B3
:101EC000007407F030A4FD900000E0640760020198
:101ED00044900007A3E0FF123427900014EFF09025
:101EE0000005A3E0FF123427900015EFF0900003E7
:101EF000A3E0FF123427900016EFF090000DA3E04E
:101F0000FF123427900017EFF090000BA3E0FF12B0
:101F10003427900018EFF0900009A3E0FF12342757
:101F200090001AEFF07B017A0079141231621232BC
:0D1F3000F81229BCE4900000F0C20001444A
:011F3D002281
:1033B600438780759850438E40538EFE53890F4342
:1033C6008920758BE6758DE6C2ABD28ED2AFD2ACB4
:0133D60022D4
:1017E700122399FF642160108F99740129F9E43A53
:0917F700FA3099FDC29980E82244
:032FFD00C2A2224B
:0433320041008A00CC
:10300000E490009DF090009DE0C39408748094804B
:10301000505490009F7402F020C00A90009FE0FF7F
:1030200004F0EF70F31227FBE490009EF030C00232
:1030300004F090009F7402F030C00A90009FE0FFFF
:1030400004F0EF70F390009FE06401601990008A33
:10305000E025E0FFF090009EE04F90008AF09000A5
:063060009DE004F0809FDA
:013066002247
:102E1500E490008FF0A3F0A3F0A3F0A3F0123469BF
:102E2500C2C012344BD2C01234C2D2C030C002C1AB
:102E3500D07F0220C006AE070FEE70F77F0230C0CC
:102E450006AE070FEE70F712300090008AE0900092
:102E55008FF012300090008AE0900090F012300060
:102E650090008AE0900091F012300090008AE09086
:102E75000092F012300090008AE0FF900093F0D2AB
:102E8500C0900092E0FD900091E02DFDE433FC90B0
:102E9500008FE0F97A002DFDEA3CFCA3E0FE2DFD54
:102EA500EA3CFCEFB50524EAB5042090008BE9F077
:102EB500A3EEF0900091E090008DF0900092E090EC
:0B2EC500008EF0900093E0900089F078
:012ED00022DF
:10306700122399900094F09000011223B2900095DA
:10307700F09000021223B2900096F0900003122302
:10308700B2900097F09000041223B2900098F0C21B
:10309700ACE4FFEFC3940574809480501574942FAB
:1030A700F582E43400F583E0F5993099FDC2990F74
:0430B70080E1D2AC36
:0130BB0022F2
:1033360047006780828486888A8C47006E818385F1
:0433460087898B8D5B
:1031AD00C2C700C2C500D2C700E4FEEEC3940874C6
:1031BD008094805011EF1392C6EFC313FFD2C50058
:1031CD00C2C5000E80E5E4FEEEC3940874809480C1
:1031DD005011ED1392C6EDC313FDD2C500C2C5004B
:0631ED000E80E5C2C700E0
:0131F30022B9
:1030BC00C2C700C2C500D2C700E4FDEDC3940874BA
:1030CC008094805011EF1392C6EFC313FFD2C5004A
:1030DC00C2C5000D80E500E4FDEDC3940874809436
:1030EC0080501AA2C6E433FFC43333335480FCEE51
:1030FC00C3134CFED2C500C2C5000D80DCC2C70094
:02310C00AF060C
:01310E00229E
:0B31620090001BEBF0A3EAF0A3E9F0E3
:10316D00E4FD7F8E1231ADE4FCECC39407748094C2
:10317D0080502674672CF582E43400F583E0FF90CF
:10318D00001BE0FBA3E0FAA3E0F98C82758300122B
:10319D0023B2FD1231AD0C80D07D807F8E0231AD1A
:103230007E007F077D207B017A007960122486E47E
:10324000FBEBC3940774809480501E746E2BF58240
:10325000E43400F583E0FF1230BC74602BF582E4A7
:093260003400F583EFF00B80D877
:013269002242
:10342700EF75F00A84C454F0FEEF75F00A84EE25B8
:03343700F0FF2281
:1000260000000000000000000000000000000000CA
:1000360000000000000000000000000000000000BA
:1000460000000000000000000000000000000000AA
:10005600000000000000000000000000000000009A
:10006600000000000000000000000000000000008A
:10007600000000000000000000000000000000007A
:10008600000000000000000000000000000000006A
:10009600000000000000000000000000000000005A
:1000A6000000001808C80808000000000000000052
:1000B60000007F6060606060606060E0602000005B
:1000C600000000000000000000000000000000002A
:1000D60000001818181010100000000000000000A2
:1000E60000000000000000000808080C0C0C0000CE
:1000F60000000000000000000000000000000000FA
:1001060000006C3810007CC6701CC67C0000000025
:10011600000010386C00780C7CCCCC760000000017
:100126000000000000007CC670C0C67C0000000015
:100136000000000000006C967CD0D66C0000000029
:100146000000000000007CC60606C67C0000000019
:10015600000000386CC6C6FEC6C66C38000000003B
:1001660000000000001038286C44C6C600000000DD
:100176000000000000007CC606FEC67C00000000F1
:10018600000000000000DC666666F60606663C00B7
:100196000000006C38F80C7EC6C6C67C0000000065
:1001A6000000000E1B18181818181818D870000030
:1001B6000000000000FE860C180C0606C67C000037
:1001C600000076DC0000780C7CCCCC7600000000C9
:1001D600000076DC00007CC60606C67C0000000037
:1001E600000076DC0000DC666666666600000000DD
:1001F60000000000000076999F98996F00000000AB
:1002060000000000000000000000000C06060000D0
:10021600000000000000000000003C66663C000094
:1002260000000000000000000000000000000000C8
:10023600000000183C3C3C1818001818000000008C
:100246000000C6C6C6440000000000000000000012
:100256000000006C6CFE6C6C6CFE6C6C00000000A8
:100266000018187CC6C2C07C0686C67C181800001A
:100276000000000000C3C60C183063C30000000075
:10028600000000386C6C3876DCCCCC7600000000C0
:100296000000303030600000000000000000000068
:1002A60000000018306060606060301800000000D8
:1002B600000000180C06060606060C1800000000D2
:1002C60000000000006C38FE386C000000000000E2
:1002D600000000001818187E18181800000000000A
:1002E6000000000000000000001818183000000090
:1002F60000000000000000FE0000000000000000FA
:1003060000000000000000000000181800000000B7
:1003160000000002060C183060C0800000000000DB
:100326000000007CC6CEDEF6E6C6C67C00000000F5
:1003360000000018387818181818187E00000000F9
:100346000000007CC6060C183060C6FE00000000E7
:100356000000007CC606063C0606C67C00000000BF
:100366000000000C1C3C6CCCFE0C0C1E00000000B7
:10037600000000FEC0C0C0FC0606C67C00000000EF
:100386000000003860C0C0FCC6C6C67C0000000085
:10039600000000FEC6060C183030303000000000A9
:1003A6000000007CC6C6C67CC6C6C67C000000002F
:1003B6000000007CC6C6C67E06060C78000000005B
:1003C60000000000181800000018180000000000C7
:1003D6000000000018180000001818300000000087
:1003E600000000060C18306030180C0600000000F3
:1003F6000000000000007E00007E000000000000FB
:100406000000006030180C060C1830600000000078
:100416000000007CC6C60C18180018180000000062
:100426000000007CC6C6DEDEDEDCC07C000000000C
:1004360000000010386CC6C6FEC6C6C60000000026
:10044600000000FC6666667C666666FC00000000CE
:100456000000003C66C2C0C0C0C2663C000000008E
:10046600000000F86C66666666666CF800000000C0
:10047600000000FE66626878686266FE00000000A2
:10048600000000FE66626878686060F000000000A8
:100496000000003C66C2C0C0DEC6663A000000002E
:1004A600000000C6C6C6C6FEC6C6C6C60000000018
:1004B6000000003C181818181818183C0000000016
:1004C6000000001E0C0C0C0C0CCCCC7800000000BC
:1004D600000000E6666C6C786C6C66E60000000056
:1004E600000000F060606060606266FE0000000070
:1004F600000000C6EEFED6C6C6C6C6C60000000090
:10050600000000C6E6F6FEDECEC6C6C60000000047
:10051600000000386CC6C6C6C6C66C3800000000AF
:10052600000000FC6666667C606060F0000000000B
:100536000000007CC6C6C6D6DE7C0C0E000000009D
:10054600000000FC6666667C6C6666E600000000DD
:100556000000007CC6C660380CC6C67C00000000E1
:100566000000007E5A1818181818183C00000000E1
:10057600000000C6C6C6C6C6C6C6C67C00000000C9
:10058600000000C6C6C6C6C6C66C3810000000000D
:10059600000000C6C6C6C6C6D6FEEEC600000000EF
:1005A600000000C6C6C66C386CC6C6C60000000091
:1005B600000000C6C6C66C383838387C000000001B
:1005C600000000FEC68C183060C2C6FE00000000A7
:1005D6000000003C303030303030303C000000004D
:1005E60000000080C0E070381C0E0602000000000B
:1005F6000000003C0C0C0C0C0C0C0C3C0000000029
:100606000010386CC600000000000000000000006A
:1006160000000000000000000000000000FE0000D6
:10062600000030301800000000000000000000004C
:10063600000000000000780C7CCCCC7600000000A6
:10064600000000E06060786C666666DC0000000012
:100656000000000000007CC6C0C0C67C0000000090
:100666000000001C0C0C3C6CCCCCCC7600000000CE
:100676000000000000007CC6FEC0C67C0000000032
:100686000000001C3632307C30303078000000002C
:1006960000000000000076CCCCCC7C0CCC780000AE
:1006A600000000E060606C76666666E600000000AA
:1006B60000000018180038181818183C0000000030
:1006C6000000000606000E0606060666663C0000EA
:1006D600000000E06060666C786C66E60000000072
:1006E60000000038181818181818183C00000000E8
:1006F60000000000000044FED6D6D6D6000000005A
:10070600000000000000DC66666666660000000009
:100716000000000000007CC6C6C6C67C00000000C3
:10072600000000000000DC6666667C6060F0000089
:1007360000000000000076CCCCCC7C0C0C1E000027
:10074600000000000000DC76666060F0000000003B
:100756000000000000007CC6701CC67C0000000083
:10076600000000103030FC303030361C0000000035
:10077600000000000000CCCCCCCCCC760000000001
:10078600000000000000C6C6C66C3810000000005D
:10079600000000000000C6C6C6D6FE6C00000000C1
:1007A600000000000000C66C38386CC6000000006F
:1007B600000000000000C6C6C6C67E060C78000013
:1007C600000000000000FECC183066FE00000000AD
:1007D6000000000E181818701818180E00000000F7
:1007E6000000001818181800181818180000000043
:1007F600000000701818180E181818700000000075
:1008060000000076DC000000000000000000000090
:1008160000000000000000000000000000000000D2
:1008260000000000000000000000000000000000C2
:1008360000000000000000000000000000000000B2
:1008460000000000000000000000000000000000A2
:1010F6000000000000000000F000000000000000FA
:10110600000FF000000000000000003FF8000000A3
:1011160000000000003FF800000000000000003F53
:10112600F800000000000000007FFC000000000046
:101136000000007FFC00000000000000007FFC00B3
:1011460000000000000000FFFC000000000000009E
:1011560000FFFE0000000000000000FFFE0000008F
:101166000000000001FBFE0000000000000001F38B
:10117600FF0000000000000001F3FF000000000077
:10118600000003F1FF0000000000000003E1FF8003
:1011960000000000000003E1FF80000000000000E6
:1011A60007E0FF8000000000000007C0FF8000008D
:1011B6000000000007C0FFC00000000000000FC0D4
:1011C6007FC00000000000000F807FC0000000000C
:1011D60000000F807FE00000000000000F807FE02D
:1011E6000000000000001F003FE0000000000000BB
:1011F6001F003FF00000000000001F003FF000004D
:10120600000000003E001FF00000000000003E004D
:101216001FF00000000000003E001FF80000000064
:1012260000007E000FF80000000000007C000FF8B0
:101236000000000000007C000FFC00000000000021
:10124600FC000FFC000000000000F80007FC000096
:1012560000000000F80007FE000000000001F80092
:1012660007FE000000000001F00003FE0000000081
:101276000001F00003FE000000000003F00003FF81
:10128600000000000003E00001FF00000000000372
:10129600E00001FF000000000007E00001FF800001
:1012A60000000007C00001FF800000000007C0002A
:1012B60000FF800000000007C00000FFC000000023
:1012C600000F800000FFC0000000000F8000007FBC
:1012D600C0000000000F8000007FC0000000001F5B
:1012E6008000007FE0000000001F0000003FE000DB
:1012F6000000001F0000003FE0000000003FFFFF6D
:10130600FFFFF0000000003FFFFFFFFFF0000000BE
:10131600003FFFFFFFFFF0000000007C0000001F01
:10132600F8000000007C0000001FF8000000007CB0
:101336000000001FF800000000F80000000FF80091
:10134600000000F80000000FFC00000000F800009C
:10135600000FFC00000001F80000000FFC00000078
:1013660001F000000007FE00000001F00000000789
:10137600FE00000003F000000007FE00000003E08E
:1013860000000003FF00000003E000000003FF0070
:10139600000003E000000003FF00000007E000007B
:1013A6000003FF00000007C000000001FF800000EE
:1013B60007C000000001FF8000000FC00000000110
:1013C600FF8000000F8000000000FFC000000F80BB
:1013D60000000000FFC000001F8000000000FFC0EA
:1013E60000001F8000000000FFE000001F0000005A
:1013F60000007FE000003F00000000007FE00000EA
:101406003F00000000007FF000003F0000000000E9
:101416007FF000007F80000000007FF800007F80E2
:10142600000000007FF80000FFC0000000007FFC05
:101436000003FFE000000000FFFF007FFFFF000049
:10144600003FFFFFF87FFFFF0000003FFFFFF87F30
:10145600FFFF0000003FFFFFF80000000000000053
:101466000000000000000000000000000000000076
:101476000000000000000000000000000000000066
:101486000000000000000000000000000000000056
:101496000000000000000000000000000000000046
:1014A6000000000000000000000000000000000036
:1014B6000000000000000000000000000000000026
:1014C6000000000000000000000000000000000016
:1014D6000000000000000000000000000000000006
:1014E60000000000000000000000000000000000F6
:1014F60000000000000000000000000000000000E6
:1015060000000000000000000000000000000000D5
:1015160000000000000000000000000000000000C5
:10152600000000000000000000000000000F00188E
:101536008030C0606060606020C030C030C030C0A5
:1015460030C030C030C030C030C030C030602060E5
:1015560060606030C018800F0000000000000000CE
:10156600000000000000000000000000000200066D
:10157600007E0006000600060006000600060006BD
:101586000006000600060006000600060006000625
:1015960000060006000F007FE000000000000000CB
:1015A600000000000000000000000000001F802076
:1015B600E0406080308030C030C0300030006000D5
:1015C6006000C00180030006000C00080010102017
:1015D6001040108030FFE0FFE00000000000000037
:1015E600000000000000000000000000001F006175
:1015F60080C0C0C060C060C0600060006000C00104
:10160600800F0001C00060002000300030C030C0F4
:1016160030C020C06060C01F000000000000000055
:101626000000000000000000000000000001800132
:101636008003800380058005800980118011802148
:101646008021804180C18081800180FFF00180017E
:10165600800180018001800FF00000000000000082
:10166600000000000000000000000000003FF03F06
:10167600F04000400040004000400040004F8050D5
:10168600C0606040200030003000300030C030C004
:10169600308060806060C01F000000000000000015
:1016A6000000000000000000000000000007801895
:1016B6006030602060600040004000C000CF80D8ED
:1016C600C0E060E020C030C030C030C030C0306004
:1016D600306020306038C00F80000000000000003D
:1016E600000000000000000000000000007FF07F06
:1016F600F04020C040804080800080010001000151
:10170600000200020004000400040004000C000CA7
:10171600000C000C000C000C000000000000000093
:10172600000000000000000000000000001F8030E4
:10173600C06060C030C030C030E030E02078603C2F
:10174600801F0063C0C1E0C0E080708030803080C0
:10175600308030C06060C01F000000000000000044
:10176600000000000000000000000000001F0060F4
:1017760080C040C0608020803080308030803080E3
:1017860030C070C0B061B03E300030006000600014
:1017960040C0C0C180C3003E000000000000000041
:1017A6000000000000000000000000000000000033
:1017B6000000000000000000000000000000000023
:1017C6000000000000000000000000000000000013
:1017D600006000F000F00060000000000000000063
:0117E6000002
:10000300E4FDFCC3ED9FEC9E5015E4FBFA0BBB0033
:0F001300010AEB64FA4A70F50DBD00010C80E4A0
:0100220022BB
:103372007E08EED39400748094804015EF30E70409
:10338200D2928002C292C291D291EF25E0FF1E80BA
:01339200E159
:013393002217
:0A34B800C290C293123372D2902228
:053413001234B87F0136
:0E341800E490005FF0C290D293123372D29013
:013426002283
:0433D70074FFFFFE82
:0433DB00AD07AC0688
:1033DF00E4900056F0C290D293ECFF123372AF0517
:0533EF00123372D290C0
:0133F40022B6
:0E347800C2947F647E00120003D2940200030F
:10280000C2C4123469D2C41234787F111234B87F32
:10281000787E001200037FB11234137F2C1234181B
:102820007F2D1234187FB21234137F2C1234187F8C
:102830002D1234187FB31234137F2C1234187F2DCD
:102840001234187F011234187F2C1234187F2D1285
:1028500034187FB41234B87F071234187FC0123492
:10286000B87FA21234187F021234187F84123418F1
:102870007FC11234B87FC51234187FC21234B87FBA
:102880000A123418E4FF1234187FC31234B87F8A56
:102890001234187F2A1234187FC41234B87F8A1277
:1028A00034187FEE1234187FC51234B87F0E1234FC
:1028B000187F361234B87FC01234187FE01234B853
:1028C0007F0F1234187F1A1234187F0F1234187FBA
:1028D000181234187F2F1234187F281234187F20D2
:1028E0001234187F221234187F1F1234187F1B12E3
:1028F00034187F231234187F37123418E4FF12344F
:10290000187F071234187F021234187F10123418FF
:102910007FE11234B87F0F1234187F1B1234187FF6
:102920000F1234187F171234187F331234187F2C8B
:102930001234187F291234187F2E1234187F301267
:1029400034187F301234187F391234187F3F123414
:1029500018E4FF1234187F071234187F031234185A
:102960007F101234187F2A1234B8E4FF1234187F13
:1029700002123418E4FF1234187F821234187F2BAD
:102980001234B8E4FF1234187F03123418E4FF1233
:1029900034187F831234187FF01234137FF6123408
:1029A000B8E4FF1234187F3A1234B87F0512341895
:0C29B0007F291234B874FFFFFE02326A67
:102F8A00EEF0A3EFF090005CE4F0749FA3F0A3745A
:0B2F9A0002F07B7FE4FDFC7A00FFFEEC
:102FA500900056EEF0A3EFF090005EE0F964027039
:102FB500028005E96401703B7F2A1234B87F021252
:102FC5003418900056A3E02402FF1234187F021231
:102FD5003418EB2402FF1234187F2B123413ED043E
:102FE500FF1234187F0112341890005CA3E004FF2F
:082FF5001234187F2C0234B8DD
:10310F00900050EEF0A3EFF0900054EAF0A3EBF034
:10311F00900052ECF0A3EDF0900050E0FAA3E0FF26
:10312F00AE02C006C0072401FBE43AFAA3E0FEA3F7
:10313F00E02401FFE43E90005CF0A3EFF0A37402E3
:10314F00F0D007D006122FA5900054E0FEA3E0FFA9
:03315F000233DB5D
:03326A00900000D1
:10326D00122F8AE4FBEBC394A074809480501DE46C
:10327D00FAEAC3948074809480500E900000E0FEB2
:0C328D00A3E0FF1233DB0A80E80B80D9BD
:013299002212
:102B600090001DEEF0A3EFF0A3ECF0A3EDF0A3EBCB
:072B7000F0A3EAF0A3E9F075
:102B7700E4A3F0A3F0900021E0FBA3E0FAA3E0F9BF
:102B87001227E6900024E0FCA3E0FDC39FEC9E40E3
:102B97000281F5900021E0FBA3E0FAA3E0F98D8222
:102BA7008C831223B2FFC394A174809480400A904F
:102BB700004EEFF0E4A3F081E3900021E0FBA3E0F7
:102BC700FAA3E0F9A3E0FEA3E0F5828E831223B215
:102BD700FFE4FCFDFE7B10FAF9F812242B90002A83
:102BE70012247AE4FBFA90002AA3A3E0FEA3E02BC9
:102BF700FFEE3AFE74262FF58274003EF583E493C8
:102C0700FF742E2BF58274003AF583EFF00BBB00AF
:102C1700010AEB64104A70CEE4900028F0A3F0E4B8
:102C2700900026F0A3F0900026E0FEA3E0FFC394F7
:102C370008EE64809480400281C27C007D081223E4
:102C4700DF7E007480A805088006CEA2E713CE13A6
:102C5700D8F8FF900028E0FCA3E0FD242EF582744D
:102C6700003CF583E0FB3395E05EFEEF5B4E603B97
:102C7700900026E0FEA3E0FF90001EE02FFB9000EF
:102C87001DE03EFA900024E0FEA3E07803C333CEB4
:102C970033CED8F92BFFEA3EFE90001FE0FAA3E0FF
:102CA7002DFDEC3AFCE4FBFA12310F900027E0040B
:102CB700F07006900026E004F0812D900029E004D2
:102CC700F07006900028E004F0C3900029E094100B
:102CD700900028E06480948050028126900025E0CF
:0E2CE70004F06002617C900024E004F0617C47
:012CF50022BC
:102CF600900075EFF0A3EDF0A3EBF0A3EAF0A3E9E3
:012D0600F0DC
:102D0700E4A3F0900077E0FBA3E0FAA3E0F9122335
:062D170099FF7002C114D7
:102D1D007E0090007DEEF0A3EFF0642E700A90001F
:102D2D007DF0A3740AF0800E90007EE024D0F09028
:102D3D00007DE034FFF090007AE075F00FA4FDAC5B
:102D4D00F0900075E0FB7A002DFFEA3CFEC006C056
:102D5D0007ED2BFFEA3CCF240FFBE43FFAA3E0FD88
:102D6D007C00241FFEE43390005CF0A3CEF0A3742E
:102D7D0001F0D007D006122FA5E490007BF0A3F050
:102D8D0090007BE0FCA3E0FDC39440EC9400506503
:102D9D00A3E0FEA3E07806C333CE33CED8F92DFFE2
:102DAD00EC3EFE74272FF58274153EF583E4939067
:102DBD000080F0E490007FF090007FE0C3940874F1
:102DCD008094805020A3E05480648070028002744F
:102DDD00FFFFFE1233DB900080E025E0F090007FD6
:102DED00E004F080D390007CE004F0709390007BC1
:102DFD00E004F0808B90007AE004F0900078E475A8
:052E0D00F00112241584
:022E1200A10A13
:012E1400229B
:03329A009000A001
:10329D00122F8AE4FBEBC394A074809480501DE43C
:1032AD00FAEAC3948074809480500E9000A0E0FEE2
:0C32BD00A3E0FF1233DB0A80E80B80D98D
:0132C90022E2
:1032F80090005CE4F07446122F96E4FBEBC394460E
:10330800748094805015E4FAEAC3948074809480A1
:0B33180050061233D70A80F00B80E152
:013323002287
:10255F00EF24FE6063147002C118147002C1691475
:10256F007002C1B7147002E10824056002E15990AE
:10257F00005CE4F0A37414F0A37402F07B14122F28
:10258F009EE490001BF090001BE0C39414748094A1
:10259F00804002E159E4A3F090001CE0C39414744E
:1025AF00809480500B1233D790001CE004F080E829
:1025BF0090001BE004F080CE90005CE4F0A3741454
:1025CF00F0A37402F07B467A00E4FDFC7F32FE122A
:1025DF002FA5E490001BF090001BE0C394147480AF
:1025EF0094804002E159E4A3F090001CE0C39414DE
:1025FF0074809480500B1233D790001CE004F0804D
:10260F00E890001BE004F080CE90005CE4F0A3742F
:10261F0014F0A37402F07B787A00E4FDFC7F64FE73
:10262F00122FA5E490001BF090001BE0C3941474CC
:10263F008094804002E159E4A3F090001CE0C39421
:10264F001474809480500B1233D790001CE004F068
:10265F0080E890001BE004F080CE90005CE4F0A3D3
:10266F00743CF0A37402F07B257D287C00E4122FCC
:10267F00A1E490001BF090001BE0C394257480949C
:10268F00804002E159E4A3F090001CE0C39414745D
:10269F00809480500B1233D790001CE004F080E838
:1026AF0090001BE004F080CE90005CE4F0A3743C3B
:1026BF00F0A37402F07B467A007D287C007F327E87
:1026CF0000122FA5E490001BF090001BE0C39414A0
:1026DF00748094805074E4A3F090001CE0C39414B1
:1026EF0074809480500B1233D790001CE004F0805C
:1026FF00E890001BE004F080D090005CE4F0A3743D
:10270F003CF0A37402F07B6E7A007D287C007F5A28
:10271F007E00122FA5E490001BF090001BE0C394E5
:10272F0014748094805023E4A3F090001CE0C394B1
:10273F001474809480500B1233D790001CE004F077
:0A274F0080E890001BE004F080D049
:01275900225D
:103394002552483D00546D703D003A003230002FF4
:1033A400003031323334353637383900000000000C
:0233B400000017
:102ED10078997C007D017BFF7A3379B07E007F0297
:102EE100122373789B7C007D017BFF7A3379B27E5C
:102EF100007F02122373E490008BF090008CF0901D
:102F0100008DF090008EF0900089F0122E15123491
:102F11009490008BE0FD75F00A842430900099F0C4
:102F2100ED75F00A84E5F02430A3F07BFF7A337964
:102F3100947D327C007F0A7E00122B607B017A0037
:102F410079997D327C007F2A7E00122B6090008D62
:102F5100E0FD75F00A84243090009BF0ED75F00AD5
:102F610084E5F02430A3F07BFF7A3379997D467CA8
:102F7100007F0A7E00122B607B017A00799B7D46DF
:092F81007C007F2A7E00022B6017
:1029BC00781B7C007D017BFF7A3379B47E007F022B
:1029CC00122373123494123230123486900062E067
:1029DC00FFC4540F9033A59390001BF0EF540F904D
:1029EC0033A59390001CF07B017A00791B7D027C4F
:1029FC00007F017E00122B607BFF7A33799E7D0E67
:102A0C007C007F227E00122B60E490001BF0A3F070
:102A1C00900061E0FFC4540F9033A59390001BF01D
:102A2C00EF540F9033A59390001CF07B017A007942
:102A3C001B7D027C007F327E00122B607BFF7A3381
:102A4C00799E7D0E7C007F507E00122B60E49000FE
:102A5C001BF0A3F0900060E0FFC4540F9033A593DB
:102A6C0090001BF0EF540F9033A59390001CF07B5B
:102A7C00017A00791B7D027C007F667E00122B6040
:102A8C00E490001BF0A3F0900066E0FFC4540F909C
:102A9C0033A59390001BF0EF540F9033A593900047
:102AAC001CF07BFF7A3379A07D287C007F017E00AF
:102ABC00122B607B017A00791B7D287C007F127EB3
:102ACC0000122B607BFF7A3379A37D287C007F2654
:102ADC007E00122B60E490001BF0A3F0900064E0E9
:102AEC00FFC4540F9033A59390001BF0EF540F903C
:102AFC0033A59390001CF07B017A00791B7D287C18
:102B0C00007F327E00122B607BFF7A3379A37D2805
:102B1C007C007F4A7E00122B60E490001BF0A3F037
:102B2C00900063E0FFC4540F9033A59390001BF00A
:102B3C00EF540F9033A59390001CF07B017A007931
:102B4C001B7D287C007F5A7E00122B60E490001BBA
:032B5C00F0A3F0F3
:012B5F002253
:1033F500D3EF9400EE940040147D6E7C00ED1D70BB
:0D340500011CED4C70F7EF1F70E61E80E318
:013412002297
:0427FB007FEEDFFE90
:0127FF0022B7
:0A34AD0000007F037E7BDEFEDFFCE3
:0134B70022F2
:0834D6007F047E1BDEFEDFFC1B
:0134DE0022CB
:0434DF007F06DFFE87
:0134E30022C6
:0934C200007F027E3CDEFEDFFC0F
:0134CB0022DE
:0934CC00007F027E8CDEFEDFFCB5
:0134D50022D4
:0E344B0000007F037E327D04DDFEDEFCDFFA32
:013459002250
:0D348600007F037E707D5BDDFEDEFCDFFA63
:013493002216
:0C3494007FF47E827D04DDFEDEFCDFFAAA
:0134A0002209
:0E345A0000007F0D7E2D7DD6DDFEDEFCDFFA4C
:013468002241
:0E34690000007F7A7EC17D80DDFEDEFCDFFA92
:013477002232
:0300000002275A7A
:0C275A00787FE4F6D8FD7581210227A1EC
:1022A300E709F608DFFA8046E709F208DFFA803E1D
:1022B30088828C83E709F0A3DFFA8032E309F6080A
:1022C300DFFA8078E309F208DFFA807088828C8372
:1022D300E309F0A3DFFA806489828A83E0A3F60826
:1022E300DFFA805889828A83E0A3F208DFFA804C00
:1022F30080D280FA80C680D4806980F280338010D7
:1023030080A680EA809A80A880DA80E280CA80333F
:1023130089828A83ECFAE493A3C8C582C8CCC583B7
:10232300CCF0A3C8C582C8CCC583CCDFE9DEE78087
:102333000D89828A83E493A3F608DFF9ECFAA9F006
:10234300EDFB2289828A83ECFAE0A3C8C582C8CC5C
:10235300C583CCF0A3C8C582C8CCC583CCDFEADE75
:10236300E880DB89828A83E493A3F208DFF980CCD7
:1023730088F0EF60010E4E60C388F0ED2402B404D0
:102383000050B9F582EB2402B4040050AF23234577
:0623930082239022F37387
:10239900BB010689828A83E0225002E722BBFE0242
:0923A900E32289828A83E4932275
:1023B200BB010CE58229F582E5833AF583E02250E0
:1023C20006E92582F8E622BBFE06E92582F8E2222A
:0D23D200E58229F582E5833AF583E4932244
:1023DF00C2D5EC30E709B2D5E4C39DFDE49CFCEE19
:1023EF0030E715B2D5E4C39FFFE49EFE1224C4C3A9
:1023FF00E49DFDE49CFC80031224C430D507C3E4A4
:06240F009FFFE49EFE2287
:10241500C5F0F8A3E028F0C5F0F8E5821582700252
:062425001583E038F022EF
:10242B00E88FF0A4CC8BF0A42CFCE98EF0A42CFC50
:10243B008AF0EDA42CFCEA8EF0A4CDA8F08BF0A4CE
:10244B002DCC3825F0FDE98FF0A42CCD35F0FCEB2D
:10245B008EF0A4FEA9F0EB8FF0A4CFC5F02ECD39F2
:0F246B00FEE43CFCEAA42DCE35F0FDE43CFC225F
:0C247A00ECF0A3EDF0A3EEF0A3EFF022D5
:101F3E00E508241EF582E43400F583E005082290BE
:101F4E00001B30080390001EE475F00112251902E3
:101F5E0023992001E97F2ED2018018EF540F24908F
:101F6E00D43440D4FF30050BEF24BFB41A00500315
:101F7E002461FFE50960021509050CE50C700205E8
:101F8E000B30080E90001BE475F001122519EF02BC
:101F9E0024B202334B7403D2088003E4C208F5085E
:101FAE0090001B122530E4F509F50BF50CE50960E0
:101FBE00077F20121F8180F5750AFFC202C201C27F
:101FCE0003C204C206C207C209121F4DFF700D30B4
:101FDE0008057F00121F92AF0CAE0B22B4255FC214
:101FEE00D5C205121F4DFF24D0B40A00501A75F049
:101FFE000A780930D50508B6FF0106C6A426F620D4
:10200E00D5047002D20480D924CFB41A00EF500444
:10201E00C2E5D205022193D20280C6D20180C0D27F
:10202E000380BCD2D580BAD20680B47F20121F8125
:10203E002003077401B5090040F1121F3EFF121F65
:10204E0081021FBBD209D2078095121F3EFB121FC1
:10205E003EFA121F3EF94A4B700679647A227BFFD4
:10206E0020032EE509602A7E008E827583001223DE
:10207E00B260060EEE650A70F0C2D5EBC0E0EAC0A3
:10208E00E0E9C0E0EE1221DAD0E0F9D0E0FAD0E0DB
:10209E00FB122399FF60AAEBC0E0EAC0E0E9C0E0C2
:1020AE00121F81D0E02401F9D0E03400FAD0E0FB19
:1020BE00E50A0460DCD50AD980877BFF7A2179D6C0
:1020CE00D203809C791080027908C207C209800869
:1020DE00D2D5790A8004790AC2D5E50A047002F5D0
:1020EE000AE4FAFDFEFF121F3EFC7B0820021312CB
:1020FE001F3EFD7B1030010A121F3EFE121F3EFFD7
:10210E007B20EC3382D592D55013C3E43001069F69
:10211E00FFE49EFEE42002039DFDE49CFCE4CBF86C
:10212E00C202EC700CCFCECDCCE824F8F870F38060
:10213E0017C3EF33FFEE33FEED33FDEC33FCEB3321
:10214E00FB994002FB0FD8E9EB300205F8D0E0C452
:10215E0048B202C0E00AEC4D4E4F78207B0070C2B0
:10216E00EAB50A0040BCC0E01221DCD0F0D0E0207D
:10217E000204C4C0E0C4B202C0F0121F6AD0F0D58F
:10218E00F0EB021FBB12253920585320D2582029BC
:10219E004C20254220D64F20DE4420DE49203E43EF
:0821AE0020E45520C84620C8BA
:1021B6004520C847228450202D2D20312E20542B17
:1021C600203523205220226D2A1FED480000204C86
:1021D6003F3F3F00790AA2D5200414300609B91002
:1021E600020404B9080104A2D52007025001042004
:1021F60003689203B509005034C0E07F203004190B
:102206007F30A20372077206500F122233C203C236
:1022160007C206C2097F30800F300603E9C0E0120C
:102226001F81300603D0E0F9D0E0B509CC3006179F
:102236007F30B9100C121F817F583005077F7880D8
:1022460003B90803121F813003057F2D021F817F0A
:10225600202009F87F2B2007F322920380CF286ED7
:10226600756C6C2900D202121F3E3002F8C2027849
:102276000930D50108F6021FED2D50434958121FAB
:102286003E2403B405004001E490227F93121F729E
:0D229600743A121F72D2047509040220D29E
:1027E600E4FFFE122399600C0FEF70010E09E970E9
:0527F600F20A80EF2251
:10248600EF4E6012EF60010EEDBB010B89828A836D
:10249600F0A3DFFCDEFA2289F05007F709DFFCA97A
:0C24A600F022BBFEFCF309DFFCA9F022D1
:102766000232CAE493A3F8E493A34003F68001F28D
:1027760008DFF48029E493A3F85407240CC8C33374
:10278600C4540F4420C8834004F456800146F6DF43
:10279600E4800B0102040810204080903324E47E7C
:1027A600019360BCA3FF543F30E509541FFEE49338
:1027B600A360010ECF54C025E060A840B8E493A3FF
:1027C600FAE493A3F8E493A3C8C582C8CAC583CA2A
:1027D600F0A3C8C582C8CAC583CADFE9DEE780BEE2
:01334A000082
:1024B200BB010689828A83F0225002F722BBFE0109
:0224C200F32203
:1024C400BC000BBE0029EF8DF084FFADF022E4CCFC
:1024D400F875F008EF2FFFEE33FEEC33FCEE9DECC5
:1024E400984005FCEE9DFE0FD5F0E9E4CEFD22ED0B
:1024F400F8F5F0EE8420D21CFEADF075F008EF2F55
:10250400FFED33FD4007985006D5F0F222C398FD45
:052514000FD5F0EA22E2
:10251900F8E0FBA3A3E0F925F0F0E582158270024B
:072529001583E0FA38F022EF
:09253000EBF0A3EAF0A3E9F022AC
:10253900D083D082F8E4937012740193700DA3A331
:1025490093F8740193F5828883E473740293686045
:06255900EFA3A3A380DF45
:10334B00EFB40A07740D123356740A309811A8990A
:10335B00B8130CC2983098FDA899C298B811F630E2
:07336B0099FDC299F59922BA
:00000001FF
