:102E5E004700C9003012150605204100D000410080
:022E6E00C8009A
:102E3300122ED2122D6D9000A7E05480FFC41313FD
:102E4300135401640170097B017A0079C9122CDBE8
:0B2E53001223F9122F7412180080FBEC
:03002300020026B2
:0D002600C0E0C083C082C0D075D000C0070C
:10003300309902C299C298AF99EF647F7011900012
:10004300C8E004F0E0640A700BF043C760800590D9
:0400530000C8E4F00D
:0B005700D007D0D0D082D083D0E032A0
:03006300022BDD90
:102BDD00C0E0C0F0C083C082C0D075D000C000C0BE
:102BED0001C002C003C004C005C006C00753EFFEFC
:102BFD009000D0E004F0E06428701274FFFFFE1224
:102C0D002DD71225B5122A529000D0E4F0D007D05E
:102C1D0006D005D004D003D002D001D000D0D0D042
:082C2D0082D083D0F0D0E03228
:0C2FEE002530326400323025303264009F
:10180000E4900047F0A3F0A3F0A3F0A37408F0E481
:10181000A3F0A3F0A3F0A3F0A3F0A37414F0A3E447
:10182000F0A37406F0A3E4F0A3740FF020A4177FD4
:101830000A7E00122F2F20A40A9000477401F0D2D4
:1018400000C2AF30A4FD200002E141900047E064F7
:10185000016002216220A5797F0AFE122F2F20A5A8
:101860007090004BE004F0700690004AE004F090A5
:10187000004AE07004A3E06419700890004AF0A3E5
:101880007408F07F011221FE7E007F057D207B0120
:101890007A00795612212590006574FFF0A3742F09
:1018A000F0A374EEF090004AE0FFA3E0900068CF50
:1018B000F0A3EFF07B017A00795612138C7B017A4A
:1018C0000079567D027C007F017E0012280030A541
:1018D000FD20CC787F0A7E00122F2F20CC6E900046
:1018E0004BE024FFF090004AE034FFF0E0B4FF0E3C
:1018F000A3E0B4FF0990004AE4F0A37408F07F016C
:101900001221FE7E007F057D207B017A0079561230
:10191000212590006574FFF0A3742FF0A374EEF0FE
:1019200090004AE0FFA3E0900068CFF0A3EFF07BC7
:10193000017A00795612138C7B017A0079567D0268
:101940007C007F017E0012280030CCFD20A4137F94
:101950000A7E00122F2F20A4069000477402F03058
:10196000A4FD900047E064026002417920A5797FE0
:101970000AFE122F2F20A57090004DE004F0700693
:1019800090004CE004F090004CE07004A3E0643D53
:10199000700890004CF0A3741EF07F021221FE7EAE
:1019A000007F057D207B017A007956122125900069
:1019B0006574FFF0A3742FF0A374EEF090004CE078
:1019C000FFA3E0900068CFF0A3EFF07B017A0079ED
:1019D0005612138C7B017A0079567D027C007F328F
:1019E0007E0012280030A5FD20CC787F0A7E0012F0
:1019F0002F2F20CC6E90004DE024FFF090004CE0A3
:101A000034FFF0E0B4FF0EA3E0B4FF0990004CE413
:101A1000F0A3741EF07F021221FE7E007F057D2060
:101A20007B017A00795612212590006574FFF0A39E
:101A3000742FF0A374EEF090004CE0FFA3E0900050
:101A400068CFF0A3EFF07B017A00795612138C7BFC
:101A5000017A0079567D027C007F327E00122800D8
:101A600030CCFD20A4137F0A7E00122F2F20A40665
:101A70009000477403F030A4FD900047E0640360D9
:101A800002618E20A5797F0AFE122F2F20A570906B
:101A9000004FE004F0700690004EE004F090004E1D
:101AA000E07004A3E0643D700890004EF0A3741E43
:101AB000F07F031221FE7E007F057D207B017A00EE
:101AC000795612212590006574FFF0A3742FF0A3BE
:101AD00074EEF090004EE0FFA3E0900068CFF0A31A
:101AE000EFF07B017A00795612138C7B017A007932
:101AF000567D027C007F667E0012280030A5FD2006
:101B0000CC767F0A7E00122F2F20CC6C90004FE005
:101B100024FFF090004EE034FFF0E0B4FF0CA3E0AF
:101B2000B4FF07E490004EF0A3F07F031221FE7E85
:101B3000007F057D207B017A0079561221259000D7
:101B40006574FFF0A3742FF0A374EEF090004EE0E4
:101B5000FFA3E0900068CFF0A3EFF07B017A00795B
:101B60005612138C7B017A0079567D027C007F66C9
:101B70007E0012280030CCFD20A4137F0A7E0012C4
:101B80002F2F20A4069000477404F030A4FD90008D
:101B900047E06404600281A520A5797F0AFE122F28
:101BA0002F20A570900051E004F07006900050E0E6
:101BB00004F0900050E07004A3E0646470089000AA
:101BC00050F0A37414F07F041221FE7E007F057D87
:101BD000207B017A00795612212590006574FFF070
:101BE000A3742FF0A374F3F0900050E0FFA3E090F3
:101BF0000068CFF0A3EFF07B017A00795612138CC6
:101C00007B017A0079567D287C007F017E001228B6
:101C10000030A5FD20CC787F0A7E00122F2F20CC2B
:101C20006E900051E024FFF0900050E034FFF0E0AF
:101C3000B4FF0EA3E0B4FF09900050E4F0A37414C5
:101C4000F07F041221FE7E007F057D207B017A005B
:101C5000795612212590006574FFF0A3742FF0A32C
:101C600074F3F0900050E0FFA3E0900068CFF0A381
:101C7000EFF07B017A00795612138C7B017A0079A0
:101C8000567D287C007F017E0012280030CCFD208C
:101C9000A4137F0A7E00122F2F20A4069000477401
:101CA00005F030A4FD900047E064056002A1B22079
:101CB000A5797F0AFE122F2F20A570900053E00413
:101CC000F07006900052E004F0900052E07004A31F
:101CD000E0640D7008900052F0A37406F07F0512C6
:101CE00021FE7E007F057D207B017A00795612213E
:101CF0002590006574FFF0A3742FF0A374EEF090AC
:101D00000052E0FFA3E0900068CFF0A3EFF07B016A
:101D10007A00795612138C7B017A0079567D287CE3
:101D2000007F327E0012280030A5FD20CC787F0A8B
:101D30007E00122F2F20CC6E900053E024FFF090F5
:101D40000052E034FFF0E0B4FF0EA3E0B4FF0990CE
:101D50000052E4F0A37406F07F051221FE7E007F9E
:101D6000057D207B017A007956122125900065744B
:101D7000FFF0A3742FF0A374EEF0900052E0FFA3E5
:101D8000E0900068CFF0A3EFF07B017A0079561263
:101D9000138C7B017A0079567D287C007F327E008F
:101DA00012280030CCFD20A4069000477406F030C5
:101DB000A4FD900047E064066002C1C920A5797FB8
:101DC0000AFE122F2F20A570900055E004F0700637
:101DD000900054E004F0900054E07004A3E064200C
:101DE0007008900054F0A3740FF07F061221FE7E5D
:101DF000007F057D207B017A007956122125900015
:101E00006574FFF0A3742FF0A374EEF0900054E01B
:101E1000FFA3E0900068CFF0A3EFF07B017A007998
:101E20005612138C7B017A0079567D287C007F5AEC
:101E30007E0012280030A5FD20CC787F0A7E00129B
:101E40002F2F20CC6E900055E024FFF0900054E03E
:101E500034FFF0E0B4FF0EA3E0B4FF09900054E4B7
:101E6000F0A3740FF07F061221FE7E007F057D2017
:101E70007B017A00795612212590006574FFF0A34A
:101E8000742FF0A374EEF0900054E0FFA3E09000F4
:101E900068CFF0A3EFF07B017A00795612138C7BA8
:101EA000017A0079567D287C007F5A7E0012280036
:101EB00030CCFD20A4137F0A7E00122F2F20A40611
:101EC0009000477407F030A4FD900047E06407607D
:101ED00002014690004EA3E0FF122F6190005BEFDD
:101EE000F090004CA3E0FF122F6190005CEFF090A7
:101EF000004AA3E0FF122F6190005DEFF0900054C4
:101F0000A3E0FF122F6190005EEFF0900052A3E07B
:101F1000FF122F6190005FEFF0900050A3E0FF12DE
:101F20002F61900061EFF07B017A00795B122CDB6E
:101F3000122E071225B5E4900047F0C200D2AF017F
:011F4000465A
:011F4100227D
:102ED200438780759850438E40538EFE53890F432B
:102EE2008920758BE6758DE6C2ABD28ED2AFD2AC9D
:012EF20022BD
:102F7400538EFB75D7B075D63C438E1075AF04D213
:022F8400AF227A
:102F8600EFFD7C0064017003C2A222ED4C7002D2F8
:022F9600A22275
:042E70004100D2004B
:102B7600E4900009F0900009E0C394087480948002
:102B8600505490000B7402F020C00A90000BE0FF36
:102B960004F0EF70F31227FAE490000AF030C00256
:102BA60004F090000B7402F030C00A90000BE0FFB6
:102BB60004F0EF70F390000BE0640160199000D20E
:102BC600E025E0FFF090000AE04F9000D2F0900080
:062BD60009E004F0809FFD
:012BDC0022D6
:10299600E4900004F0A3F0A3F0A3F0A3F0122FB686
:1029A600C2C0122F98D2C0123015D2C030C0024118
:1029B600517F0220C006AE070FEE70F77F0230C0CF
:1029C60006AE070FEE70F7122B769000D2E090005D
:1029D60004F0122B769000D2E0900005F0122B76D0
:1029E6009000D2E0900006F0122B769000D2E09094
:1029F6000007F0122B769000D2E0FF900008F0D28C
:102A0600C0900007E0FD900006E02DFDE433FC9049
:102A16000004E0F97A002DFDEA3CFCA3E0FE2DFD62
:102A2600EA3CFCEFB50524EAB504209000D3E9F0B2
:102A3600A3EEF0900006E09000D5F0900007E0903D
:0B2A460000D6F0900008E09000D1F0F6
:012A51002262
:1017AB001220389000D7F09000011220519000D8F1
:1017BB00F09000021220519000D9F09000031220FB
:1017CB00519000DAF09000041220519000DBF0C22F
:1017DB00ACE4FFEFC3940574809480501574D72F3D
:1017EB00F582E43400F583E0F5993099FDC2990F49
:0417FB0080E1D2AC0B
:0117FF0022C7
:102E74004700AE80828486888A8C4700B58183852A
:042E840087898B8D22
:102D2600C2C700C2C500D2C700E4FEEEC394087451
:102D36008094805011EF1392C6EFC313FFD2C500E3
:102D4600C2C5000E80E5E4FEEEC39408748094804C
:102D56005011ED1392C6EDC313FDD2C500C2C500D6
:062D66000E80E5C2C7006B
:012D6C002244
:102C3500C2C700C2C500D2C700E4FDEDC394087445
:102C45008094805011EF1392C6EFC313FFD2C500D5
:102C5500C2C5000D80E500E4FDEDC39408748094C1
:102C650080501AA2C6E433FFC43333335480FCEEDC
:102C7500C3134CFED2C500C2C5000D80DCC2C7001F
:022C8500AF0698
:012C8700222A
:0B2CDB00900062EBF0A3EAF0A3E9F028
:102CE600E4FD7F8E122D26E4FCECC39407748094D9
:102CF60080502674AE2CF582E43400F583E0FF9014
:102D06000062E0FBA3E0FAA3E0F98C82758300126F
:102D16002051FD122D260C80D07D807F8E022D261F
:102D6D007E007F077D207B017A0079A7122125E463
:102D7D00FBEBC3940774809480501E74B52BF582C1
:102D8D00E43400F583E0FF122C3574A72BF582E4B3
:092D9D003400F583EFF00B80D83F
:012DA600220A
:102F6100EF75F00A84C454F0FEEF75F00A84EE2583
:032F7100F0FF224C
:10006600000000000000000000000000000000008A
:10007600000000000000000000000000000000007A
:10008600000000000000000000000000000000006A
:10009600000000000000000000000000000000005A
:1000A600000000000000000000000000000000004A
:1000B600000000000000000000000000000000003A
:1000C600000000000000000000000000000000002A
:1000D600000000000000000000000000000000001A
:1000E6000000001808C80808000000000000000012
:1000F60000007F6060606060606060E0602000001B
:1001060000000000000000000000000000000000E9
:100116000000181818101010000000000000000061
:1001260000000000000000000808080C0C0C00008D
:1001360000000000000000000000000000000000B9
:1001460000006C3810007CC6701CC67C00000000E5
:10015600000010386C00780C7CCCCC7600000000D7
:100166000000000000007CC670C0C67C00000000D5
:100176000000000000006C967CD0D66C00000000E9
:100186000000000000007CC60606C67C00000000D9
:10019600000000386CC6C6FEC6C66C3800000000FB
:1001A60000000000001038286C44C6C6000000009D
:1001B6000000000000007CC606FEC67C00000000B1
:1001C600000000000000DC666666F60606663C0077
:1001D6000000006C38F80C7EC6C6C67C0000000025
:1001E6000000000E1B18181818181818D8700000F0
:1001F6000000000000FE860C180C0606C67C0000F7
:10020600000076DC0000780C7CCCCC760000000088
:10021600000076DC00007CC60606C67C00000000F6
:10022600000076DC0000DC6666666666000000009C
:1002360000000000000076999F98996F000000006A
:1002460000000000000000000000000C0606000090
:10025600000000000000000000003C66663C000054
:100266000000000000000000000000000000000088
:10027600000000183C3C3C1818001818000000004C
:100286000000C6C6C64400000000000000000000D2
:100296000000006C6CFE6C6C6CFE6C6C0000000068
:1002A6000018187CC6C2C07C0686C67C18180000DA
:1002B6000000000000C3C60C183063C30000000035
:1002C600000000386C6C3876DCCCCC760000000080
:1002D6000000303030600000000000000000000028
:1002E6000000001830606060606030180000000098
:1002F600000000180C06060606060C180000000092
:1003060000000000006C38FE386C000000000000A1
:10031600000000001818187E1818180000000000C9
:10032600000000000000000000181818300000004F
:1003360000000000000000FE0000000000000000B9
:100346000000000000000000000018180000000077
:1003560000000002060C183060C08000000000009B
:100366000000007CC6CEDEF6E6C6C67C00000000B5
:1003760000000018387818181818187E00000000B9
:100386000000007CC6060C183060C6FE00000000A7
:100396000000007CC606063C0606C67C000000007F
:1003A6000000000C1C3C6CCCFE0C0C1E0000000077
:1003B600000000FEC0C0C0FC0606C67C00000000AF
:1003C6000000003860C0C0FCC6C6C67C0000000045
:1003D600000000FEC6060C18303030300000000069
:1003E6000000007CC6C6C67CC6C6C67C00000000EF
:1003F6000000007CC6C6C67E06060C78000000001B
:100406000000000018180000001818000000000086
:100416000000000018180000001818300000000046
:10042600000000060C18306030180C0600000000B2
:100436000000000000007E00007E000000000000BA
:100446000000006030180C060C1830600000000038
:100456000000007CC6C60C18180018180000000022
:100466000000007CC6C6DEDEDEDCC07C00000000CC
:1004760000000010386CC6C6FEC6C6C600000000E6
:10048600000000FC6666667C666666FC000000008E
:100496000000003C66C2C0C0C0C2663C000000004E
:1004A600000000F86C66666666666CF80000000080
:1004B600000000FE66626878686266FE0000000062
:1004C600000000FE66626878686060F00000000068
:1004D6000000003C66C2C0C0DEC6663A00000000EE
:1004E600000000C6C6C6C6FEC6C6C6C600000000D8
:1004F6000000003C181818181818183C00000000D6
:100506000000001E0C0C0C0C0CCCCC78000000007B
:10051600000000E6666C6C786C6C66E60000000015
:10052600000000F060606060606266FE000000002F
:10053600000000C6EEFED6C6C6C6C6C6000000004F
:10054600000000C6E6F6FEDECEC6C6C60000000007
:10055600000000386CC6C6C6C6C66C38000000006F
:10056600000000FC6666667C606060F000000000CB
:100576000000007CC6C6C6D6DE7C0C0E000000005D
:10058600000000FC6666667C6C6666E6000000009D
:100596000000007CC6C660380CC6C67C00000000A1
:1005A6000000007E5A1818181818183C00000000A1
:1005B600000000C6C6C6C6C6C6C6C67C0000000089
:1005C600000000C6C6C6C6C6C66C381000000000CD
:1005D600000000C6C6C6C6C6D6FEEEC600000000AF
:1005E600000000C6C6C66C386CC6C6C60000000051
:1005F600000000C6C6C66C383838387C00000000DB
:10060600000000FEC68C183060C2C6FE0000000066
:100616000000003C303030303030303C000000000C
:1006260000000080C0E070381C0E060200000000CA
:100636000000003C0C0C0C0C0C0C0C3C00000000E8
:100646000010386CC600000000000000000000002A
:1006560000000000000000000000000000FE000096
:10066600000030301800000000000000000000000C
:10067600000000000000780C7CCCCC760000000066
:10068600000000E06060786C666666DC00000000D2
:100696000000000000007CC6C0C0C67C0000000050
:1006A6000000001C0C0C3C6CCCCCCC76000000008E
:1006B6000000000000007CC6FEC0C67C00000000F2
:1006C6000000001C3632307C3030307800000000EC
:1006D60000000000000076CCCCCC7C0CCC7800006E
:1006E600000000E060606C76666666E6000000006A
:1006F60000000018180038181818183C00000000F0
:100706000000000606000E0606060666663C0000A9
:10071600000000E06060666C786C66E60000000031
:1007260000000038181818181818183C00000000A7
:1007360000000000000044FED6D6D6D60000000019
:10074600000000000000DC666666666600000000C9
:100756000000000000007CC6C6C6C67C0000000083
:10076600000000000000DC6666667C6060F0000049
:1007760000000000000076CCCCCC7C0C0C1E0000E7
:10078600000000000000DC76666060F000000000FB
:100796000000000000007CC6701CC67C0000000043
:1007A600000000103030FC303030361C00000000F5
:1007B600000000000000CCCCCCCCCC7600000000C1
:1007C600000000000000C6C6C66C3810000000001D
:1007D600000000000000C6C6C6D6FE6C0000000081
:1007E600000000000000C66C38386CC6000000002F
:1007F600000000000000C6C6C6C67E060C780000D3
:10080600000000000000FECC183066FE000000006C
:100816000000000E181818701818180E00000000B6
:100826000000001818181800181818180000000002
:10083600000000701818180E181818700000000034
:1008460000000076DC000000000000000000000050
:100856000000000000000000000000000000000092
:100866000000000000000000000000000000000082
:100876000000000000000000000000000000000072
:100886000000000000000000000000000000000062
:10106600000000000000000000000000000F001853
:101076008030C0606060606020C030C030C030C06A
:1010860030C030C030C030C030C030C030602060AA
:1010960060606030C018800F000000000000000093
:1010A6000000000000000000000000000002000632
:1010B600007E000600060006000600060006000682
:1010C60000060006000600060006000600060006EA
:1010D60000060006000F007FE00000000000000090
:1010E600000000000000000000000000001F80203B
:1010F600E0406080308030C030C03000300060009A
:101106006000C00180030006000C000800101020DB
:101116001040108030FFE0FFE000000000000000FB
:10112600000000000000000000000000001F006139
:1011360080C0C0C060C060C0600060006000C001C8
:10114600800F0001C00060002000300030C030C0B9
:1011560030C020C06060C01F00000000000000001A
:1011660000000000000000000000000000018001F7
:10117600800380038005800580098011801180210D
:101186008021804180C18081800180FFF001800143
:10119600800180018001800FF00000000000000047
:1011A600000000000000000000000000003FF03FCB
:1011B600F04000400040004000400040004F80509A
:1011C600C0606040200030003000300030C030C0C9
:1011D600308060806060C01F0000000000000000DA
:1011E600000000000000000000000000000780185A
:1011F6006030602060600040004000C000CF80D8B2
:10120600C0E060E020C030C030C030C030C03060C8
:10121600306020306038C00F800000000000000001
:10122600000000000000000000000000007FF07FCA
:10123600F04020C040804080800080010001000115
:10124600000200020004000400040004000C000C6C
:10125600000C000C000C000C000000000000000058
:10126600000000000000000000000000001F8030A9
:10127600C06060C030C030C030E030E02078603CF4
:10128600801F0063C0C1E0C0E08070803080308085
:10129600308030C06060C01F000000000000000009
:1012A600000000000000000000000000001F0060B9
:1012B60080C040C0608020803080308030803080A8
:1012C60030C070C0B061B03E3000300060006000D9
:1012D60040C0C0C180C3003E000000000000000006
:1012E60000000000000000000000000000000000F8
:1012F60000000000000000000000000000000000E8
:1013060000000000000000000000000000000000D7
:10131600006000F000F00060000000000000000027
:0113260000C6
:10000300E4FDFCC3ED9FEC9E5015E4FBFA0BBB0033
:0F001300010AEB64FA4A70F50DBD00010C80E4A0
:0100220022BB
:102EB0007E08EED39400748094804015EF30E704D0
:102EC000D2928002C292C291D291EF25E0FF1E8081
:012ED000E120
:012ED10022DE
:0A300B00C290C293122EB0D29022A0
:052F4D0012300B7F01B2
:0E2F5200E49000A6F0C290D293122EB0D2905E
:012F6000224E
:042EF30074FFFFFE6B
:042EF700AD07AC0671
:102EFB00E490009DF0C290D293ECFF122EB0AF0580
:052F0B00122EB0D2906F
:012F1000229E
:0E2FC500C2947F647E00120003D294020003C7
:1023F900C2C4122FB6D2C4122FC57F1112300B7F5F
:10240900787E001200037FB1122F4D7F2C122F52BC
:102419007F2D122F527FB2122F4D7F2C122F527FF8
:102429002D122F527FB3122F4D7F2C122F527F2D39
:10243900122F527F01122F527F2C122F527F2D12F1
:102449002F527FB412300B7F07122F527FC01230E8
:102459000B7FA2122F527F02122F527F84122F520A
:102469007FC112300B7FC5122F527FC212300B7FF2
:102479000A122F52E4FF122F527FC312300B7F8AA8
:10248900122F527F2A122F527FC412300B7F8A12C9
:102499002F527FEE122F527FC512300B7F0E122F53
:1024A900527F3612300B7FC0122F527FE012300B51
:1024B9007F0F122F527F1A122F527F0F122F527F26
:1024C90018122F527F2F122F527F28122F527F203E
:1024D900122F527F22122F527F1F122F527F1B124F
:1024E9002F527F23122F527F37122F52E4FF122FC0
:1024F900527F07122F527F02122F527F10122F5232
:102509007FE112300B7F0F122F527F1B122F527F48
:102519000F122F527F17122F527F33122F527F2CF7
:10252900122F527F29122F527F2E122F527F3012D3
:102539002F527F30122F527F39122F527F3F122F85
:1025490052E4FF122F527F07122F527F03122F528C
:102559007F10122F527F2A12300BE4FF122F527F65
:1025690002122F52E4FF122F527F82122F527F2B19
:1025790012300BE4FF122F527F03122F52E4FF1285
:102589002F527F83122F527FF0122F4D7FF6123078
:102599000BE4FF122F527F3A12300B7F05122F5294
:0C25A9007F2912300B74FFFFFE022DA7EB
:102B0300EEF0A3EFF09000A3E4F0749FA3F0A3749E
:0B2B130002F07B7FE4FDFC7A00FFFE77
:102B1E0090009DEEF0A3EFF09000A5E0F964027036
:102B2E00028005E96401703B7F2A12300B7F02128E
:102B3E002F5290009DA3E02402FF122F527F02120B
:102B4E002F52EB2402FF122F527F2B122F4DED042A
:102B5E00FF122F527F01122F529000A3A3E004FF09
:082B6E00122F527F2C02300BE4
:102C8800900097EEF0A3EFF090009BEAF0A3EBF032
:102C9800900099ECF0A3EDF0900097E0FAA3E0FF24
:102CA800AE02C006C0072401FBE43AFAA3E0FEA383
:102CB800E02401FFE43E9000A3F0A3EFF0A3740228
:102CC800F0D007D006122B1E90009BE0FEA3E0FF79
:032CD800022EF7D2
:032DA70090004752
:102DAA00122B03E4FBEBC394A074809480501DE4BF
:102DBA00FAEAC3948074809480500E900047E0FE33
:0C2DCA00A3E0FF122EF70A80E80B80D96E
:012DD60022DA
:10280000900064EEF0A3EFF0A3ECF0A3EDF0A3EBE7
:07281000F0A3EAF0A3E9F0D8
:10281700E4A3F0A3F0900068E0FBA3E0FAA3E0F9DB
:102827001227E590006BE0FCA3E0FDC39FEC9E4000
:10283700022195900068E0FBA3E0FAA3E0F98D82FE
:102847008C83122051FFC394A174809480400A9016
:102857000095EFF0E4A3F02183900068E0FBA3E08C
:10286700FAA3E0F9A3E0FEA3E0F5828E83122051DC
:10287700FFE4FCFDFE7B10FAF9F81220CA90007104
:10288700122119E4FBFA900071A3A3E0FEA3E02B49
:10289700FFEE3AFE74662FF58274003EF583E493EB
:1028A700FF74752BF58274003AF583EFF00BBB00CC
:1028B700010AEB64104A70CEE490006FF0A3F0E4D5
:1028C70090006DF0A3F090006DE0FEA3E0FFC394CD
:1028D70008EE64809480400221627C007D0812200B
:1028E7007E7E007480A805088006CEA2E713CE136B
:1028F700D8F8FF90006FE0FCA3E0FD2475F5827423
:10290700003CF583E0FB3395E05EFEEF5B4E603BFA
:1029170090006DE0FEA3E0FF900065E02FFB9000C4
:1029270064E03EFA90006BE0FEA3E07803C333CE89
:1029370033CED8F92BFFEA3EFE900066E0FAA3E01B
:102947002DFDEC3AFCE4FBFA122C8890006EE004B3
:10295700F0700690006DE004F001CD900070E00487
:10296700F0700690006FE004F0C3900070E09410E0
:1029770090006FE064809480500201C690006CE084
:0E29870004F06002011C90006BE004F0011CE3
:01299500221F
:10168C009000BCEFF0A3EDF0A3EBF0A3EAF0A3E91C
:01169C00F05D
:10169D00E4A3F09000BEE0FBA3E0FAA3E0F9122072
:0616AD0038FF7002E1AA03
:1016B3007E009000C4EEF0A3EFF0642E700A900059
:1016C300C4F0A3740AF0800E9000C5E024D0F0901B
:1016D30000C4E034FFF09000C1E075F00FA4FDAC4E
:1016E300F09000BCE0FB7A002DFFEA3CFEC006C090
:1016F30007ED2BFFEA3CCF240FFBE43FFAA3E0FD09
:101703007C00241FFEE4339000A3F0A3CEF0A37467
:1017130001F0D007D006122B1EE49000C2F0A3F014
:101723009000C2E0FCA3E0FDC39440EC940050653C
:10173300A3E0FEA3E07806C333CE33CED8F92DFF62
:10174300EC3EFE74672FF58274103EF583E49390AC
:1017530000C7F0E49000C6F09000C6E0C39408749C
:101763008094805020A3E0548064807002800274CF
:10177300FFFFFE122EF79000C7E025E0F09000C6B1
:10178300E004F080D39000C3E004F070939000C2B3
:10179300E004F0808B9000C1E004F09000BFE4759A
:0517A300F0011220B46A
:0217A800C1A0DE
:0117AA00221C
:032DD70090000069
:102DDA00122B03E4FBEBC394A074809480501DE48F
:102DEA00FAEAC3948074809480500E900000E0FE4A
:0C2DFA00A3E0FF122EF70A80E80B80D93E
:012E060022A9
:102E07009000A3E4F07446122B0FE4FBEBC3944647
:102E1700748094805015E4FAEAC394807480948097
:0B2E27005006122EF30A80F00B80E131
:012E3200227D
:1021FE00EF24FE606314700241B71470026108147C
:10220E007002615614700261A72405600261F89095
:10221E0000A3E4F0A37414F0A37402F07B14122B49
:10222E0017E4900062F0900062E0C39414748094FE
:10223E0080400261F8E4A3F0900063E0C39414744C
:10224E00809480500B122EF3900063E004F080E82F
:10225E00900062E004F080CE9000A3E4F0A374142A
:10226E00F0A37402F07B467A00E4FDFC7F32FE128E
:10227E002B1EE4900062F0900062E0C39414748010
:10228E009480400261F8E4A3F0900063E0C39414DC
:10229E0074809480500B122EF3900063E004F08053
:1022AE00E8900062E004F080CE9000A3E4F0A37406
:1022BE0014F0A37402F07B787A00E4FDFC7F64FED8
:1022CE00122B1EE4900062F0900062E0C39414742E
:1022DE00809480400261F8E4A3F0900063E0C39420
:1022EE001474809480500B122EF3900063E004F06F
:1022FE0080E8900062E004F080CE9000A3E4F0A3AA
:10230E00743CF0A37402F07B257D287C00E4122B34
:10231E001AE4900062F0900062E0C39425748094F9
:10232E0080400261F8E4A3F0900063E0C39414745B
:10233E00809480500B122EF3900063E004F080E83E
:10234E00900062E004F080CE9000A3E4F0A3743C11
:10235E00F0A37402F07B467A007D287C007F327EEB
:10236E0000122B1EE4900062F0900062E0C3941401
:10237E00748094805074E4A3F0900063E0C39414CE
:10238E0074809480500B122EF3900063E004F08062
:10239E00E8900062E004F080D09000A3E4F0A37413
:1023AE003CF0A37402F07B6E7A007D287C007F5A8D
:1023BE007E00122B1EE4900062F0900062E0C39447
:1023CE0014748094805023E4A3F0900063E0C394CF
:1023DE001474809480500B122EF3900063E004F07E
:0A23EE0080E8900062E004F080D067
:0123F80022C2
:102F11002552483D00546D703D003A003230002F7B
:0E2F2100003031323334353637383900000095
:102A5200E49000D3F09000D4F09000D5F09000D62E
:102A6200F09000D1F0122996122FE17E007F027DB4
:102A7200207B017A0079001221257E007F027D20D1
:102A82007B017A0079021221259000D3E0FD75F0D6
:102A92000A842430900000F0ED75F00A84E5F024F9
:102AA20030A3F07BFF7A2F79117D5A7C007F0A7E5A
:102AB200001228007B017A0079007D5A7C007F2A6F
:102AC2007E001228009000D5E0FD75F00A842430C3
:102AD200900002F0ED75F00A84E5F02430A3F07B5B
:102AE200FF7A2F79167D467C007F0A7E001228002D
:102AF2007B017A0079027D467C007F2A7E000228D3
:012B020000D2
:1025B50078627C007D017BFF7A2F792D7E007F027A
:1025C500122012122FE1122D6D122FD39000A9E0C7
:1025D500FFC4540F902F2293900062F0EF540F9098
:1025E5002F2293900063F07B017A0079627D027C53
:1025F500007F017E001228007BFF7A2F791B7D0E5C
:102605007C007F227E00122800E4900062F0A3F097
:102615009000A8E0FFC4540F902F2293900062F021
:10262500EF540F902F2293900063F07B017A00798D
:10263500627D027C007F327E001228007BFF7A2FAC
:10264500791B7D0E7C007F507E00122800E49000EF
:1026550062F0A3F09000A7E0FFC4540F902F2293DF
:10266500900062F0EF540F902F2293900063F07B5F
:10267500017A0079627D027C007F667E0012280067
:10268500E4900062F0A3F09000ADE0FFC4540F9019
:102695002F2293900062F0EF540F902F2293900019
:1026A50063F07BFF7A2F791D7D287C007F017E00FA
:1026B5001228007B017A0079627D287C007F127EDA
:1026C500001228007BFF7A2F79207D287C007F2649
:1026D5007E00122800E4900062F0A3F09000ABE0C9
:1026E500FFC4540F902F2293900062F0EF540F9087
:1026F5002F2293900063F07B017A0079627D287C1C
:10270500007F327E001228007BFF7A2F79207D28FA
:102715007C007F4A7E00122800E4900062F0A3F05E
:102725009000AAE0FFC4540F902F2293900062F00E
:10273500EF540F902F2293900063F07B017A00797C
:10274500627D287C007F5A7E00122800E49000629A
:03275500F0A3F0FE
:01275800225E
:102F2F00D3EF9400EE940040147D6E7C00ED1D7085
:0D2F3F00011CED4C70F7EF1F70E61E80E3E3
:012F4C002262
:0427FA007FEEDFFE91
:0127FE0022B8
:0A30000000007F037E7BDEFEDFFC94
:01300A0022A3
:083029007F047E1BDEFEDFFCCC
:01303100227C
:042FFA007F06DFFE71
:012FFE0022B0
:09301500007F027E3CDEFEDFFCC0
:01301E00228F
:09301F00007F027E8CDEFEDFFC66
:013028002285
:0E2F980000007F037E327D04DDFEDEFCDFFAEA
:012FA6002208
:0D2FD300007F037E707D5BDDFEDEFCDFFA1B
:012FE00022CE
:0C2FE1007FF47E827D04DDFEDEFCDFFA62
:012FED0022C1
:0E2FA70000007F0D7E2D7DD6DDFEDEFCDFFA04
:012FB50022F9
:0E2FB60000007F7A7EC17D80DDFEDEFCDFFA4A
:012FC40022EA
:030000000227597B
:0C275900787FE4F6D8FD7581210227A0EE
:101F4200E709F608DFFA8046E709F208DFFA803E81
:101F520088828C83E709F0A3DFFA8032E309F6086E
:101F6200DFFA8078E309F208DFFA807088828C83D6
:101F7200E309F0A3DFFA806489828A83E0A3F6088A
:101F8200DFFA805889828A83E0A3F208DFFA804C64
:101F920080D280FA80C680D4806980F2803380103B
:101FA20080A680EA809A80A880DA80E280CA8033A4
:101FB20089828A83ECFAE493A3C8C582C8CCC5831C
:101FC200CCF0A3C8C582C8CCC583CCDFE9DEE780EC
:101FD2000D89828A83E493A3F608DFF9ECFAA9F06B
:101FE200EDFB2289828A83ECFAE0A3C8C582C8CCC1
:101FF200C583CCF0A3C8C582C8CCC583CCDFEADEDA
:10200200E880DB89828A83E493A3F208DFF980CC3B
:1020120088F0EF60010E4E60C388F0ED2402B40434
:102022000050B9F582EB2402B4040050AF232345DB
:062032008223901F92734F
:10203800BB010689828A83E0225002E722BBFE02A6
:09204800E32289828A83E49322D9
:10205100BB010CE58229F582E5833AF583E0225044
:1020610006E92582F8E622BBFE06E92582F8E2228E
:0D207100E58229F582E5833AF583E49322A8
:10207E00C2D5EC30E709B2D5E4C39DFDE49CFCEE7D
:10208E0030E715B2D5E4C39FFFE49EFE122163C371
:10209E00E49DFDE49CFC800312216330D507C3E46C
:0620AE009FFFE49EFE22EC
:1020B400C5F0F8A3E028F0C5F0F8E58215827002B7
:0620C4001583E038F02254
:1020CA00E88FF0A4CC8BF0A42CFCE98EF0A42CFCB5
:1020DA008AF0EDA42CFCEA8EF0A4CDA8F08BF0A433
:1020EA002DCC3825F0FDE98FF0A42CCD35F0FCEB92
:1020FA008EF0A4FEA9F0EB8FF0A4CFC5F02ECD3957
:0F210A00FEE43CFCEAA42DCE35F0FDE43CFC22C3
:0C211900ECF0A3EDF0A3EEF0A3EFF02239
:10132700E5082465F582E43400F583E0050822909A
:101337000062300803900065E475F0011221B802DD
:1013470020382001E97F2ED2018018EF540F249016
:10135700D43440D4FF30050BEF24BFB41A00500338
:101367002461FFE50960021509050CE50C7002050B
:101377000B30080E900062E475F0011221B8EF02FD
:101387002151022E897403D2088003E4C208F508AC
:101397009000621221CFE4F509F50BF50CE5096021
:1013A700077F2012136A80F5750AFFC202C201C2C5
:1013B70003C204C206C207C209121336FF700D30FA
:1013C70008057F0012137BAF0CAE0B22B4255FC25A
:1013D700D5C205121336FF24D0B40A00501A75F08F
:1013E7000A780930D50508B6FF0106C6A426F620F7
:1013F700D5047002D20480D924CFB41A00EF500468
:10140700C2E5D20502157CD20280C6D20180C0D2C5
:101417000380BCD2D580BAD20680B47F2012136A6B
:101427002003077401B5090040F1121327FF1213B7
:101437006A0213A4D209D2078095121327FB12134D
:1014470027FA121327F94A4B7006794D7A167BFF54
:1014570020032EE509602A7E008E82758300122004
:101467005160060EEE650A70F0C2D5EBC0E0EAC027
:10147700E0E9C0E0EE1215C3D0E0F9D0E0FAD0E021
:10148700FB122038FF60AAEBC0E0EAC0E0E9C0E049
:1014970012136AD0E02401F9D0E03400FAD0E0FB5F
:1014A700E50A0460DCD50AD980877BFF7A1579BF06
:1014B700D203809C791080027908C207C20980088C
:1014C700D2D5790A8004790AC2D5E50A047002F5F3
:1014D7000AE4FAFDFEFF121327FC7B082002131211
:1014E7001327FD7B1030010A121327FE121327FF63
:1014F7007B20EC3382D592D55013C3E43001069F8D
:10150700FFE49EFEE42002039DFDE49CFCE4CBF88F
:10151700C202EC700CCFCECDCCE824F8F870F38083
:1015270017C3EF33FFEE33FEED33FDEC33FCEB3344
:10153700FB994002FB0FD8E9EB300205F8D0E0C475
:1015470048B202C0E00AEC4D4E4F78207B0070C2D3
:10155700EAB50A0040BCC0E01215C5D0F0D0E020C3
:101567000204C4C0E0C4B202C0F0121353D0F0D5D5
:10157700F0EB0213A41221D814415314BB581412D0
:101587004C140E4214BF4F14C74414C749142743C1
:0815970014CD5514B14614B146
:10159F004514B147166D5014162D141A2E143D2BE9
:1015AF00141E23143B2016562A13D6480000143558
:1015BF003F3F3F00790AA2D5200414300609B91025
:1015CF00020404B9080104A2D52007025001042027
:1015DF0003689203B509005034C0E07F203004192E
:1015EF007F30A20372077206500F12161CC203C27D
:1015FF0007C206C2097F30800F300603E9C0E01230
:10160F00136A300603D0E0F9D0E0B509CC300617E5
:10161F007F30B9100C12136A7F583005077F78801E
:10162F0003B9080312136A3003057F2D02136A7F73
:10163F00202009F87F2B2007F322920380CF286EFA
:10164F00756C6C2900D2021213273002F8C202788F
:10165F000930D50108F60213D62D504349581213FD
:10166F00272403B405004001E49016689312135B1E
:0D167F00743A12135BD2047509040214BB07
:1027E500E4FFFE122038600C0FEF70010E09E9704E
:0527F500F20A80EF2252
:10212500EF4E6012EF60010EEDBB010B89828A83D1
:10213500F0A3DFFCDEFA2289F05007F709DFFCA9DE
:0C214500F022BBFEFCF309DFFCA9F02235
:10276500022E33E493A3F8E493A34003F68001F229
:1027750008DFF48029E493A3F85407240CC8C33375
:10278500C4540F4420C8834004F456800146F6DF44
:10279500E4800B0102040810204080902E5EE47E48
:1027A500019360BCA3FF543F30E509541FFEE49339
:1027B500A360010ECF54C025E060A840B8E493A300
:1027C500FAE493A3F8E493A3C8C582C8CAC583CA2B
:1027D500F0A3C8C582C8CAC583CADFE9DEE780BEE3
:012E88000049
:10215100BB010689828A83F0225002F722BBFE016D
:02216100F32267
:10216300BC000BBE0029EF8DF084FFADF022E4CC60
:10217300F875F008EF2FFFEE33FEEC33FCEE9DEC29
:10218300984005FCEE9DFE0FD5F0E9E4CEFD22ED6F
:10219300F8F5F0EE8420D21CFEADF075F008EF2FB9
:1021A300FFED33FD4007985006D5F0F222C398FDAA
:0521B3000FD5F0EA2247
:1021B800F8E0FBA3A3E0F925F0F0E58215827002B0
:0721C8001583E0FA38F02254
:0921CF00EBF0A3EAF0A3E9F02211
:1021D800D083D082F8E4937012740193700DA3A396
:1021E80093F8740193F5828883E4737402936860AA
:0621F800EFA3A3A380DFAA
:102E8900EFB40A07740D122E94740A309811A89998
:102E9900B8130CC2983098FDA899C298B811F630A9
:072EA90099FDC299F5992281
:00000001FF
