:020000040800F2
:100000003804002045010008050A0008B50400086E
:10001000010A0008B9010008A10F00080000000053
:100020000000000000000000000000002D0C00088F
:100030003902000800000000070A0008150D00083A
:100040005F0100085F0100085F0100085F01000810
:100050005F0100085F0100085F0100085F01000800
:100060005F0100085F0100085F0100085F010008F0
:100070005F0100085F0100085F0100085F010008E0
:100080005F0100085F0100085F0100085F010008D0
:100090005F0100085F0100085F0100085F010008C0
:1000A0005F0100085F0100085F0100085F010008B0
:1000B0005F0100085F0100085F0100085F010008A0
:1000C0005F0100085F0100085F0100085F01000890
:1000D0005F0100085F0100085F0100085F01000880
:1000E0005F0100085F0100085F0100085F01000870
:1000F0005F0100085F0100085F0100085F01000860
:100100005F0100085F0100085F0100085F0100084F
:100110005F0100085F0100085F0100085F0100083F
:100120005F0100085F0100085F0100085F0100082F
:10013000DFF80CD000F02EF8004800475D110008F1
:10014000380400200648804706480047FEE7FEE7DF
:10015000FEE7FEE7FEE7FEE7FEE7FEE7FEE7FEE777
:10016000990D00083101000830B50B46014600200A
:100170002022012409E021FA02F59D4205D303FA69
:1001800002F5491B04FA02F52844151EA2F10102EA
:10019000F1DC30BD064C074D06E0E06840F001039D
:1001A00094E8070098471034AC42F6D3FFF7C4FF39
:1001B0006C1700088C17000800BFFEE708B5012186
:1001C000082000F031FC4FF48060ADF800001020F2
:1001D0008DF8030003208DF802006946044800F002
:1001E000D3F84FF48061024800F062F908BD0000C6
:1001F000000C014008B54FF48060ADF800004820C5
:100200008DF803006946024800F0BEF808BD000002
:10021000000C014008B54FF48060ADF800001020DC
:100220008DF8030003208DF802006946014800F0B4
:10023000ABF808BD000C0140704701B502E0009822
:10024000401E009000980028F9D108BD01B508496A
:10025000009808604FF0E020006940F001004FF086
:10026000E021086100BF024800680028FBD108BDFA
:100270003000002051B14FF0204252F8202042F0CF
:1002800001024FF0204343F8202009E04FF02042C4
:1002900052F82020034B1A404FF0204343F820200F
:1002A00070470000FEFF0F00D0E901121143C26841
:1002B0001143026911434269114382691143C269C2
:1002C0001143026A1143426A1143826A1143C26AAE
:1002D0001143026B11434FF02043026843F8221090
:1002E0008168082908D11A46016852F8211041F0A6
:1002F0004001026843F82210416B0968426B526862
:1003000041EA0211426B926841EA0221426B9289F2
:1003100041EA0241426B128A41EA0251426B127D6C
:1003200041EA0261426B926911430268521C4FF02C
:10033000204343F82210C16AB1F5804F1AD1816B76
:100340000968826B526841EA0211826B926841EA45
:100350000221826B128A41EA0251826B127D41EACC
:100360000261826B92691143026803EB8202C2F858
:10037000041108E06FF070414FF02043026803EB76
:100380008202C2F8041170472DE9F04102460025AF
:100390000026002000230024002791F803C00CF061
:1003A0000F0591F803C01CF0100F03D091F802C0A4
:1003B0004CEA050591F800C0BCF1000F31D014687B
:1003C00000202BE04FF0010C0CFA00F3B1F800C054
:1003D0000CEA03069E4220D183004FF00F0C0CFA6A
:1003E00003F7BC4305FA03FC4CEA040491F803C08C
:1003F000BCF1280F06D14FF0010C0CFA00FCC2F83A
:1004000014C00AE091F803C0BCF1480F05D14FF0C9
:10041000010C0CFA00FCC2F810C0401C0828D1D313
:100420001460B1F800C0BCF1FF0F34DD5468002047
:100430002EE000F1080C4FF0010808FA0CF3B1F8B7
:1004400000C00CEA03069E4221D183004FF00F0C3E
:100450000CFA03F7BC4305FA03FC4CEA040491F8D8
:1004600003C0BCF1280F05D100F1080C08FA0CF804
:10047000C2F8148091F803C0BCF1480F07D100F115
:10048000080C4FF0010808FA0CF8C2F81080401C64
:100490000828CED35460BDE8F0810246002093685E
:1004A0000B4201D0012000E00020704741617047FD
:1004B0000161704700BFFEE7F0B5059D00242A26C4
:1004C0004FF0D8473E8006124FF0DA473E80C6B262
:1004D0003E808618761EC6F30F263E808618761E4E
:1004E000F6B23E802B264FF0D8473E800E124FF0DA
:1004F000DA473E80CEB23E80CE18761EC6F30F2677
:100500003E80CE18761EF6B23E802C264FF0D8479D
:100510003E8000BF03E04FF0DA463580641C02FBEA
:1005200003F6A642F7D8F0BD2DE9F0470646884607
:10053000144699460027002525463DB94B463022F2
:100540004146304600F024F8BDE8F08703E00A2079
:10055000B5FBF0F57F1C002DF9D115E00A20B4FBA6
:10056000F0F100FB114000F1300A39467F1E0622EF
:1005700002FB0161891F88B24B465246414600F09A
:1005800007F80A20B4FBF0F4002CE7D100BFDBE74A
:100590002DE9F04F81468A4615461E46A5F12000FA
:1005A0001FFA80FB0C2306225146484600F0E0F873
:1005B0002C204FF0D841088000241BE00BEB4B00AF
:1005C0000E4901EB800010F8048000270EE018F0BF
:1005D000010F03D04FF0DA40068003E000204FF017
:1005E000DA4108804FEA6808781C87B2062FEEDBF4
:1005F000601C84B20C2CE1DBBDE8F08FF81200081F
:10060000F0B505460E4614461F4613E0EA2D03DDFD
:10061000002506F10C0086B2B6F59A7F01DD0025B3
:10062000002622783B4631462846FFF7B1FFA81D39
:1006300085B2641C20780028E8D1F0BD00B597B0E1
:1006400002200190002002900520039000200490D9
:10065000059006904FF080500790062008900020EB
:10066000099008200A9010200B9000200C900E900A
:100670000F9010904FF48050119000201290139022
:10068000149001A81590169008A8FFF70DFE0121FF
:100690000620FFF7EFFD17B000BD000008B50121EF
:1006A000080200F0B1F901214FF4F47000F0BCF938
:1006B00010208DF8030003208DF802000220ADF811
:1006C000000069462148FFF75FFE4FF40060ADF877
:1006D000000069461E48FFF757FE03208DF8020010
:1006E00018208DF803004CF20370ADF80000694645
:1006F0001848FFF749FE4FF68070ADF800006946D4
:100700001548FFF741FE1020ADF80000694611487A
:10071000FFF73AFE2020ADF8000069460D48FFF7CC
:1007200033FE4FF48050ADF8000069460848FFF7EB
:100730002BFE0420ADF8000069460748FFF724FEB1
:1007400002210248FFF7B2FE08BD0000000C014084
:1007500000200140001401400018014010B5FFF7CF
:100760009DFFFFF76BFF00F035F900F029F810BD91
:1007700030B52A244FF0D8452C8004124FF0DA45CA
:100780002C80C4B22C808418641EC4F30F242C80E7
:100790008418641EE4B22C802B244FF0D8452C80A2
:1007A0000C124FF0DA452C80CCB22C80CC18641E91
:1007B000C4F30F242C80CC18641EE4B22C8030BD0E
:1007C00000B5CF204FF0D841088000204FF0DA412B
:1007D00008808120088030200880ED204FF0D8412B
:1007E000088064204FF0DA4108800320088012203E
:1007F000088081200880E8204FF0D84108808520BB
:100800004FF0DA4108801020088078200880CB2043
:100810004FF0D841088039204FF0DA4108802C2071
:100820000880002008803420088002200880F720FB
:100830004FF0D841088020204FF0DA410880EA20AC
:100840004FF0D841088000204FF0DA41088008803E
:10085000B1204FF0D841088000204FF0DA410880E5
:100860001B200880B620410608800A204FF0DA419C
:100870000880A2200880C0204FF0D8410880352091
:100880004FF0DA410880C1204FF0D8410880112094
:100890004FF0DA410880C5204FF0D841088045204C
:1008A0004FF0DA4108800880C7204FF0D841088017
:1008B000A2204FF0DA410880F2204FF0D8410880A2
:1008C00000204FF0DA41088026204FF0D841088000
:1008D00001204FF0DA410880E0204FF0D841088035
:1008E0000F204FF0DA41088026200880242008805D
:1008F0000B2008800E2008800920088054200880E2
:10090000A8200880462008800C2008801720088036
:10091000092008800F200880072008800020088018
:10092000E1204FF0D841088000204FF0DA410880E4
:10093000192008801B2008800420088010200880CF
:10094000072008802A200880472008803920088056
:100950000320088006200880088030200880382086
:1009600008800F200880362041060880C8204FF0FC
:10097000DA4108802A204FF0D841088000204FF04B
:10098000DA41088008800880EF2008802B204FF093
:10099000D841088000204FF0DA410880088001200B
:1009A00008803F2008803A204FF0D8410880552029
:1009B0004FF0DA41088011204FF0D84108800448F8
:1009C000FFF73BFC29204FF0D841088000BD000014
:1009D000FCBF020010B54FF400610748FFF766FD49
:1009E0000648FFF72AFC4FF400610348FFF760FD5B
:1009F0000248FFF722FC10BD00200140FCBF0200AE
:100A000000BFFEE77047704729B1064A52690243AA
:100A1000044B5A6104E0034A52698243014B5A6114
:100A2000704700000010024029B1064A9269024353
:100A3000044B9A6104E0034A92698243014B9A6134
:100A4000704700000010024030B500210022002451
:100A500000232D4D6D6805F00C0121B1042905D04E
:100A6000082923D105E0294D056022E0274D0560C6
:100A70001FE0254D6D6805F47012234D6D6805F477
:100A80008034022505EB92421CB9214D5543056087
:100A90000BE01D4D6D6815F4003F03D01C4D554310
:100AA000056002E0194D5543056002E0174D0560F1
:100AB00000BF00BF144D6D6805F0F0010909154D28
:100AC0006B5C0568DD4045600F4D6D6805F4E061C5
:100AD000090A104D6B5C4568DD4085600A4D6D6804
:100AE00005F46051C90A0B4D6B5C4568DD40C5607B
:100AF000054D6D6805F44041890B074D6B5CC56879
:100B0000B5FBF3F5056130BD0010024000127A001C
:100B100000093D00140000202400002070B50025CD
:100B2000002427E000BF4FF480611448FFF7B5FCB4
:100B30000028F8D00420FFF789FB4FF480610F48AC
:100B4000FFF7ABFC01280ED100BF4FF480610B48CA
:100B5000FFF7A3FC0128F8D0C4F107010120884069
:100B6000C0B2054304E0C4F1070101208840854379
:100B7000601CC4B2082CD5DB284670BD000C0140B7
:100B800010B50446FFF746FB4FF480612648FFF797
:100B90008DFC4FF4E160FFF759FB4FF48061224870
:100BA000FFF786FC0320FFF751FBFFF723FB4FF411
:100BB00080611D48FFF771FC88BB00BF4FF4806166
:100BC0001948FFF76AFC0028F8D000BF4FF4806195
:100BD0001548FFF762FC0128F8D0FFF79FFF20704F
:100BE000FFF79CFF6070FFF799FFA070FFF796FF7B
:100BF000E070FFF793FF2071FFF70CFB4FF480616B
:100C00000948FFF755FC207861780844A17808442A
:100C1000E17808442179884202D1012010BD01E029
:100C20000020FBE70020F9E7000C0140704710B5F9
:100C300000F002F810BD00000CB5002001900090FB
:100C40003248006840F480303049086000BF2F48C7
:100C5000006800F4003000900198401C019000985A
:100C600018B90198B0F5A06FF1D12848006810F4C8
:100C7000003F02D00120009001E000200090009889
:100C8000012842D12248006840F010002049086045
:100C90000846006820F0030008600846006840F03D
:100CA00002000860194840681849486008464068D2
:100CB00048600846406840F48060486008464068E4
:100CC00020F47C1048600846406840F4E810486012
:100CD0000846006840F08070086000BF0B4800685C
:100CE00010F0007FFAD00948406820F0030007495F
:100CF00048600846406840F00200486000BF034872
:100D0000406800F00C000828F9D10CBD001002402A
:100D10000020024010B500F06FF810BD30B51A4841
:100D200000681A4AB0FBF2F1B1F1807F01D30120D3
:100D30001DE021F07F40401E4FF0E022506150172F
:100D40000F22002807DA13071D0E114B00F00F04C5
:100D5000241F1D5503E013071C0E0E4B1C5400BF2F
:100D600000204FF0E022906107201061002008B1C0
:100D700000BFFEE74FF0E020006920F001004FF0D7
:100D8000E021086130BD000000000020A0860100C5
:100D900018ED00E000E400E010B51348006840F0F2
:100DA00001001149086008464068104908400E4992
:100DB0004860084600680E4908400B49086008462C
:100DC000006820F4802008600846406820F4FE0097
:100DD00048604FF41F008860FFF729FF4FF0006064
:100DE0000449086010BD0000001002400000FFF838
:100DF000FFFFF6FE08ED00E00448006820B103485C
:100E00000068401E01490860704700003000002063
:100E100000B585B0012144F20400FFF705FE4FF450
:100E20000070ADF8100018208DF8130003208DF825
:100E3000120004A91348FFF7A7FA4FF48060ADF839
:100E4000100004208DF8130004A90E48FFF79CFA47
:100E50004FF4E13000900020ADF80400ADF806003A
:100E6000ADF80800ADF80C000C20ADF80A0069469A
:100E7000054800F025F80121034800F007F805B007
:100E800000BD0000000801400038014021B1828906
:100E900042F40052828104E082894DF6FF731A40C9
:100EA0008281704702460020B1F5007F00D100BF6B
:100EB00013880B4201D0012000E0002070470000A1
:100EC0002DE9F04786B005460E460024A24600BF35
:100ED000A1460027B08900B100BF2F462C8A4CF6EE
:100EE000FF700440F08804432C82AC894EF6F31066
:100EF0000440B08831890843718908430443AC81B8
:100F0000AC8A4FF6FF400440B0890443AC8201A88C
:100F1000FFF79AFD1F48874202D1DDF810A001E0DB
:100F2000DDF80CA0A88910F4004F08D00AEBCA0025
:100F300000EB0A1031684900B0FBF1F807E00AEB5A
:100F4000CA0000EB0A1031688900B0FBF1F8642098
:100F5000B8FBF0F004012009642101FB1089A88985
:100F600010F4004F08D0322000EBC900B0FBF1F0C4
:100F700000F00700044308E0322000EB0910642170
:100F8000B0FBF1F000F00F0004432C8106B0BDE887
:100F9000F087000000380140C1F3080282807047EA
:100FA00000BFFEE70FB4054B10B503A9044A029831
:100FB00000F018F810BC5DF814FB000039110008AF
:100FC0003400002002E008C8121F08C1002AFAD12C
:100FD00070477047002001E001C1121F002AFBD1B9
:100FE000704700002DE9FF4F89B09B46044600255D
:100FF00097E0252833D10027641C4E49B8460122CA
:101000002378203B02FA03F0084202D00743641C15
:10101000F6E720782E2819D114F8010F47F00407BD
:101020002A280ED06FF02F022078A0F13001092974
:101030000CD808EB880102EB410100EB0108641CAD
:10104000F2E70A98641C50F8048B0A902078002874
:101050006BD0642808D0692806D0752820D05A465D
:101060000B9990476D1C5BE00A994FF00A0901C982
:101070000A91002804DAC0F100004FF02D0102E0CF
:10108000390504D52B218DF82010012103E0F90743
:1010900004D02021F7E78A4608AE0EE00021FAE7E7
:1010A0000A994FF00A0901C90A91F7E74946FFF783
:1010B0005BF801F1300106F8011D0028F6D1ADEB17
:1010C000060000F12009780701D44FF00108C84557
:1010D00002DDA8EB090000E000208046002706E0C2
:1010E00008A85A46C05D0B9990476D1C7F1C574558
:1010F000F6DB04E030205A460B9990476D1CB8F19E
:101100000001A8F10108F5DC05E016F8010B5A46CC
:101110000B9990476D1CB9F10001A9F10109F4DCAC
:10112000641C207800287FF464AF0DB02846BDE829
:10113000F08F00000928010070B504460D46E1B2A9
:101140000548FFF729FF00BF40210348FFF7AAFE2B
:101150000028F9D0204670BD0038014008B5FFF7DF
:10116000DDFDFFF7FBFA00204FF4A073F0220146EB
:101170000090FFF7A1F94FF6FF7326A25A210A202B
:10118000FFF73EFAFFF744FE29A0FFF70BFFFFF73A
:1011900015F83248FFF7F4FC01282ED12F48C0780B
:1011A00000902E488378427801782DA0FFF7FAFE50
:1011B0002A488278017839A0FFF7F4FE4FF6FF73D2
:1011C0003CA26E210A20FFF71BFA244802784FF652
:1011D000FF736E214020FFF7A7F94FF6FF7338A287
:1011E00082210A20FFF70CFA1C4882784FF6FF7321
:1011F00082215220FFF798F909E035A0FFF7D2FECF
:101200004FF6FF7337A26E210A20FFF7F9F900BFEE
:10121000FEE70000546869732069732061206468E8
:1012200074313120746573742064656D6F00000043
:101230000D0A2A2A2AD2B0BBF049534F20646874A1
:10124000313120CEC2CAAAB6C8B4ABB8D0C6F7CA2C
:10125000B5D1E92A2A2A0D0A000000002800002042
:101260000D0AB6C1C8A14448543131B3C9B9A62149
:101270000D0A0D0ACAAAB6C8CEAA25642E25642076
:10128000A3A5524820A3ACCEC2B6C8CEAA202564DE
:101290002E2564A1E6200D0A000000000D0A20CAD8
:1012A000AAB6C83A25642CCEC2B6C83A2564200D29
:1012B0000A00000068756D69646974793A0000007D
:1012C00074656D70657261747572653A0000000036
:1012D00052656164204448543131204552524F5286
:1012E000210D0A0052656164204448543131204583
:1012F00052524F52000000000000000000000000A9
:1013000000000000000004040404040400040000C1
:1013100000140A0A0000000000000000000014147D
:101320003F140A3F0A0A000000041E1505060C14AB
:10133000150F0400000012150D0A142C2A120000CB
:101340000000040A0A1E15150936000000020201F9
:101350000000000000000000002010080808080835
:101360000810200000020408080808080804020009
:1013700000000004150E0E15040000000000040417
:10138000041F04040400000000000000000000002E
:101390000002020100000000001F00000000000029
:1013A000000000000000000000020000001008081B
:1013B000080404020202010000000E1111111111B3
:1013C000110E00000000040604040404040E0000D2
:1013D00000000E1111080402011F000000000E1190
:1013E000100C1010110E00000000080C0A0A091E53
:1013F0000818000000001F01010F1010110E00005E
:1014000000000E09010F1111110E000000001F094C
:10141000080404040404000000000E11110E111150
:10142000110E000000000E1111111E10120E00000E
:1014300000000000040000000004000000000000A4
:101440000004000000040400002010080402040846
:1014500010200000000000001F00001F000000001E
:1014600000020408102010080402000000000E1101
:10147000110804040004000000000E111915151DC8
:10148000011E0000000004040C0A0A1E12330000B2
:1014900000000F12120E1212120F000000001E1197
:1014A00001010101110E000000000F1212121212B0
:1014B000120F000000001F120A0E0A02121F000085
:1014C00000001F120A0E0A020207000000001C1290
:1014D00001013911120C000000003312121E121209
:1014E0001233000000001F0404040404041F000061
:1014F00000003E0808080808080907000000371225
:101500000A060A0A1237000000000702020202025D
:10151000223F000000001B1B1B1B151515150000AA
:1015200000003B1216161A1A1217000000000E11C6
:1015300011111111110E000000000F12120E020203
:101540000207000000000E1111111117190E1800EA
:1015500000000F12120E0A121237000000001E11B6
:1015600001060810110F000000001F1504040404F8
:10157000040E00000000331212121212120C0000AE
:1015800000003312120A0A0C0404000000001515B2
:10159000150E0A0A0A0A000000001B0A0A04040ABF
:1015A0000A1B000000001B0A0A040404040E0000C9
:1015B00000001F0908040402121F0000001C04049C
:1015C0000404040404041C000002020204040808C9
:1015D00008100000000E08080808080808080E0097
:1015E00000040A00000000000000000000000000ED
:1015F000000000000000003F0004000000000000A8
:101600000000000000000000000C121C123C000052
:1016100000000302020E1212120E00000000000071
:10162000001C1202021C000000001810101C1212F4
:10163000123C000000000000000C121E021C000002
:1016400000003804041E0404041E00000000000012
:10165000003C120C021E221C00000302020E121299
:10166000123700000000040000060404040E00000D
:1016700000000800000C0808080808070000030222
:10168000023A0A0E123700000000070404040404A2
:10169000041F000000000000000F151515150000C4
:1016A00000000000000F12121237000000000000BE
:1016B000000C1212120C000000000000000F1212A9
:1016C000120E020700000000001C1212121C10383B
:1016D00000000000001B06020207000000000000DE
:1016E000001E020C101E000000000004040E040482
:1016F0000418000000000000001B1212123C000041
:10170000000000000037120A0C0400000000000076
:101710000015150E0A0A000000000000001B0A0454
:101720000A1B0000000000000037120A0C0404032A
:1017300000000000001E0804041E00000018080835
:101740000804080808081800080808080808080815
:101750000808080800060404040804040404060039
:101760000225180000000000000000008C1700088F
:101770000000002038000000C40F0008C417000853
:101780003800002000040000D40F000800A24A0422
:101790000000000000000000010203040607080921
:1017A0000000000001020304010203040607080907
:1017B0000204060800000000000000000000000015
:0417C0000000000025
:0400000508000131BD
:00000001FF
