:020000040800F2
:1000000038040020450100089D03000895030008FE
:1000100099030008B90100081D090008000000004C
:10002000000000000000000000000000A50500081E
:1000300039020008000000009F0300089106000834
:100040005F0100085F0100085F0100085F01000810
:100050005F0100085F0100085F0100085F01000800
:100060005F0100085F0100085F0100085F010008F0
:100070005F0100085F0100085F0100085F010008E0
:100080005F0100085F0100085F0100085F010008D0
:100090005F0100085F0100085F0100085F010008C0
:1000A0005F0100085F0100085F0100085F010008B0
:1000B0005F0100085F0100085F0100085F010008A0
:1000C0005F0100085F0100085F0100085F01000890
:1000D0005F0100085F0100085F0100085F01000880
:1000E0005F0100085F0100085F0100085F01000870
:1000F0005F0100085F0100085F0100085F01000860
:100100005F0100085F0100085F0100085F0100084F
:100110005F0100085F0100085F0100085F0100083F
:100120005F0100085F0100085F0100085F0100082F
:10013000DFF80CD000F02EF800480047D90A00087C
:10014000380400200648804706480047FEE7FEE7DF
:10015000FEE7FEE7FEE7FEE7FEE7FEE7FEE7FEE777
:10016000150700083101000830B50B460146002094
:100170002022012409E021FA02F59D4205D303FA69
:1001800002F5491B04FA02F52844151EA2F10102EA
:10019000F1DC30BD064C074D06E0E06840F001039D
:1001A00094E8070098471034AC42F6D3FFF7C4FF39
:1001B000980B0008B80B000800BFFEE708B5012146
:1001C000082000F0EDF84FF48060ADF8000010203A
:1001D0008DF8030003208DF802006946044800F002
:1001E00041F84FF48061024800F0D2F808BD0000E9
:1001F000000C014008B54FF48060ADF800004820C5
:100200008DF803006946024800F02CF808BD000094
:10021000000C014008B54FF48060ADF800001020DC
:100220008DF8030003208DF802006946014800F0B4
:1002300019F808BD000C01407047000001B50849DD
:10024000009808604FF0E020006940F001004FF096
:10025000E021086100BF024800680028FBD108BD0A
:10026000300000202DE9F041024600250026002044
:1002700000230024002791F803C00CF00F0591F82B
:1002800003C00CF0100CBCF1000F03D091F802C0B9
:100290004CEA050591F800C0BCF1000F31D014689C
:1002A00000202BE04FF0010C0CFA00F3B1F800C075
:1002B0000CEA03069E4220D183004FF00F0C0CFA8B
:1002C00003F7BC4305FA03FC4CEA040491F803C0AD
:1002D000BCF1280F06D14FF0010C0CFA00FCC2F85B
:1002E00014C00AE091F803C0BCF1480F05D14FF0EB
:1002F000010C0CFA00FCC2F810C0401C0828D1D335
:100300001460B1F800C0BCF1FF0F34DD5468002068
:100310002EE000F1080C4FF0010808FA0CF3B1F8D8
:1003200000C00CEA03069E4221D183004FF00F0C5F
:100330000CFA03F7BC4305FA03FC4CEA040491F8F9
:1003400003C0BCF1280F05D100F1080C08FA0CF825
:10035000C2F8148091F803C0BCF1480F07D100F136
:10036000080C4FF0010808FA0CF8C2F81080401C85
:100370000828CED35460BDE8F0810246002093687F
:100380000B400BB1012000E0002070474161704735
:100390000161704700BFFEE700BFFEE7704770478E
:1003A00029B1064A92690243044B9A6104E0034A68
:1003B00092698243014B9A6170470000001002402D
:1003C00030B500210022002400232D4D6D6805F07A
:1003D0000C0121B1042905D0082923D105E0294DBC
:1003E000056022E0274D05601FE0254D6D6805F48E
:1003F0007012234D6D6805F48034022505EB92429E
:100400001CB9214D554305600BE01D4D6D6805F489
:1004100000351DB11C4D5543056002E0194D554393
:10042000056002E0174D056000BF00BF144D6D6808
:1004300005F0F0010909154D6B5C0568DD4045606C
:100440000F4D6D6805F4E061090A104D6B5C45685D
:10045000DD4085600A4D6D6805F46051C90A0B4D99
:100460006B5C4568DD40C560054D6D6805F4404135
:10047000890B074D6B5CC568B5FBF3F5056130BDB5
:100480000010024000127A0000093D001400002014
:100490002400002070B50025002427E000BF4FF4A1
:1004A00080611448FFF769FF0028F8D02820FFF783
:1004B000C5FE4FF480610F48FFF75FFF01280ED1A2
:1004C00000BF4FF480610B48FFF757FF0128F8D0B9
:1004D000C4F1070101208840C0B2054304E0C4F123
:1004E0000701012088408543601CC4B2082CD5DB7D
:1004F000284670BD000C014010B50446FFF78AFE87
:100500004FF480612648FFF741FF44F25060FFF747
:1005100095FE4FF480612248FFF73AFF1E20FFF757
:100520008DFEFFF767FE4FF480611D48FFF725FF42
:1005300088BB00BF4FF480611948FFF71EFF0028F9
:10054000F8D000BF4FF480611548FFF716FF01286F
:10055000F8D0FFF79FFF2070FFF79CFF6070FFF758
:1005600099FFA070FFF796FFE070FFF793FF2071EF
:10057000FFF750FE4FF480610948FFF709FF20782C
:1005800061780844A1780844E178084421798842D8
:1005900002D1012010BD01E00020FBE70020F9E7B7
:1005A000000C0140704710B500F002F810BD0000CB
:1005B0000CB50020019000903348006840F4803072
:1005C0003149086000BF3048006800F400300090F6
:1005D0000198401C0190009818B90198B0F5A06FDF
:1005E000F1D12948006800F4003010B101200090DA
:1005F00001E0002000900098012843D123480068C2
:1006000040F01000214908600846006820F003000F
:1006100008600846006840F0020008601A48406818
:10062000194948600846406848600846406840F4F8
:10063000806048600846406820F47C1048600846A6
:10064000406840F4E81048600846006840F0807058
:10065000086000BF0C48006800F000700028F9D066
:100660000948406820F00300074948600846406890
:1006700040F00200486000BF0348406800F00C00F2
:100680000828F9D10CBD00000010024000200240F3
:1006900010B500F06FF810BD30B51A4800681A4A5E
:1006A000B0FBF2F1B1F1807F01D301201DE021F018
:1006B0007F40401E4FF0E022506150170F2200286B
:1006C00007DA13071D0E114B00F00F04241F1D55F0
:1006D00003E013071C0E0E4B1C5400BF00204FF00C
:1006E000E022906107201061002008B100BFFEE702
:1006F0004FF0E020006920F001004FF0E021086198
:1007000030BD00000000002040420F0018ED00E066
:1007100000E400E010B51348006840F00100114902
:10072000086008464068104908400E49486008467D
:1007300000680E4908400B4908600846006820F42C
:10074000802008600846406820F4FE0048604FF4AE
:100750001F008860FFF727FF4FF000600449086022
:1007600010BD0000001002400000FFF8FFFFF6FE81
:1007700008ED00E00448006820B103480068401E0E
:1007800001490860704700003000002000B585B0C6
:10079000012144F20400FFF703FE4FF40070ADF8AE
:1007A000100018208DF8130003208DF8120004A902
:1007B0001348FFF757FD4FF48060ADF81000042098
:1007C0008DF8130004A90E48FFF74CFD4FF4E130FB
:1007D00000900020ADF80400ADF80600ADF8080068
:1007E000ADF80C000C20ADF80A006946054800F091
:1007F00025F80121034800F007F805B000BD00000E
:10080000000801400038014021B1828942F40052C1
:10081000828104E082894DF6FF731A40828170471D
:1008200002460020B1F5007F00D100BF13880B40C5
:100830000BB1012000E00020704700002DE9F047D7
:1008400086B005460E460024A24600BFA1460027FA
:10085000B08900B100BF2F462C8A4CF6FF700440CF
:10086000F08804432C82AC894EF6F3100440B08823
:1008700031890843718908430443AC81AC8A4FF63F
:10088000FF400440B0890443AC8201A8FFF798FD03
:100890001F48874202D1DDF810A001E0DDF80CA06E
:1008A000A88900F4004040B10AEBCA0000EB0A102E
:1008B00031684900B0FBF1F807E00AEBCA0000EB31
:1008C0000A1031688900B0FBF1F86420B8FBF0F041
:1008D00004012009642101FB1089A88900F400406B
:1008E00040B1322000EBC900B0FBF1F000F007008E
:1008F000044308E0322000EB09106421B0FBF1F062
:1009000000F00F0004432C8106B0BDE8F087000022
:1009100000380140C1F308028280704700BFFEE743
:100920000FB4054B10B503A9044A029800F018F85B
:1009300010BC5DF814FB0000B50A0008340000206C
:1009400002E008C8121F08C1002AFAD17047704798
:10095000002001E001C1121F002AFBD170470000F6
:100960002DE9FF4F89B09B460446002506E0252867
:100970000BD05A460B999047641C6D1C20780028B8
:10098000F5D10DB02846BDE8F08F0027B84601220A
:10099000474900E0074314F8013F203B02FA03F007
:1009A0000842F7D120782E2819D114F8010F47F00A
:1009B00004072A280ED06FF02F022078A0F1300112
:1009C00009290CD808EB880102EB410100EB010872
:1009D000641CF2E70A98641C50F8048B0A90207893
:1009E0000028CED0642808D0692806D075281ED0EB
:1009F0005A460B9990476D1C58E00A994FF00A0926
:100A000001C90A91002802DA40422D2102E039058D
:100A100004D52B218DF82010012103E0F90704D023
:100A20002021F7E78A4608AE0DE00021FAE70A998F
:100A30004FF00A0901C90A91F7E74946FFF794FB0D
:100A4000303106F8011D0028F7D1ADEB060000F1AA
:100A50002009780701D44FF00108C84502DDA8EB52
:100A6000090000E000208046002706E008A85A465A
:100A7000C05D0B9990476D1C7F1C5745F6DB04E069
:100A800030205A460B9990476D1CB8F10001A8F12F
:100A90000108F5DC05E016F8010B5A460B99904762
:100AA0006D1CB9F10001A9F10109F4DC641C65E7D2
:100AB0000928010070B504460D46E1B20548FFF76C
:100AC00029FF00BF40210348FFF7AAFE0028F9D004
:100AD000204670BD0038014008B5FFF7DDFDFFF787
:100AE00055FE0DA0FFF71CFFFFF768FB1548FFF749
:100AF00003FD01280AD11348C0780090114883787B
:100B00004278017810A0FFF70BFF02E01DA0FFF76D
:100B100007FF00BFFEE700000D0A2A2A2AD2B0BB59
:100B2000F049534F20646874313120CEC2CAAAB64E
:100B3000C8B4ABB8D0C6F7CAB5D1E92A2A2A0D0A7B
:100B400000000000280000200D0AB6C1C8A14448DA
:100B5000543131B3C9B9A6210D0A0D0ACAAAB6C8C3
:100B6000CEAA25642E256420A3A5524820A3ACCE8E
:100B7000C2B6C8CEAA2025642E2564A1E6200D0A9F
:100B80000000000052656164204448543131204522
:100B900052524F52210D0A00B80B000800000020ED
:100BA0003800000040090008F00B00083800002061
:100BB000000400005009000800A24A0400000000E0
:100BC00000000000010203040607080900000000FD
:100BD00001020304010203040607080902040608CF
:100BE0000000000000000000000000000000000005
:0400000508000131BD
:00000001FF
